:0200000280007C
:10000000F87F0820C10908005508080055080800B5
:10001000550808005508080055080800550808004C
:10002000550808005508080055080800550808003C
:10003000550808005508080055080800051908006B
:1000400059080800610808006908080071080800DC
:10005000790808008108080089080800910808004C
:1000600099080800A1080800A9080800B1080800BC
:10007000B9080800C1080800C9080800D10808002C
:10008000D9080800E1080800E9080800F10808009C
:10009000F908080001090800090908001109080009
:1000A0001909080021090800290908003109080078
:1000B00039090800410908004909080051090800E8
:1000C0005909080061090800690908007109080058
:1000D00079090800810908008909080091090800C8
:1000E00099090800A1090800A9090800B109080038
:1000F000B909080010B5054C237833B9044B13B186
:100100000448AFF300800123237010BD18080720B6
:1001100000000000904D080008B5064B1BB10648D2
:100120000649AFF300800648036813B1054B03B1DD
:10013000984708BD00000000904D08001C080720EB
:10014000904D0800000000002DE9F041CF1CBF08D1
:10015000884618D00446002501E0BD4213D06378DC
:100160002278E6781B0443EA0263A27843EA060198
:1001700041EA022105480135043401F07BF90028E9
:10018000EBD0BDE8F0814046BDE8F081340807209F
:100190000028F8B5144C14DB021DA618C0F3072E76
:1001A000C3B2451D871DE3700F4984F802E04FF686
:1001B000FF7001F08FFB0346020A32706355384628
:1001C000F8BDFF230516021201142571A2712370D8
:1001D0006370E071617104F108060A27092508229D
:1001E00004234FF0000EDEE7400807202DE9F04120
:1001F00082B001A91B4801F053F870BB019B1A4C57
:100200001A0AD9B25FFA82F841EA08281D0E190CC1
:10021000B8F5806FA270E370257061701DD808F189
:1002200005070546BF080F4801A9013501F038F858
:1002300098B9019BAF424FEA13664FEA13414FEA68
:100240001322E37126716171A27104F10404EAD8EA
:1002500008F1060002B0BDE8F0816FF0460002B080
:10026000BDE8F081340807204008072010B582B0AF
:1002700000BA02AA42F8040D202305480C4600F0FB
:10028000B9FF10B923681BBA236002B010BD00BFCC
:100290003408072030B587B0502306A901F8173D70
:1002A00005460522374800F051FF044610B12046AC
:1002B00007B030BD344B04A80294039301F0E0FD75
:1002C00004A8014602AA01F0F5FD03E09A0416D441
:1002D000002CECD101A94FF44830FFF7C7FF0446CA
:1002E00002A801F0CDFD02A804A901F0F1FD022849
:1002F000019BEBD19B0441D46FF06D04D7E7002C38
:10030000D5D1902306A901F8153D1E48052200F01D
:100310001DFF0028CCD105F0AA335B0805F0553548
:1003200043EA450303F03332920003F0CC3342EA50
:10033000930202F00F331B0102F0F03243EA121372
:1003400003F0FF12120203F0FF2342EA13204FEAE8
:10035000304001A9FFF78AFF0028A9D1502306A940
:1003600001F8163D0748052200F0F0FE00289FD155
:1003700001A94FF44030FFF779FF99E76FF06D0066
:1003800096E700BF340807200065CD1D2DE9F04732
:1003900088B001F0D7FABA4EDFF8F882DFF8FC92A5
:1003A000354601F043FBB649042201F03DFFB47825
:1003B000F37843EA0424B4F5806FF2DC01F036FBF5
:1003C000B049A21C01F030FF2F786B7804F1060AC7
:1003D00043EA0727632F12DCD8F80030002B40F0E7
:1003E00005816FF06A00FFF7D3FE0446002CD8DDCC
:1003F00001F022FB2246A24901F01AFFD1E7221D9B
:1004000005EB0A03AC5C13F8013C4FF6FF709C4906
:1004100043EA042401F05EFA844240F0E580643F40
:10042000062F00F21082DFE807F0B8C3BA95603EED
:100430000400D8F80030002BB3D0BAF1120FB0D1BD
:10044000727A317A1204F37A42EA0162B77A13437C
:1004500043EA072717F0FF04A3D1002FA1D051468C
:100460008748FFF771FE1228BFD18DF8184001F0C0
:10047000DDFA84494FF4807201F0D6FE81484FF4D2
:100480008071FFF761FEB0F5807FAED101F0D4FA44
:1004900006A9012201F0CCFEB7F58077E7D1FFF77E
:1004A000A5FE0446A2E7D8F80030002B40F0AD804E
:1004B0007549764801F58C7201F5847300F090FD62
:1004C000724800F0F1FD202370480DF10F01052264
:1004D0008DF80F3000F03AFE002800F099800446B5
:1004E0006A4800F091FD20467DE7D8F80030002BE7
:1004F00040F08B806449654801F58C7201F5847386
:1005000000F06EFD614800F0CFFD20235F480DF143
:100510000B0105228DF80B3000F018FE002800F0CA
:10052000E3800446594800F06FFDE3B203F0AA02ED
:10053000521003F0550342EA430202F0CC039B1031
:1005400002F0330243EA82031A0942EA03133371C9
:100550000124C8E7D8F80040002C56D1224606A84E
:100560004B4900F03DFB012106A800F047FB0A20A3
:1005700001F02EFC214606A800F040FB0A2001F005
:1005800027FC012106A800F039FB0A2001F020FC1D
:1005900006A8032100F03EFBA5E70024A3E7D8F856
:1005A00000303C4F002B40F045816FF06A049AE721
:1005B000D8F800304BBB3449344801F58C7201F552
:1005C000847300F00DFD314800F06EFD20272F48A8
:1005D0000DF1090105228DF8097000F0B7FD002822
:1005E00000F09D8004467EE72B4C7CE72448514672
:1005F000FFF7AAFD8245044603D0002CBFF6F6AEF5
:1006000071E7FFF7F3FD0446F7E76FF069046AE767
:10061000E0231E480DF10E0105228DF80E3000F08A
:1006200095FD00287FF45BAF3F2418480DF10D01C4
:1006300003AA08238DF80C4000F0DCFD00287FF4AD
:100640004EAF0B2411480DF10D0103AA08238DF8BC
:100650000C4000F0CFFD044600287FF441AF0A2093
:1006600001F0B6FB032306A80493059401F008FCEF
:1006700006A8014604AA01F01DFC274618E000BFA9
:1006800040080720440807202C02072034080720D0
:1006900034030720480C072011FCFFFF7C4A0800A8
:1006A0009DF80D30102B3FF41BAF002C7FF418AFDA
:1006B0000DF10D0103AA082364488DF80C7000F0B9
:1006C00099FD9DF80D30044603F0300304A88DF821
:1006D0000D3001F0D5FB04A806A901F0F9FB0228B2
:1006E000DED16FF06D04FBE6E02358480DF10A01FE
:1006F00005228DF80A3000F029FD044600287FF419
:1007000011AF524806A904AA08238DF8104000F042
:1007100071FD00287FF405AF9DF8184002E74FF007
:10072000E00A4A4802A905228DF808A000F00EFD53
:10073000044600287FF4D7AE444806A904AA08233B
:100740008DF8104000F056FD00287FF44BAF9DF867
:100750001830DB0774D58B233C4804A908228DF898
:10076000103000F097FD00287FF43CAFA0233748FD
:100770000DF1070105228DF8073000F0E7FC002895
:100780007FF430AF302331480DF1060105228DF89A
:10079000063000F0DBFC00287FF424AF2B480DF17D
:1007A000050105228DF8057000F0D0FC00287FF4CB
:1007B00019AF264801A905228DF804A000F0C6FC57
:1007C00000287FF40FAF0B23204804A908228DF8DE
:1007D000103000F05FFD00287FF404AFA0231B4819
:1007E0000DF1030105228DF8033000F0AFFC044643
:1007F00000287FF478AE164F57F8040FFFF74AFD34
:10080000044600287FF46FAE4F45F5D1FFF742FD57
:10081000044600287FF467AE70230C480DF10201F6
:1008200005228DF8023000F091FC01230446C8F83F
:10083000003058E60548002400F0E6FB3C6052E634
:100840006FF046044FE64FF0FF344CE634080720C3
:100850003C360800FEE700BF08B5FFF7FBFF08BD08
:1008600008B5FFF7F7FF08BD08B5FFF7F3FF08BDB0
:1008700008B5FFF7EFFF08BD08B5FFF7EBFF08BDB0
:1008800008B5FFF7E7FF08BD08B5FFF7E3FF08BDB0
:1008900008B5FFF7DFFF08BD08B500F031FF08BD60
:1008A00008B5FFF7D7FF08BD08B5FFF7D3FF08BDB0
:1008B00008B5FFF7CFFF08BD08B5FFF7CBFF08BDB0
:1008C00008B5FFF7C7FF08BD08B5FFF7C3FF08BDB0
:1008D00008B5FFF7BFFF08BD08B5FFF7BBFF08BDB0
:1008E00008B500F011FF08BD08B500F011FF08BD04
:1008F00008B500F011FF08BD08B5FFF7ABFF08BD54
:1009000008B5FFF7A7FF08BD08B5FFF7A3FF08BDAF
:1009100008B5FFF79FFF08BD08B5FFF79BFF08BDAF
:1009200008B5FFF797FF08BD08B5FFF793FF08BDAF
:1009300008B5FFF78FFF08BD08B5FFF78BFF08BDAF
:1009400008B5FFF787FF08BD08B5FFF783FF08BDAF
:1009500008B5FFF77FFF08BD08B5FFF77BFF08BDAF
:1009600008B5FFF777FF08BD08B5FFF773FF08BDAF
:1009700008B5FFF76FFF08BD08B5FFF76BFF08BDAF
:1009800008B5FFF767FF08BD08B5FFF763FF08BDAF
:1009900008B5FFF75FFF08BD08B5FFF75BFF08BDAF
:1009A00008B5FFF757FF08BD08B5FFF753FF08BDAF
:1009B00008B5FFF74FFF08BD08B5FFF74BFF08BDAF
:1009C00070B52D4B2D4D2E4C2E482F4940F2014233
:1009D0004FF400466E6022601D4602601962AA6EE6
:1009E000254BD607FBD5294A19461A628A6E224B37
:1009F000D503FBD51A6B194622F0030242F001021F
:100A00001A638A6E1C4B1407FBD5214A19469A6259
:100A10008A6E194B9007FBD511221A631A46916E04
:100A2000154B0907FBD512221A639A6E1207FCD5E3
:100A30001849194A91420DD0184B9A420AD2D04314
:100A4000034423F0030404340023C858D050043373
:100A5000A342FAD1124B134A93420AD2D9430A4411
:100A600022F0030119440022043B43F8042F8B4277
:100A7000FBD1FFF78BFCFEE700060E40501A0E403C
:100A8000000A0E40000C0E40090837000908370123
:100A9000013F0D20004E0800000007201808072025
:100AA00018080720001707200346002019605A6025
:100AB000187258729872D872187358739873D873E2
:100AC000704700BF2DE9F0410446C068A36866681E
:100AD0000138C01A48BF8019904234BF05461546F8
:100AE000F61A2068AE420F46184408D92A4602F08A
:100AF000F3FBA36828462B44A360BDE8F08132468F
:100B0000C6EB050802F0E8FBB9194246206802F07E
:100B1000E3FBC4F808802846BDE8F081F8B5C36857
:100B20008768466803F1FF3EBEEB070748BFBF1961
:100B3000751EEF1B8C46974234BF3D461546016833
:100B4000F61AAE4204461944604607D92A4602F016
:100B5000C3FBE36828462B44E360F8BD324602F04D
:100B6000BBFBAF1B30443A46216802F0B5FBE7609F
:100B70002846F8BDC2688368013A4068D31A48BF66
:100B80001B180138C01A7047024BC3F8010000203F
:100B9000704700BF4C0C0720F0B40F4A92F90030A8
:100BA000012B16D00D4B4FF0010C4FF400674FF4A2
:100BB00080564FF400554FF480444FF400404FF4FA
:100BC000803182F800C01F611E611D611C611861C7
:100BD00019610020F0BC7047FC16072000060E408B
:100BE00001600B6822B14A68002059695A61704758
:100BF0004A68002019691A61704700BF03681A68C3
:100C00005B6819B1116B002013637047516B0020B2
:100C10005363704703681A685B6819B15169002013
:100C2000536170471169002013617047036842687F
:100C300019B1196B00201A637047596B00205A6371
:100C4000704700BFF8B5064632684068136801680F
:100C50004768526800241F25D1F834E04F6300BF75
:100C600000BF196B1A6300BF00BF45FA04F15F6B48
:100C700001F001015A63FFF7D9FF00BF00BF3268DE
:100C800013685268196B1A6300BF00BF596B5A632F
:100C9000706801684768D1F830C00F6300BF00BFBB
:100CA000D3F830C01A6300BF00BFD3F834C05A6312
:100CB00000BF00BFD3F830C01A6300BF00BF0134CB
:100CC000052CD3F834C05A63C6D10020F8BD00BF4C
:100CD000F8B505462A684068136801684768526895
:100CE00000240126D1F834E04F6300BF00BF196B28
:100CF0001A6300BF00BF596B5A6346FA04F1FFF74D
:100D000095FF00BF00BF2A6813685268196B1A6309
:100D100000BF00BF596B5A63686801684768D1F823
:100D200030C00F6300BF00BFD3F830C01A6300BFEC
:100D300000BFD3F834C05A6300BF00BFD3F830C03F
:100D40001A6300BF00BF0134022CD3F834C05A63C9
:100D5000C8D10020F8BD00BFF8B50746FFF7B8FFBF
:100D60007B683A6819685E68136852680725486BA3
:100D70004E6300BF00BF186B1A6300BF00BF586B03
:100D80005A6300BF00BF186B1A6300BF00BF586BE7
:100D90005A6348694E6100BF00BF196B1A6300BFF8
:100DA00000BF0020596B5A6301F0A2F8786801680F
:100DB0004668CC6B0B690E6100BF00BF3A681368D0
:100DC0005268D3F830C01A6300BF00BF3440D3F874
:100DD00034C05A6339D1D1F834E04E6300BF00BF4C
:100DE000196B1A6300BF00BF45FA04F15E6B01F096
:100DF00001015A63FFF71AFF00BF00BF3A6813688A
:100E00005268196B1A6300BF00BF596B5A63786848
:100E100001684668D1F830E00E6300BF00BFD3F828
:100E200030E01A6300BF00BFD3F834E05A6300BF5C
:100E300000BFD3F830E01A6300BF00BF0134042CB8
:100E4000D3F834E05A63C6D191E7F8BD2DE9F04FED
:100E500085B0894605469046029349B1DA1D084699
:100E6000D208002102F0AEFA0E99CB0189F80030C9
:100E7000029B002B70D0686803F1FF3B01241FE048
:100E8000D36B19F80C200B420CBF0023012303FA8B
:100E90000AF3134309F80C3068682E680268336857
:100EA000416876681769116100BF00BF1A6B1E6345
:100EB00000BF00BF5A6B029A013472455E634FD97E
:100EC0006142671E01F00701FB08B8F1000F41D035
:100ED00018F8033043FA01F101F00101FFF7A6FE13
:100EE00000BF00BF2A6813685268196B1A6300BFFD
:100EF00000BF596B5A63B7EB0B03594268685941FD
:100F0000FFF794FE00BF00BF2A68136856681A6B8B
:100F10001E6300BF00BF5A6B5E6300BF00BF1A6B49
:100F20001E6300BF00BFE24302F0070A5A6B5E6314
:100F30004FEAD40C6868A646B9F1000FB4D04168F6
:100F400002680191516901995F45516198D10199F8
:100F5000A646A7E74146C1E72A686868136856684D
:100F60000268416800240127D2F834E0516300BFD1
:100F700000BF1A6B1E6300BF00BF5A6B47FA04F133
:100F80005E63FFF753FE00BF00BF2A681368566810
:100F90001A6B1E6300BF00BF5A6B5E63686802680D
:100FA0004168D2F830C0116300BF00BFD3F830C031
:100FB0001E6300BF00BFD3F834C05E6300BF00BF34
:100FC000D3F830C01E6300BF00BF0134022CD3F839
:100FD00034C05E63C8D1002005B0BDE8F08F00BF0B
:100FE00030B40160836042604C68086811684569EC
:100FF0004461526848694A615A681B68002059690F
:101000005A6130BC704700BF10B50446FFF71AFEA6
:10101000226800201368526859695A61626813682F
:10102000526859695A61A2681368526859695A61CD
:1010300010BD00BF38B50446FFF704FE60680368C2
:101040004268596B5A6300BF00BF22681368526838
:10105000196B1A6300BF00BF00215D6B5A63FFF775
:10106000E5FD00BF00BF226813685268196B1A6360
:1010700000BF00BF596B5A636068016840680C6B21
:10108000086300BF00BF196B1A6300BF00BF596B34
:101090005A6300BF00BF196B1A6300BF00BF002076
:1010A000596B5A6338BD00BF70B5026805461368B6
:1010B000526819691A61596B5A636A68012013688A
:1010C000526819691A61596B5A63AA681E4E1368EF
:1010D000526819691A61596B5A63596B5A6300F067
:1010E00007FFAA68FB2013685268196B1A6300F0A7
:1010F000FFFEAA681F2413685268596B5A6346FAA8
:1011000004F1686801F00101FFF790FD00BF00BF26
:101110002A6813685268196B1A6300BF00BF013C4C
:10112000596B5A63631CEAD1012000F0E1FEAA6802
:10113000012013685268196B1A6300F0D9FE284623
:10114000BDE87040FFF776BF5048434D2DE9F047AA
:101150008246DAF8005040682C680368D0F804E052
:101160006D6882B089469046002603275A6BC3F803
:1011700034E000BF00BF236B256300BF00BF47FA08
:1011800006F1636B01F001016563FFF74FFD00BFDE
:1011900000BFDAF800301C685D68236B256300BF70
:1011A00000BF636B6563DAF8040003684268196B7B
:1011B0001A6300BF00BF216B256300BF00BF616BD6
:1011C000656300BF00BF216B256300BF00BF013610
:1011D000042E616B4FF00001656301D09646C5E7B0
:1011E000009150464A464346FFF730FE02B0BDE844
:1011F000F08700BF2DE9F043064683B090461F46B6
:101200008946FFF765FD736818685B68426B436346
:1012100000BF00BF326814685568226B256300BFA9
:1012200000BF626B656300BF00BF226B256300BF18
:1012300000BF626B65634269436100BF00BF236BFF
:10124000256300BF00BF0020636B656300F050FEA4
:10125000736818685B68C16B0269036100BF00BFF7
:10126000326814685568226B256300BF00BF0B42CB
:101270000CBF4FF0000E4FF0010E636B30466563FC
:10128000494642463B46CDF800E0FFF7DFFD03B09C
:10129000BDE8F08313460A460021FFF7ABBF00BF4D
:1012A0002DE9F04180460F46FFF756FDD8F804308F
:1012B000196858684B6B486300BF00BFD8F800201E
:1012C000136852681C6B1A6300BF00BF5C6B5A63E3
:1012D00000BF00BF1C6B1A6300BF00BF5C6B5A638A
:1012E0004C69486100BF00BF196B1A6300BF00BFA3
:1012F0000020596B5A6300F0FBFDD8F80400046825
:101300004168E56B2369216100BF00BFD8F800E0A8
:10131000DEF80030DEF804201E6B1A6300BF00BF49
:1013200029420CBF002101215D6B5A633960DEF850
:1013300004204668012500BF00BF196B1A6300BF77
:1013400000BF596B5A6300BF00BF196B1A6300BF1F
:1013500000BF596B5A6300BF00BF196B1A6300BF0F
:1013600000BF596B5A636269666100BF00BF00BF6E
:10137000E16B3A680E420CBF00210121A9400A43EB
:101380003A6046682269266100BF00BFDEF804208B
:10139000196B1A6300BF00BF0135202D596B5A63CA
:1013A000C9D1616B666300BF00BF196B1A6300BFD0
:1013B00000BF01215C6B5A63FFF738FC00BF00BF20
:1013C000D8F80020136851681A6B196300BF00BF7A
:1013D0005A6B5963D8F80400056846682A6B2E6377
:1013E00000BF00BF1A6B196300BF00BF5A6B59637F
:1013F00000BF00BF1A6B196300BF00BF00245A6B07
:101400000A465963294601254F6B4E6300BF00BF52
:10141000196B1A6300BF00BF596B5A6345FA04F198
:10142000FFF704FC00BF00BFD8F800201368526823
:10143000196B1A6300BF00BF596B5A63D8F80400D8
:10144000016846680F6B0E6300BF00BF1F6B1A6315
:1014500000BF00BF5F6B5A6300BF00BF1F6B1A6302
:1014600000BF00BF0134022C5F6B5A63CCD1002057
:10147000BDE8F081F8B506460C46FFF76DFC7068D4
:1014800003684268596B5A6300BF00BF3268136833
:101490005268196B1A6300BF00BF596B5A6300BFD3
:1014A00000BF196B1A6300BF00BF596B5A6300BFBE
:1014B00000BF196B1A6300BF00BF596B5A6300BFAE
:1014C00000BF196B1A6300BF00BF1F25596B5A6319
:1014D00004F00101FFF7AAFB640800BF00BF3268F7
:1014E00013685268196B1A6300BF00BF596B5A63C7
:1014F000706801684768D1F834E04F6300BF00BFEF
:10150000196B1A6300BF00BF596B5A6300BF00BF5D
:10151000196B1A6300BF00BF596B5A6300BF00BF4D
:10152000196B1A6300BF00BF013D596B5A63CFD1DD
:1015300004F00101FFF77AFB00BF00BF32681368B7
:1015400051681A6B196300BF00BF5A6B596370680A
:10155000056847682A6B2F6300BF00BF1A6B1963C9
:1015600000BF00BF5A6B596300BF00BF1A6B1963FD
:1015700000BF00BF5A6B596300BF00BF1A6B1963ED
:1015800000BF00BF00245A6B0A4659632946012553
:10159000D1F834E04F6300BF00BF196B1A6300BF7E
:1015A00000BF596B5A6345FA04F1FFF73FFB00BFD8
:1015B00000BF326813685268196B1A6300BF00BF1E
:1015C000596B5A63706801684768D1F830C00F637F
:1015D00000BF00BFD3F830C01A6300BF00BFD3F80C
:1015E00034C05A6300BF00BFD3F830C01A6300BFD5
:1015F00000BF0134022CD3F834C05A63C8D1002094
:10160000F8BD00BF4FF0FF30704700BF70B51E4BF4
:10161000C0EBC00400EB8400C4182668DEB1636828
:101620005A691D691540EA0625D42B0713D515F014
:10163000E00F11D015480122002300F09BFD04F1BA
:101640001C0563680122D3F80011C3F80051D3F8D8
:101650000411C3F8042170BD04F11C05304629466D
:10166000012200F0F1FE0128EBD0012200230848FE
:1016700000F080FDE5E71022D968DA60D6F8620054
:10168000002100F021FBD0E700000720840C072098
:10169000640C07202DE9F04100F15507D0F85160A6
:1016A000044638461546884600F020FE00F0CAF988
:1016B00073684FF48071D3F80821C3F80881D3F818
:1016C0000C21C3F80C51D3F82021C3F820111022AB
:1016D00099689A6000F0F8F9C4F86200002000F000
:1016E00037FB73684FF40072D3F82011C3F8202140
:1016F00000F0AAF9384600F015FE2846BDE8F08152
:101700000020FFF783BF00BF0120FFF77FBF00BFAE
:101710000220FFF77BBF00BF0320FFF777BF00BFAA
:1017200038B50D4C94F90030012B13D00B49002231
:10173000002301250A48257000F006FD084800F046
:1017400025FD084808490022002300F0FDFC05485B
:1017500000F01CFD002038BD800C0720804A0800E6
:10176000640C0720840C0720A44A0800F8B5069EE4
:1017700000251F460446C0F85110C0F8662080F8C6
:101780006A5080F86B5080F86C5080F86D5055307E
:1017900000F08CFD32463946204600F0EBFE204634
:1017A000044900F02FFD2046034900F02FFD284694
:1017B000F8BD00BF9516080005160800F0B4D0F873
:1017C0006630D0F851200546394903EBD37094694F
:1017D000401001441F2CB1FBF3F75BDD04F01F0345
:1017E00001269E40334BC3F800619368D168586866
:1017F000596058695961586C5964586E5966186F28
:10180000D3F870C020EA010119671369516958685B
:10181000596058695961586C5964186FD3F870C091
:1018200020EA010119675368B9B2186A19624FF4C6
:101830000C60596858604FF0FF31D868D96002F1E8
:101840001C00D3F80011C3F800010121E920D3F8EE
:101850000471002CC3F804119F689860D3F820012C
:10186000B8BF1F34C3F820114FF40070D3F8201113
:101870006411C3F82001502118681960A30003F116
:10188000604303F56143C3F8806100201E6015606A
:10189000F0BC704708482040002804DB0126864041
:1018A000044B1E61A1E7013860F01F000130F5E72D
:1018B000D01B500000060E401F000080044B00208B
:1018C00093F90020012A1CBF01221A70704700BF43
:1018D000A00C072010B462B1074C0A4411F8013B78
:1018E00083EA102334F81330914283EA002080B257
:1018F000F4D15DF8044B7047BC4A080008B501F00C
:10190000DBFC00BF08B50C4B0C49D3F805200132B5
:101910008A42C3F8052008D1D3F801200021013202
:10192000C3F801201A7919725A6000F02BFBBDE848
:10193000084000F0CFB800BFA40C0720D0FFFF7F05
:10194000FEE700BF38B500F089FC1B4C606000F07A
:1019500085FCA06000F040FB00F032F9174B93F9D2
:101960000020012A07D0164A1648012503211D70C0
:101970005060116062B6FFF7A1FFFFF70DF9FFF7A6
:10198000CFFE00F07BFB00F07BFB00F08DFB00F056
:1019900091FB68B1606000F091FB30B1A06000F095
:1019A0008DFBFFF7F1F8002038BD00F057FCF5E79C
:1019B00000F054FCEEE700BFAC030720A40C0720A6
:1019C00010E000E0A086010070B5002282B003465E
:1019D000009272B611490192D1F80150D1F8050078
:1019E00062B60F496424A1FB0062520904FB120095
:1019F0000C4C0D4E04FB00F0A1FB00414FF47A7437
:101A0000490906FB052204FB01F11A6059601846DA
:101A100019466A4600F04EFA02B070BDA40C0720C9
:101A20001F85EB5140420F0014AE4701014B58682F
:101A3000704700BFAC030720014B9868704700BF98
:101A4000AC03072072B6704762B67047704700BF9C
:101A5000704700BF00B52DE9F00F6B464B6143693D
:101A60009D46BDE8F00F00BD62B65046C847014B29
:101A7000984700BFC11A080030B40F4AD2F80530A9
:101A8000D2F8011013B11868C2F805005B68002095
:101A9000994258760ED00948C2F8013005690A69A2
:101AA0008C682A44121B0A61026930BC18469A608D
:101AB000FFF7D0BF30BC7047600E07200000084021
:101AC0000120FFF71BBF00BF014BD3F80100704797
:101AD000600E0720704700BF0023037043708370BF
:101AE000C3701846704700BF70B4066800240C70BD
:101AF0004C708C70CC70C6B14B6893F9185033465B
:101B000000E013465A6892F91820AA4206DC1A68C7
:101B10001C46002AF5D1196070BC704724B12368B7
:101B20000B60216070BC70470E60016070BC704734
:101B3000F8B5069E1F4F1C464FF0010C00234FF0D6
:101B40000F0EA6F12F052276646084F819C084F880
:101B50001EE0C4F82370C4F82B50A376E3762377F5
:101B60006377E37784F8203084F8213084F82230DA
:101B700004F12F022DB1A519192302F8013BAA4245
:101B8000FBD10D4D0D4AD5F80970A6F1240323446D
:101B90006361C4F82770586199611A62C5F80940F9
:101BA000FFF750FF681D2146FFF79EFFFFF74CFF30
:101BB0002046F8BD0C4D0800600E0720691A080089
:101BC0002DE9F0432A4D85B095F90030012B4AD01C
:101BD000284C0023206AA16A274E04AA2F7900F01E
:101BE0007F4902F8013D01F07F40DFF8A0C004F119
:101BF0005E01C4EB060E4FF00F080126511AC4F81F
:101C00002090A062646084F81E80C4F823C0C4F8E9
:101C10002BE023762B7263766383A383E37784F8C8
:101C200027306F602E7007D004F12E03194419225B
:101C300003F8012F8B42FBD1104B114903224FF0C7
:101C4000006E05274FF4D876C5F801400D48C1F85D
:101C500010E05A6000211F607F220B4B0096C5F8F0
:101C60000940FFF765FF002005B0BDE8F08300BF25
:101C7000600E072000170720C97F082000000840D9
:101C800000060E40191D0800B00C0720BC4C0800CF
:101C90000146012010B400234FF0FF326FF06D04B5
:101CA00048768C76CB7781F8203081F8213081F826
:101CB0002230CA760A774A7702485DF8044BFFF76C
:101CC00013BF00BF650E072010B590F91930044608
:101CD000022BC0F81A1007D0042B1DBF0323437634
:101CE00000204FF0FF3010BDD0F81F0001236376B5
:101CF00048B100F0B5F90023E37784F8203084F888
:101D0000213084F8223021460248FFF7EDFE002002
:101D100010BD00BF650E072038B50A4A0A4BD2F83D
:101D200001400125C4F8233030BFFFF78DFEFFF7D7
:101D300089FE214605486576FFF7D6FEFFF79CFE33
:101D4000F2E700BF600E0720C44C0800650E0720B4
:101D500030B5174B89B0D3F8014094F91920032A04
:101D60001FD00223637680B10368002B13DD02AD20
:101D700000230146C4F81F50284600930D4A23460D
:101D800000F02CF9284600F057F9FFF775FED4F85B
:101D90001A0009B030BD4368002BE8DC6FF06D001D
:101DA000F7E70122581D62762146FFF79DFEECE71A
:101DB000600E0720911C080010B50446FFF742FE94
:101DC0002046FFF7C5FF0446FFF73EFE204610BD44
:101DD0004FF47A7202FB00F00A4B10B583FB00133C
:101DE000C4170949C4EBA34301FB130002FB00F233
:101DF00082B0684600930192FFF7DEFF002002B038
:101E000010BD00BF83DE1B4340420F0003680BB1CF
:101E10001A680260184670474368154A93420BDA05
:101E200002681449013A194402604160002A0EDD3B
:101E30004368002B15DB70470F4A93420268F5DDBB
:101E40000E4901321944002A02604160F0DCF2D0F0
:101E500041680029EFDD094B01320B440260436009
:101E600070470449013A194402604160704700BF5D
:101E7000013665C400CA9A3BFFC99A3B003665C467
:101E800038B50446FFF7A0FD054668B9084B206841
:101E90001A686168024422605B6820460B446360F4
:101EA000FFF7BAFF284638BD4FF0FF35FAE700BF0D
:101EB000700E072038B50D6814682C44046049681A
:101EC00052680A444260FFF7A7FF002038BD00BFF8
:101ED00002680B689A4204D001DB022070470020A0
:101EE000704742684B689A42F6D10120704700BFA4
:101EF00028B1C0EBC000800001387FF4FDAF70470F
:101F000070B405684B686A68934201D814E02546AE
:101F10009B1A4B602C6862689A42F8D3061DB44243
:101F20001CBFC3EB020363600C6015B1296070BC79
:101F30007047016070BC70472C460025EEE700BF7B
:101F40000268E2B18A4203D115E0994205D01A46EF
:101F50001368002BF9D118467047196811601A6888
:101F60000430824205D05968536801200B44536005
:101F7000704701207047116813460160EFE7104673
:101F8000704700BFF8B5134DFFF760FD2B4653F8BF
:101F9000044B9C4211D063682E46013B63602F4680
:101FA0005BB923682B60236960699847E368DB07A6
:101FB00007D434686368002BF3D0BDE8F840FFF71E
:101FC00047BDA368214663600248FFF799FF3C685C
:101FD0006368E5E7B803072000207047F0B44D6858
:101FE000134C05F2E73584FB0564ED17C5EBA4142B
:101FF000642505FB04F40F4E04F5742404F23F2419
:1020000086FB04760968E417C4EBA64405FB01448B
:10201000049954B9012544728472C4720572C16076
:1020200002614361F0BC002070478460F7E700BFA5
:10203000D34D621083DE1B4308B5C26883689207E4
:102040004360014657BF0133034804484B60FFF724
:1020500057FF002008BD00BFD4030720B8030720A6
:10206000C268054B014612F0020F03F11C0008BFC5
:102070001846FFF765BF00BFB8030720FFF750BB46
:1020800000B5074B83B04FF400620092581C05491D
:102090006F334FF4E122FFF769FB03B05DF804FBF7
:1020A000780E0720000007200148FFF787BB00BF1C
:1020B000790E072000487047790E072000487047C6
:1020C000790E0720F8B50128069B0AD000221A7461
:1020D0005A749A74DA741A755A759A75DA750020FA
:1020E000F8BD5D691C69104623462A46014900F087
:1020F0004FFCF4E7DC4C0800F8B5124F0546D7F862
:102100000140B4B1002603E0E36826465BB11C46FB
:102110002868216800F052FC0028F5DAEC6066B10E
:10212000F5600020F8BD2B736B73AB73EB73264621
:10213000F6E7047344738473C473C7F80150002036
:10214000F8BD00BFE816072030B4094D00244560F3
:10215000047344738473C473047644768476C476BB
:102160000160806002614361204630BC704700BF5F
:10217000C520080030B4014604694D69121943EBCB
:10218000050300200A614B6130BC704710B504465E
:10219000FFF7B2FF034B0020D3F80920C3F8094032
:1021A000A26110BDE81607204FF0FF30704700BF56
:1021B00010467047012070470020704770B40F4EE2
:1021C0000F4D00244661C560047444748474C47463
:1021D000047644768476C476047744778477C4772B
:1021E00080F8204080F8214080F8224080F8234089
:1021F000016042608360204670BC7047B1210800D6
:10220000B921080041600020704700BF41610020F3
:10221000704700BF034B002908BF1946C16000206A
:10222000704700BFB921080008B50368984708BD8A
:1022300070B5036904460E46154613B19847012848
:1022400005D031462A4663682046984770BD284627
:1022500070BD00BF08B5C368984708BD0048704707
:10226000144D080070B4036AE3B19D68BDB1002449
:102270001E682146224656F824300131984283F8E0
:10228000202083F8212083F8222083F823200C4685
:1022900003D01A775A779A77DA77A942EBD10120DF
:1022A00070BC7047184670BC704700BF10B5002462
:1022B00000F8014BFFF710FC204610BD10B590F957
:1022C000003082B0012B044604D0012303700020AB
:1022D00002B010BDFFF7F8FB69460190601CFFF7E4
:1022E00003FC0020FFF734FDF1E700BF10B5044602
:1022F000FFF7A8FB2046FFF7E1FF0446FFF7A4FB2A
:10230000204610BD10B504460130FFF77FFD28B10F
:1023100000214068FFF7D8FC002010BD207000208D
:1023200010BD00BF10B50446FFF78CFB2046FFF739
:10233000E9FF0446FFF788FB204610BD05290ED0B3
:10234000062903D06FF0150318467047D0F84D20CA
:10235000002322F00102C0F84D2018467047D0F843
:102360004D20002342F00102C0F84D20184670476E
:102370002DE9F04780460F469146FFF763FBD8F8FA
:102380003830002B43D0394608F13C004A46FEF76E
:10239000C5FB0744C0EB0906D8F8284008F1240A19
:1023A00038460CB376B32569A168AE4238BF3546CE
:1023B0002A4600F091FFD8F828402F44A2682369EC
:1023C0002A445B1B761BA2602361002BE8D1E168E5
:1023D0006068FFF779FC5046FFF718FD0446C8F81F
:1023E00028003846002CDDD166B198F84C30022B1D
:1023F0000FD0D8F84D30DB0712D5B9EB060908BF6E
:102400006FF00A09FFF720FB4846BDE8F0874E460B
:10241000C2E7C6EB0909FFF717FB4846BDE8F0879E
:10242000FFF752FBC8F83090C8F81C00C8F82C70B1
:10243000C8F834602046FFF78BFC8146FFF704FBA9
:102440004846BDE8F08700BF2DE9F0410F4616462B
:102450000446FFF707FF68BB94F84C30022B42D0CC
:10246000E3691BB3656B3946AE4238BF35462A4631
:10247000E06A00F031FFE36AD4F834802B44C5EB06
:1024800008082F44E362C4F83480751BB8F1000FCC
:102490001AD045B1A36B33B12A4604F13C0039464A
:1024A000FEF710FB2D1A701BBDE8F0813546002D9C
:1024B000F9D0EFE7E0690021FFF706FC002323775E
:1024C0006377A377E377C7E7E069216BFFF7FCFB4E
:1024D00084F81C8084F81D8084F81E8084F81F8096
:1024E000002DE0D0D6E74FF0FF30BDE8F08100BF0F
:1024F0002DE9F041064686B00F461546FFF7A2FAD1
:10250000304639462A46FFF79FFF041E02DBB5EB33
:10251000040805D1FFF798FA204606B0BDE8F0811F
:10252000FFF7D2FAB36A3C44039402900495CDF8C5
:10253000148073B106F1240001A9FFF7D5FA002039
:10254000FFF706FC0446FFF77FFA204606B0BDE819
:10255000F08101ABB362F2E710B50446806B18B1AD
:1025600004F13C00FEF706FBA36A03B11B691844A3
:1025700010BD00BF70B5244B04460D4616462349D6
:10258000234AFFF71BFE23492046FFF73FFE22495F
:102590002046FFF73FFE04F12400FFF79DFA0023D9
:1025A000A56384F8283084F8293084F82A3084F828
:1025B0002B3084F82C3084F82D3084F82E3084F8B9
:1025C0002F3084F8303084F8313084F8323084F899
:1025D000333084F8343084F8353084F8363084F879
:1025E00037302DB12946324604F13C00FEF75CFA43
:1025F000002084F84C0084F84D0084F84E0084F8E4
:102600004F0084F8500070BD592508007123080060
:10261000F1240800492408003D230800F0B41C6898
:102620006928276804F104041C603D46059E1CD0FF
:1026300064281AD00139B5FBF2F302FB1354E4B25B
:10264000092C84BF2734E4B2303408460C701D4690
:102650000139002BEFD133780246012B03D12D2312
:10266000084602F8013CF0BC7047002FE2DA012373
:102670007D423370DEE700BF4A6810B58B18013227
:102680004A6018728B69102A03F101030C468B61B2
:1026900000D010BD51F8080BFFF7CAFD00232371CD
:1026A0006371A371E37110BD2DE9F04F00248DB06B
:1026B00081468846174603938DF82E40387838B106
:1026C000252808D041460137C84738780028F7D177
:1026D0000DB0BDE8F08F7878302800F00C812D28FF
:1026E00000F0098102374FF0200AA0F13003DAB27E
:1026F000092A4FF000060AD817F8010B06EB8606E8
:1027000003EB4606A0F13003DAB2092AF4D96C28AB
:1027100003BF387801217F1800210028D8D000227B
:10272000A0F153038DF81B20252B00F2E180DFE898
:1027300013F06A00DF00DF00DF00DF00DF00DF00F2
:10274000DF00DF00DF00DF00DF00DF00DF00DF0091
:10275000DF005C00D700DF007700DF00DF00D7007C
:10276000DF00DF00DF00DF00DF00DF00DF00DF0071
:10277000DF006A00DF00D700DF00DF0026000DF178
:102780001B038DE80A0078200DF12E011022039B17
:10279000FFF744FF9DF81BC00446451C007828B194
:1027A0002B4613F8012B013E002AFAD1BAF12D0F66
:1027B0000BD0BCF1010F00F0A380002E04DD5046C9
:1027C0004146C847013EFAD1207828B14146C84762
:1027D00014F8010F0028F9D1002E7FF76FAF2020E9
:1027E0004146C847013EFAD168E7039C0DF12E052A
:1027F00023684FF0000C1878043323608DF82D0007
:102800000DF12D04CBE7039C23681A1D22601C6880
:10281000002C00F088802078651C4FF0000CBEE78B
:10282000039C002221680023073121F0070101F1F8
:1028300008002060D1E900452046294600F0F4FC5C
:10284000002865D1844629462046CDF808C000F00E
:1028500013FD834600F000FA02460B462046294647
:1028600000F0BCF834A3D3E9002300F06BFA00F0C9
:1028700003FDDDF808C00DF12E020AA9304CA4FBBF
:102880000043DB0803EB8304A0EB4400303002F884
:10289000010D8A421846F1D12E238DF82730BBF165
:1028A000000F45D00DF126025B4625481446A0FBDB
:1028B0000301C90801EB8100A3EB400303F13000E1
:1028C00002F801090B460029EFD1BCF1010F03BF4B
:1028D0002D2004F8010C04F1FF342078651C5EE71C
:1028E0000DF11B038DE80A000A220DF12E014EE7BF
:1028F0004146C847E2E68246033717F8010CF4E682
:10290000BAF1300F7FF459AF4146C8472C4654E71F
:1029100005F10040049405904FF0010CDDE90445F9
:102920008DF81BC08FE7074DA44628206C1E37E7A3
:102930000DF12704C9E700BF0000000080842E418C
:10294000CDCCCCCC394D080070B5044615460E46AA
:1029500000680321FFF77EFC32462B4621460B48D8
:10296000FFF7A2FE6268002A09DD214651F8080B34
:10297000FFF75EFC002323716371A371E37120688C
:102980000421BDE87040FFF765BC00BF7926080050
:102990000EB410B589B00BAB53F8041B01900024A2
:1029A00001A86A46009302940794FFF7CDFF0798A9
:1029B00009B0BDE8104003B0704700BF00E03BB174
:1029C00010F8013B11F8012B9342F8D0981A704788
:1029D0001846704781F0004102E000BF83F00043D9
:1029E00030B54FEA41044FEA430594EA050F08BFAA
:1029F00090EA020F1FBF54EA000C55EA020C7FEA6E
:102A0000645C7FEA655C00F0E2804FEA5454D4EBEA
:102A10005555B8BF6D420CDD2C4480EA020281EAB4
:102A2000030382EA000083EA010180EA020281EAEC
:102A30000303362D88BF30BD11F0004F4FEA01313E
:102A40004FF4801C4CEA113102D0404261EB41014D
:102A500013F0004F4FEA03334CEA133302D05242D3
:102A600063EB430394EA050F00F0A780A4F101048F
:102A7000D5F1200E0DDB02FA0EFC22FA05F28018C9
:102A800041F1000103FA0EF2801843FA05F35941AF
:102A90000EE0A5F120050EF1200E012A03FA0EFC2E
:102AA00028BF4CF0020C43FA05F3C01851EBE37158
:102AB00001F0004507D54FF0000EDCF1000C7EEB75
:102AC00000006EEB0101B1F5801F1BD3B1F5001FB3
:102AD0000CD349085FEA30004FEA3C0C04F10104D2
:102AE0004FEA445212F5800F80F09A80BCF1004FFB
:102AF00008BF5FEA500C50F1000041EB045141EA7D
:102B0000050130BD5FEA4C0C404141EB010111F47D
:102B1000801FA4F10104E9D191F0000F04BF014628
:102B20000020B1FA81F308BF2033A3F10B03B3F106
:102B300020020CDA0C3208DD02F1140CC2F10C0296
:102B400001FA0CF021FA02F10CE002F11402D8BFF4
:102B5000C2F1200C01FA02F120FA0CFCDCBF41EAC0
:102B60000C019040E41AA2BF01EB0451294330BD8F
:102B70006FEA04041F3C1CDA0C340EDC04F114046C
:102B8000C4F1200220FA04F001FA02F340EA030043
:102B900021FA04F345EA030130BDC4F10C04C4F189
:102BA000200220FA02F001FA04F340EA0300294669
:102BB00030BD21FA04F0294630BD94F0000F83F4B3
:102BC000801306BF81F480110134013D4EE77FEA96
:102BD000645C18BF7FEA655C29D094EA050F08BFE2
:102BE00090EA020F05D054EA000C04BF19461046C3
:102BF00030BD91EA030F1EBF0021002030BD5FEA07
:102C0000545C05D14000494128BF41F0004130BD2E
:102C100014F580043CBF01F5801130BD01F0004582
:102C200045F0FE4141F470014FF0000030BD7FEAF5
:102C3000645C1ABF194610467FEA655C1CBF0B46F0
:102C4000024650EA013406BF52EA033591EA030F07
:102C500041F4002130BD00BF90F0000F04BF0021FF
:102C6000704730B54FF4806404F132044FF0000532
:102C70004FF0000150E700BF90F0000F04BF0021AB
:102C8000704730B54FF4806404F1320410F0004511
:102C900048BF40424FF000013EE700BF42004FEA0C
:102CA000E2014FEA31014FEA02701FBF12F07F4389
:102CB00093F07F4F81F06051704792F0000F14BF86
:102CC00093F07F4F704730B54FF4607401F00045CA
:102CD00021F0004120E700BF50EA010208BF704721
:102CE00030B54FF000050AE050EA010208BF704716
:102CF00030B511F0004502D5404261EB41014FF47F
:102D0000806404F132045FEA915C3FF4DCAE4FF082
:102D100003025FEADC0C18BF03325FEADC0C18BF69
:102D2000033202EBDC02C2F1200300FA03FC20FABA
:102D300002F001FA03FE40EA0E0021FA02F1144407
:102D4000C1E600BF70B54FF0FF0C4CF4E06C1CEA1C
:102D500011541DBF1CEA135594EA0C0F95EA0C0F91
:102D600000F0DEF82C4481EA030621EA4C5123EA04
:102D70004C5350EA013518BF52EA033541F4801133
:102D800043F4801338D0A0FB02CE4FF00005E1FBE6
:102D900002E506F00042E0FB03E54FF00006E1FB30
:102DA00003569CF0000F18BF4EF0010EA4F1FF0473
:102DB000B6F5007F64F5407404D25FEA4E0E6D41B3
:102DC00046EB060642EAC62141EA55514FEAC520C4
:102DD00040EA5E504FEACE2EB4F1FD0C88BFBCF540
:102DE000E06F1ED8BEF1004F08BF5FEA500E50F1F1
:102DF000000041EB045170BD06F0004646EA0101B7
:102E000040EA020081EA0301B4EB5C04C2BFD4EBE8
:102E10000C0541EA045170BD41F480114FF0000EE1
:102E2000013C00F3AB8014F1360FDEBF002001F04F
:102E3000004170BDC4F10004203C35DA0C341BDCC9
:102E400004F11404C4F1200500FA05F320FA04F09B
:102E500001FA05F240EA020001F0004221F00041CF
:102E600010EBD37021FA04F642EB06015EEA430E42
:102E700008BF20EAD37070BDC4F10C04C4F1200572
:102E800000FA04F320FA05F001FA04F240EA020025
:102E900001F0004110EBD37041F100015EEA430EF6
:102EA00008BF20EAD37070BDC4F1200500FA05F216
:102EB0004EEA020E20FA04F301FA05F243EA020395
:102EC00021FA04F001F0004121FA04F220EA0200A4
:102ED00000EBD3705EEA430E08BF20EAD37070BDEA
:102EE00094F0000F0FD101F00046400041EB0101CA
:102EF00011F4801F08BF013CF7D041EA060195F0AC
:102F0000000F18BF704703F00046520043EB030365
:102F100013F4801F08BF013DF7D043EA0603704752
:102F200094EA0C0F0CEA135518BF95EA0C0F0CD05D
:102F300050EA410618BF52EA4306D1D181EA0301A3
:102F400001F000414FF0000070BD50EA410606BF9D
:102F50001046194652EA430619D094EA0C0F02D1E2
:102F600050EA013613D195EA0C0F05D152EA033627
:102F70001CBF104619460AD181EA030101F0004145
:102F800041F0FE4141F470014FF0000070BD41F08E
:102F9000FE4141F4780170BD70B54FF0FF0C4CF468
:102FA000E06C1CEA11541DBF1CEA135594EA0C0F87
:102FB00095EA0C0F00F0A7F8A4EB050481EA030ED4
:102FC00052EA03354FEA013100F088804FEA0333BB
:102FD0004FF0805545EA131343EA12634FEA022289
:102FE00045EA111545EA10654FEA00260EF000414A
:102FF0009D4208BF964244F1FD0404F5407402D29C
:103000005B084FEA3202B61A65EB03055B084FEA2C
:1030100032024FF480104FF4002CB6EB020E75EB29
:10302000030E22BFB61A754640EA0C005B084FEA51
:103030003202B6EB020E75EB030E22BFB61A7546CE
:1030400040EA5C005B084FEA3202B6EB020E75EB19
:10305000030E22BFB61A754640EA9C005B084FEA91
:103060003202B6EB020E75EB030E22BFB61A75469E
:1030700040EADC0055EA060E18D04FEA051545EA8D
:1030800016754FEA06164FEAC30343EA52734FEA36
:10309000C2025FEA1C1CC0D111F4801F0BD141EAAF
:1030A00000014FF000004FF0004CB6E711F4801F14
:1030B00004BF01430020B4F1FD0C88BFBCF5E06FF4
:1030C0003FF6AFAEB5EB030C04BFB6EB020C5FEA04
:1030D000500C50F1000041EB045170BD0EF0004E59
:1030E0004EEA113114EB5C04C2BFD4EB0C0541EA8B
:1030F000045170BD41F480114FF0000E013C90E688
:1031000045EA060E8DE60CEA135594EA0C0F08BF4B
:1031100095EA0C0F3FF43BAF94EA0C0F0AD150EA4A
:1031200001347FF434AF95EA0C0F7FF425AF1046DD
:1031300019462CE795EA0C0F06D152EA03353FF405
:10314000FDAE1046194622E750EA410618BF52EA82
:1031500043067FF4C5AE50EA41047FF40DAF52EA56
:1031600043057FF4EBAE12E74FF0FF3C06E000BFF3
:103170004FF0010C02E000BF4FF0010C4DF804CD00
:103180004FEA410C7FEA6C5C4FEA430C18BF7FEAC0
:103190006C5C1BD001B050EA410C0CBF52EA430CEE
:1031A00091EA030F02BF90EA020F0020704710F16E
:1031B000000F91EA030F58BF994208BF90422CBFFD
:1031C000D8176FEAE37040F0010070474FEA410CF6
:1031D0007FEA6C5C02D150EA013C07D14FEA430C14
:1031E0007FEA6C5CD6D152EA033CD3D05DF8040B85
:1031F000704700BF8446104662468C4619466346B7
:1032000000E000BF01B5FFF7B7FF002848BF10F18D
:10321000000F01BD4DF808EDFFF7F4FF0CBF0120D2
:1032200000205DF808FB00BF4DF808EDFFF7EAFF4E
:1032300034BF012000205DF808FB00BF4DF808ED09
:10324000FFF7E0FF94BF012000205DF808FB00BFFE
:103250004DF808EDFFF7CEFF94BF012000205DF888
:1032600008FB00BF4DF808EDFFF7C4FF34BF012095
:1032700000205DF808FB00BF4A0011D212F50012D1
:1032800011D20DD56FF47873B3EB62520ED44FEABE
:10329000C12343F0004343EA505323FA02F070473E
:1032A0004FF00000704750EA013002D14FF0FF307C
:1032B00070474FF00000704708B50021044600F049
:1032C000D5F8044B1868C36B03B198472046FEF746
:1032D00037FB00BF684D0800844641EA000313F045
:1032E000030349D1403A23D30B6803604B68436022
:1032F0008B688360CB68C3600B6903614B69436172
:103300008B698361CB69C3610B6A03624B6A436259
:103310008B6A8362CB6AC3620B6B03634B6B436341
:103320008B6B8363CB6BC36340304031403ADBD25D
:1033300030320BD30B6803604B6843608B6883604B
:10334000CB68C36010301031103AF3D20C3205D381
:1033500051F8043B40F8043B043AF9D2043208D057
:10336000D2071CBF11F8013B00F8013B01D30B88C9
:1033700003806046704700BF082A13D38B07B1D083
:1033800010F00303AED0C3F10403D21ADB071CBF55
:1033900011F8013B00F8013BA4D331F8023B20F8BF
:1033A000023B9FE7043AD9D3013A11F8013B00F8F8
:1033B000013BF9D20B7803704B7843708B788370A4
:1033C00060467047F0B4840743D0541E002A3ED0B4
:1033D000CDB2034603E0621E002C38D0144603F839
:1033E000015B9A07F7D1032C2AD9CDB245EA05250E
:1033F0000F2C45EA054515D9A4F110073F0903F143
:10340000100606EB07161A46156055609560D560E4
:103410001032B242F8D104F00F040137032C03EB51
:1034200007130DD91E462246043A032A46F8045BC8
:10343000FAD8221F22F003020432134404F00304DA
:103440002CB1C9B21C4403F8011BA342FBD1F0BC50
:10345000704714460346C6E7024B13B1024800F01A
:103460007DB8704700000000693508002DE9F04F75
:10347000384B85B01B68029003F5A47201930F4688
:103480000392019BD3F84881B8F1000F1CD0DDF8FE
:103490000CB04FF00109DA46D8F804305C1E11D4A4
:1034A00008F188059E1C05EB830508EB860677B1BD
:1034B000EB6FBB420BD0013C631CA5F10405A6F1E8
:1034C0000406F4D1244A7ABB05B0BDE8F08FD8F8E1
:1034D000042056F8043C013AA24216BF0022C8F864
:1034E000044046F8042C002BE5D009FA04F2D8F881
:1034F0008811D8F804B00A4210D0D8F88C110A42CA
:103500000ED1029855F8041C9847D8F804305B4552
:10351000B7D1DAF800304345CDD0B2E79847F4E7A9
:1035200055F8040C9847F0E7D8F804306BB9D8F890
:10353000003063B14046CAF80030AFF30080DAF8DB
:103540000080B8F1000FA7D1BEE7D8F80030C2461E
:103550009846F6E7684D080000000000014600208C
:103560000246034600F018B838B5094D094C641BF3
:10357000A41018BF05EB840505D0013C55F8043DA7
:103580009847002CF9D1BDE8384001F0F9BB00BFE5
:103590008C4D0800904D0800F0B5274C85B026688A
:1035A0000746D6F84841002C40D065681F2D1EDD27
:1035B000224818B94FF0FF3005B0F0BD4FF4C87085
:1035C000039102920193AFF3008003990446029A9B
:1035D000019B0028EED0D6F848510020256060609D
:1035E0000546C6F84841C4F88801C4F88C013FB9C3
:1035F0006B1C00200235636044F8251005B0F0BD57
:103600000126AE4004EB8500C0F88820D4F888215C
:10361000022F42EA0602C4F88821C0F80831E7D137
:10362000D4F88C311E43C4F88C61E1E706F5A6742A
:10363000C6F84841B9E700BF684D08000000000027
:10364000A44100A084500000A64100A00652BD4144
:10365000A6415603265200F4A641F87F4652BD33D8
:10366000A6417003665200F4A64100008652000095
:10367000A64100A0A652A841A6412102C652083187
:10368000A6410000E652C845A641000CC653000002
:10369000A641FEFFE653E040242300D0A6410300EC
:1036A00006526530A641998D2652B525A641B4250E
:1036B0004652450CA641AA416652306FA641C06DE4
:1036C000865220FFA641CAFCA6526806A641B26DEA
:1036D000C6520000A64140C0E6522601A6414080E5
:1036E000C6530601A6412319E653E127242328D017
:1036F000A64103190652FBFFA641E3182652FCFF20
:10370000A64183B44652FDFFA641C3186652F0FF9E
:10371000A641BF458652FEFFA64144B4A6520CED19
:10372000A641000CC652A400A64100A0E652A24148
:10373000A641AC09C6534230A6413D23E653DD4EB7
:10374000242350D0A641240B065220D2A641C216F3
:103750002652A50BA641021546520700A641A8090C
:1037600066520600A641E7008652290AA641C60015
:10377000A6520080A641F744C65200C0A6410B00E5
:10378000E6528216A6418400C653AA0BA641C60281
:10379000E6530080242378D0A6410801065290B257
:1037A000A641630026520040A641DC44465200C0B8
:1037B000A64190B266521601A64190A2865283029B
:1037C000A64176D0A6527026A64103B4C652FF0089
:1037D000A6419400E6527400A64174D0C65390A24C
:1037E000A641A340E653FF002423A0D0A641149491
:1037F00006526E00A641096E26526C00A641A0300A
:103800004652AC09A6417DF866520001A641AD09B9
:1038100086521002A6411402A6527DF8A641421417
:10382000C652AE09A6417DF8E6520F00A64100F44B
:10383000C6531802A6415DF8E65314002423C8D0ED
:10384000A641A54106521C02A6418530265200A081
:10385000A641096F4652B40DA6419C03665200F47E
:10386000A641902A86521600A6418050A652068D87
:10387000A6413D23C652FFFFA6419F45E652205276
:10388000A641896EC653254DA641A604E65300F411
:103890002423F0D0A64100010652C030A64154B006
:1038A0002652A20EA64102B446520101A641A241EF
:1038B00066524900A641E232865200A0A641363245
:1038C000A652B40DA6411D32C6520001A641603277
:1038D000E6521001A6414032C6530001A64120CC59
:1038E000E6530100242318D1A64100F40652D70F55
:1038F000A641000026529C03A641B00C465200008F
:10390000A6415DAD6652950CA64100018652C030BD
:10391000A641A604A65200F4A6410040C6521202D7
:10392000A6410604E652896DA64100FFC653B13098
:10393000A641C030E653900C242340D1A64100F4A8
:1039400006520001A641020026528403A64102B499
:10395000465290AAA641930266525200A641A28DF9
:103960008652901BA6410001A6523132A6410001A9
:10397000C652A030A6411400E65200F4A64190229F
:10398000C6531000A641C203E65300F4242368D1B5
:10399000A641902206521700A641010026525272FB
:1039A000A641000146527332A641518D66524284AF
:1039B000A641B3CF86529E0CA6413D23A652000CD1
:1039C000A6414030C6522052A6419F45E652EAFF2A
:1039D000A6419F45C653254DA641A6FFE65340305C
:1039E000242390D1A641000106526032A641010075
:1039F00026524032A64100A04652A541A641C2032C
:103A0000665200F4A641B40D86528530A6419DFF52
:103A1000A65202B4A6410100C6529270A641B63029
:103A2000E6524026A641096DC65300FFA641650235
:103A3000E65344062423B8D1A64100F40652502987
:103A4000A641C03026528403A64117AD465200015C
:103A5000A641140266527DFCA64110028652BDFCAE
:103A6000A6410080A6528300A64100C0C652650050
:103A7000A6411C02E652BDFCA641A300C653DC448D
:103A8000A641BDFCE65390222423E0D1A641D025D7
:103A900006521802A641A3962652DC44A641000C09
:103AA00046527CFFA641403066527ACFA64177CF7E
:103AB000865211FCA64110FCA6524030A6413D237F
:103AC000C652E54FA64100F4E65210D0A641B441DB
:103AD000C653DC03A641A541E65300A0242308D227
:103AE000A641B041065200A0A6419430265200A043
:103AF000A641A5304652B40DA64100F46652A00975
:103B0000A641B14186520204A641D033A65200A07C
:103B1000A6417132C652AC09A641500EE652B00918
:103B2000A641AC09C6539030A6411400E65300F4F8
:103B3000242330D2A64104000652A030A641020040
:103B400026525E14A641030046527E14A64162002E
:103B500066522025A6415590865290AAA64102940D
:103B6000A6520104A6414030C652C000A641913081
:103B7000E652EA00A64100F4C653B009A641B530AA
:103B8000E6531400242358D2A64180500652020066
:103B9000A641BE0C2652FFFFA641A604465200F4E1
:103BA000A64104006652D530A64150298652D5035D
:103BB000A641D50AA652540AA641E544C65240265B
:103BC000A6410A01E65282B4A6415214C65383EEBE
:103BD000A6419E14E653AC09242380D2A641202599
:103BE00006520100A641A2942652D444A6418290D6
:103BF00046526F01A641049466520400A64101EEAC
:103C00008652C200A641D900A6528294A64182B42F
:103C1000C65202EEA6417590E652EE00A64103B4EC
:103C2000C6530800A6414030E653E1012423A8D240
:103C3000A641DE140652A600A6411E152652080013
:103C4000A6419E1446520900A641FE146652040085
:103C5000A6413E1586520500A6417E14A6520B00D1
:103C6000A641BE14C6520A00A6415E14E6520700E1
:103C7000A641C600C6530600A6410801E65300C08F
:103C80002423D0D2A641840006520080A641E7003A
:103C9000265200C0A641060146520080A641E744D4
:103CA00066529032A641903286522601A641EC44DB
:103CB000A652B025A641F344C6522025A6416B006A
:103CC000E6520694A641A241C653EA44A6414500E5
:103CD000E653001D2423F8D2A64102B406529013E5
:103CE000A64140302652C400A641A4414652DE00FF
:103CF000A6415C056652041DA6410100865284500F
:103D0000A641901BA6528200A641A341C6528EAD89
:103D1000A6416500E652C01FA64104B4C6539023D5
:103D2000A6416330E653B200242320D3A6416200AB
:103D300006520118A641029426529013A641403023
:103D40004652AE00A64100F46652DE00A641943011
:103D500086526004A6410240A652B40DA6416200FC
:103D6000C6527F00A641C232E6528080A6410201BF
:103D7000C6530400A6416230E6538040242348D352
:103D8000A641805006520900A641BE0C2652FFFFF4
:103D9000A6411E194652D60CA6415E186652020074
:103DA000A64100F486520300A641A302A652A6042F
:103DB000A6412126C6524010A6415039E652DE02E5
:103DC000A6411594C653708AA6417189E6535DFFDA
:103DD000242370D3A64100100652B500A641BE00B0
:103DE00026525E0CA641A84146525029A641A00980
:103DF000665220FFA641A30B8652210BA641630009
:103E0000A652220AA641C600C65200C0A641DE4400
:103E1000E6520080A6414026C653DF44A641226DEB
:103E2000E653DC44242398D3A6410000065268F8E8
:103E3000A641EFFF2652A2B4A641AC0946529030EB
:103E4000A6411400665200F4A64104008652A03038
:103E5000A6410200A6525E14A6410300C6527E147B
:103E6000A6416200E6522025A6415590C65390AA6D
:103E7000A64102B4E65301042423C0D3A6419130E5
:103E8000065248FFA64140302652B009A6412031D3
:103E90004652EA00A64160306652FF00A64100315A
:103EA0008652FF00A641FFEFA652FF00A641070081
:103EB000C6525E18A6417E18E65204EDA641805017
:103EC000C6530500A641BE0CE653FFFF2423E8D3EA
:103ED000A641FE18065208EFA6411E1926520100FF
:103EE000A6413E1946520400A6411E18665206001D
:103EF000A6415E1886520200A64100F4A6520300B5
:103F0000A641F018C652A604A641A125E652AC0966
:103F1000A6410800C6537E18A6410900E6535E1864
:103F2000242310D4A641A0320652AFCFA64104EEFE
:103F300026520300A6413C0046528294A64182B418
:103F400066526AEEA64115ED86522D00A64132005A
:103F5000A65200F4A6419022C6521500A64189FF40
:103F6000E6524240A6410400C653C232A6418080B8
:103F7000E6536200242338D4A64180400652220131
:103F8000A64140C026520201A64129D14652BD2D6C
:103F9000A641C7CF6652FF00A641A03286522D2D02
:103FA000A641C032A6520200A641F30EC652050039
:103FB000A641200DE65204EFA6418050C653400CA6
:103FC000A641BE0CE653FFFF242360D4A6410200A5
:103FD00006525E18A641A604265200F4A64103002C
:103FE00046523E19A641DE0266522126A641971886
:103FF00086525039A6417CCFA6520000A64115ED4D
:10400000C6527089A6412031E652A8CFA641403061
:10401000C653FC00A641A3CFE653DE00242388D478
:10402000A641FF0006522031A6419FCF265211ED36
:10403000A641FC0046522031A64108006652759008
:10404000A641E600865203B4A641A600A65240301F
:10405000A6410800C6529E14A6410900E652BE14AD
:10406000A6410400C6535E14A6410500E6537E1423
:104070002423B0D4A6410B000652FE14A6410A0028
:104080002652DE14A64100804652A500A64100C07B
:1040900066528400A6413E158652E544A6411E158F
:1040A000A6520700A6416300C6520600A641E74497
:1040B000E6520080A64100C0C6534200A641D34448
:1040C000E653E0262423D8D4A64190B20652A40099
:1040D000A641901226522201A64100404652680095
:1040E000A6410104665296B0A6416DFF8652049423
:1040F000A64190AAA6526200A641001DC652A34145
:10410000A641901BE6527500A6414030C653C6AD8D
:10411000A641A441E653DE00242300D5A641B60201
:104120000652041DA641845026525011A641820019
:1041300046520100A64190AD6652901BA641C01F99
:104140008652A341A641901BA6527500A641B3FF1B
:10415000C65203B4A641C01FE652A341A6410118AE
:10416000C6536330A6419013E6536200242328D53A
:10417000A641ADFF06520294A641DE002652403011
:10418000A64100A04652A241A641B40D6652943009
:10419000A641C2308652B50CA64100F4A652B80919
:1041A000A6411600C6520804A64156B4E652903AFB
:1041B000A641A441C653F6FEA6418430E65300A0B2
:1041C000242350D5A641B50C0652B809A641840354
:1041D000265200F4A641903246521600A64175FFC1
:1041E00066520294A64135CF865210EDA641FC00DE
:1041F000A6522031A64155B4C65208EDA641000C86
:10420000E6527B00A6410800C653BE14A641090031
:10421000E653DE14242378D5A641040006527E140A
:10422000A641050026529E14A6410B004652FE14DC
:10423000A6410A0066523E15A64100808652C6007D
:10424000A64100C0A652A500A6415E14C652EE4487
:10425000A6411E15E6520700A6418400C65306007B
:10426000A6416300E65300802423A0D5A641FD4467
:10427000065200C0A64100402652C900A641FE4495
:104280004652DC44A64188006652D344A64167B03A
:1042900086520040A6410394A6520104A641D4448C
:1042A000C65206FFA641001DE652A341A641901B3F
:1042B000C6536200A641AE06E653A18D2423C8D59D
:1042C000A641018006526050A641901B265265000F
:1042D000A641A3414652AE8DA64107946652801F67
:1042E000A641730C86524A00A641B06DA652200A20
:1042F000A641A2B4C652206DA6418318E652FBFF28
:10430000A6414700C653FFFFA641726FE6538040A7
:104310002423F0D5A641090006526730A64127D1D3
:1043200026522D2DA641DE004652FF00A641C7327F
:10433000665250B9A6412BCF86520500A6414010C7
:10434000A652A302A641041DC652A441A6410100E3
:10435000E6528450A641901BC6538500A641A34156
:10436000E653E0AD242318D6A64162000652C01FD2
:10437000A64154AE26529023A641011846526330FE
:10438000A641901B66526500A641A3418652D6AD58
:10439000A6416200A652801FA64193ADC652901B53
:1043A000A641811FE652A341A6416500C653B06DE8
:1043B000A641CBADE653901B242340D6A641C41F93
:1043C0000652A341A641401826528330A6419023AD
:1043D00046528200A6416330665206AEA641650091
:1043E00086525518A641A340A652901BA6414030C4
:1043F000C652BEFFA641B7CEE652EA00A641FF0074
:10440000C6532031A641A600E6534030242368D687
:10441000A64120310652B2CEA641400C2652FF00E2
:10442000A64104EF4652200DA64104006652FE321A
:10443000A64105008652C032A641A032A652EECE59
:10444000A641000CC6520200A64100A0E652A641B9
:10445000A64100A0C653A541A641A009E653C63017
:10446000242390D6A641AC090652A530A6414500AA
:104470002652EB06A6410C8D46528010A64100A0A4
:104480006652A741A641E7308652400CA641AE05D0
:10449000A652A009A641AC05C652306AA641A2B4F4
:1044A000E652226DA64130EAC653FAFFA641000C3F
:1044B000E653BF452423B8D6A64100A00652A54125
:1044C000A64100A02652A441A641AC094652A530FF
:1044D000A641BC0D66528430A6416400865259063E
:1044E000A641868DA6528010A641AA05C652400C50
:1044F000A64182B4E652226DA64130E8C653FCFFC5
:10450000A641000CE653BF452423E0D6A6416A0726
:1045100006520DCCA641441C2652D06EA641651C05
:104520004652FFFFA64162006652FFFFA64189AFD7
:104530008652503BA6415013A6524300A6410700A5
:10454000C652A240A641F2FFE652C5B4A6419F451D
:10455000C653406EA6419F45E653400C242308D71E
:10456000A6419F4506527FEDA641000C265201ED63
:10457000A64180BF4652A241A641502966526230F0
:10458000A641A3418652B0EAA6416350A652FF1F3E
:10459000A641B344C652FFFFA6418029E6526230CD
:1045A000A6416030C65330EBA6418230E65303404B
:1045B000242330D7A641C0E906523029A64199AA42
:1045C0002652A341A641402946528230A641556653
:1045D00066526330A641A3418652C0E9A6416350AA
:1045E000A6526655A641C0E9C652AA99A6410080C6
:1045F000E6526050A6413829C6534230A6419F4535
:10460000E653A0E9242358D7A641000C0652400CDB
:10461000A64180BF2652A241A641302946524230CF
:10462000A641BE2D6652A069A641A4418652FDADA9
:10463000A6414430A65280BFA6412069C652302907
:10464000A6410040E652A030A6413429C653C430EA
:10465000A6418430E653E0EA242380D7A641C0E98E
:1046600006524029A641009026524200A64142002F
:1046700046529F45A641000C665280F8A64100A014
:104680008652A341A641B80DA652431CA64182946E
:10469000C65201EEA641000CE6521D00A641B80D1F
:1046A000C6538318A64180BFE653A2412423A8D74E
:1046B000A64199AA0652A441A64140292652623039
:1046C000A641556646528430A641A441665230EA5E
:1046D000A641845086526655A64130EAA652AA9950
:1046E000A6410080C6528050A641A829E652A230B9
:1046F000A6418030C65350EAA6414230E653000737
:104700002423D0D7A64120EA0652A429A64130E9A5
:104710002652400C4422F8D7A44100A0845000083F
:10472000A641400C06529F45A64103802652A46034
:10473000A64100904652A460A641400C66529F4597
:10474000A641550086520794A641AB41A652470C9C
:10475000A641F94FC65280BFA64199AAE652AD4183
:10476000A6416655C653AC41A6413029E6538B306D
:10477000242300D0A64104D006527D20A641402922
:1047800026524B31A641502946524B32A641602950
:1047900066522B32A641702986520B32A641382927
:1047A000A6522B33A6416B31C652060DA641EB062D
:1047B000E6523429A6410240C6530033A64155664D
:1047C000E653AD31242328D0A641AA9906528C5134
:1047D000A64100802652E051A64100404652C03119
:1047E000A64150196652A800A6410000865272F8F0
:1047F000A6410000A65268FCA6410831C65290E9C5
:10480000A64168FCE6520800A64180E9C653FCFFB9
:10481000A6410000E65304FB242350D0A64100002B
:104820000652AAF9A641000026528AF9A6410000C4
:104830004652F9F9A641BE2D6652C069A641FCFF59
:104840008652A340A6410000A65224FDA6410000C6
:10485000C652CBF9A6410000E6526AF8A6410020F4
:10486000C65329D1A6410400E6530994242378D0E5
:10487000A641D0190652C800A64110FC265240306D
:10488000A641901B4652E300A64104006652E34055
:10489000A641D6FF86524794A6415019A652A800B9
:1048A000A6410450C6527D20A641BF45E6520447AA
:1048B000A6414030C6536E6FA641A600E65300F8ED
:1048C0002423A0D0A6414F0006525079A641AA4405
:1048D0002652507AA64190134652AF00A641A741F6
:1048E000665238ADA641A941865280BFA641A84173
:1048F000A65299AAA641C731C6526655A64167304D
:10490000E6525029A641C730C6533029A641A731E7
:10491000E65340292423C8D0A641803106523829C5
:10492000A641E73026520440A64129314652342997
:10493000A641085166525566A64160518652AA9911
:10494000A6414031A6520080A641AEF8C6520040B2
:10495000A64183F9E6520000A64126F9C65300009D
:10496000A64106F9E65300002423F0D0A6416DF9D4
:1049700006520000A641306926520000A641A2401E
:1049800046522E2DA641306A6652FCFFA641000019
:10499000865247F9A64184D0A65260E9A641058E09
:1049A000C6520020A6410008E652A530A64140307C
:1049B000C6539F45A641AF00E6530FFC242318D1F0
:1049C000A641E24006529013A6419F452652E2FFBF
:1049D000A641000C4652400CA641C12766524F2EFC
:1049E000A6414D2E8652158FA6410515A6526A077F
:1049F000A641D06EC6520000A641103BE652070108
:104A0000A6415F44C653F925A6414018E653030169
:104A1000242340D1A641103B06520401A6413A2668
:104A200026523825A641634446527A44A641C5B46D
:104A30006652FD2FA6414D2E8652EEFFA6414A0535
:104A4000A652F026A6412F2DC6529F45A641000032
:104A5000E6520000A6410300C6530000A641000133
:104A6000E6530101242368D1A6410000E65300006B
:104A7000042290D1B94100A03953010019003C0F24
:104A80002F647269766572732F756172742F7278F4
:104A90005F6368616E6E656C5F6F766572666C6F82
:104AA000770000002F647269766572732F756172EA
:104AB000742F72785F6572726F727300000021103C
:104AC000422063308440A550C660E7700881299178
:104AD0004AA16BB18CC1ADD1CEE1EFF13112100220
:104AE00073325222B5529442F772D66239931883C8
:104AF0007BB35AA3BDD39CC3FFF3DEE362244334EC
:104B000020040114E664C774A44485546AA54BB517
:104B100028850995EEE5CFF5ACC58DD553367226BF
:104B200011163006D776F6669556B4465BB77AA767
:104B300019973887DFF7FEE79DD7BCC7C448E5580B
:104B40008668A7784008611802282338CCC9EDD9B7
:104B50008EE9AFF9488969990AA92BB9F55AD44A5F
:104B6000B77A966A711A500A333A122AFDDBDCCB07
:104B7000BFFB9EEB799B588B3BBB1AABA66C877C2B
:104B8000E44CC55C222C033C600C411CAEED8FFD57
:104B9000ECCDCDDD2AAD0BBD688D499D977EB66EFF
:104BA000D55EF44E133E322E511E700E9FFFBEEFA7
:104BB000DDDFFCCF1BBF3AAF599F788F8891A98169
:104BC000CAB1EBA10CD12DC14EF16FE18010A10053
:104BD000C230E3200450254046706760B983989343
:104BE000FBA3DAB33DC31CD37FE35EF3B1029012A3
:104BF000F322D2323542145277625672EAB5CBA50F
:104C0000A89589856EF54FE52CD50DC5E234C324F2
:104C1000A01481046674476424540544DBA7FAB7E2
:104C20009987B8975FE77EF71DC73CD7D326F23642
:104C30009106B01657667676154634564CD96DC92E
:104C40000EF92FE9C899E9898AB9ABA94458654892
:104C500006782768C018E1088238A3287DCB5CDB82
:104C60003FEB1EFBF98BD89BBBAB9ABB754A545AE2
:104C7000376A167AF10AD01AB32A923A2EFD0FED4E
:104C80006CDD4DCDAABD8BADE89DC98D267C076C32
:104C9000645C454CA23C832CE01CC10C1FEF3EFF22
:104CA0005DCF7CDF9BAFBABFD98FF89F176E367E82
:104CB000554E745E932EB23ED10EF01E6D61696E3C
:104CC0000000000069646C65000000002F00000017
:104CD0004357440025732573257300002530386C35
:104CE000782530386C780D0A000000000D0A0000AD
:104CF00025733A20636F6D6D616E64206E6F742052
:104D0000666F756E640D0A0025730D0A00000000C1
:104D100025640000A9210800B1210800B521080080
:104D2000B921080000000000B121080000000000C7
:104D30000000000000000000286E756C6C29000067
:104D4000270000002020200025630000090A0B0C2A
:104D50000D200000253038783A20000025303278C8
:104D60002000000043000000F0030720F8B500BF5A
:104D7000F8BC08BC9E467047593408001901080069
:104D8000F8B500BFF8BC08BC9E467047F5000800A7
:104E00000000000000080E40000E0E4000010000EF
:104E1000000E0E400002000008000000000000002C
:104E20000000800940000E0E4000040000000E0E3D
:104E3000400008000011000000000000000000C059
:104E40000940000E0E4000100000000E0E40002031
:104E5000000012000000000000000000000A4000F6
:104E6000100E400000200000100E40000040001313
:104E700000000000000E0E4001000000000E0E4079
:104E800002000000000E0E4004000000000E0E4064
:104E900008000000000E0E4010000000000E0E4042
:104EA00020000000000E0E4040000000000E0E40EA
:104EB00080000000000E0E4000010000000E0E40B9
:104EC00000020000000E0E4000040000000E0E4024
:104ED00000080000000E0E4000100000000E0E4002
:104EE00000200000000E0E4000400000000E0E40AA
:104EF00000800000000E0E4000000100000E0E4079
:104F000000000200000E0E4000000400000E0E40E3
:104F100000000800000E0E4000001000000E0E40C1
:104F200000002000000E0E4000004000000E0E4069
:104F300000008000000E0E4000000001000E0E4038
:104F400000000002000E0E4000000004000E0E40A3
:104F500000000008000E0E4000000010000E0E4081
:104F60000000002000100E400100000000100E4064
:104F70000200000000100E400400000000100E406F
:104F80000800000000100E401000000000100E404D
:104F90002000000000100E404000000000100E40F5
:104FA0008000000000100E400001000000100E40C4
:104FB0000002000000100E400004000000100E402F
:104FC0000008000000100E400010000000100E400D
:104FD0000020000000100E400040000000100E40B5
:104FE0000080000000100E400000010000100E4084
:104FF0000000020000100E400000040000100E40EF
:105000000000080000100E400000100000100E40CC
:105010000000200000100E400000400000100E4074
:105020000000800000100E400000000100100E4043
:105030000000000200100E400000000400100E40AE
:105040000000000800100E400000001000100E408C
:105050000000002000100E400000004000100E4034
:105060000000008000120E400100000000120E40FF
:105070000200000000120E400400000000120E406A
:105080000800000000120E401000000000120E4048
:105090002000000000120E404000000000120E40F0
:1050A0008000000000120E400001000000120E40BF
:1050B0000002000000120E400004000000120E402A
:1050C0000008000000120E400010000000120E4008
:1050D0000020000000120E400040000000120E40B0
:1050E0000080000000120E400000010000120E407F
:1050F0000000020000120E400000040000120E40EA
:105100000000080000120E400000100000120E40C7
:105110000000200000120E400000400000120E406F
:105120000000800000120E400000000100120E403E
:105130000000000200120E400000000400120E40A9
:105140000000000800120E400000001000120E4087
:105150000000002000120E400000004000140E402D
:105160000100000000140E400200000000140E4078
:105170000400000000140E400800000000140E405F
:105180001000000000140E402000000000140E402B
:105190004000000000140E408000000000140E408B
:1051A0000001000000140E4000020000FD1808007D
:1051B0000000000000000000BC0307200000000009
:1051C000FFFFFFFF000000000000000000000000E3
:1051D00000000000D803072000000000FFFFFFFFD1
:1051E00000000000000000000000000000000000BF
:1051F00000000000DC06072044070720AC0707205A
:10520000000000000000000000000000000000009E
:10521000000000000000000000000000000000008E
:1052200000000000644D08000000000000000000C5
:10523000000000000000000000000000000000006E
:10524000000000000000000000000000000000005E
:10525000000000000000000000000000000000004E
:10526000000000000000000000000000000000003E
:10527000000000000000000000000000000000002E
:10528000000000000000000000000000000000001E
:10529000000000000000000001000000000000000D
:1052A0000E33CDAB34126DE6ECDE05000B000000D2
:1052B00000000000000000000000000000000000EE
:1052C00000000000000000000000000000000000DE
:1052D00000000000000000000000000000000000CE
:1052E00000000000000000000000000000000000BE
:040000038000000079
:00000001FF
