:0200000280007C
:10000000F87F0820210A0800B5080800B508080094
:10001000B5080800B5080800B5080800B5080800CC
:10002000B5080800B5080800B5080800B5080800BC
:10003000B5080800B5080800B5080800FD1E08004E
:10004000B9080800C1080800C9080800D10808005C
:10005000D9080800E1080800E9080800F1080800CC
:10006000F908080001090800090908001109080039
:1000700019090800210908002909080031090800A8
:100080003909080041090800490908005109080018
:100090005909080061090800690908007109080088
:1000A00079090800810908008909080091090800F8
:1000B00099090800A1090800A9090800B109080068
:1000C000B9090800C1090800C9090800D1090800D8
:1000D000D9090800E1090800E9090800F109080048
:1000E000F9090800010A0800090A0800110A0800B5
:1000F000190A080010B5054C237833B9044B13B125
:100100000448AFF300800123237010BDD0080720FE
:10011000000000003852080008B5064B1BB1064825
:100120000649AFF300800648036813B1054B03B1DD
:10013000984708BD0000000038520800D408072086
:1001400038520800000000002DE9F041CF1CBF0824
:10015000884618D00446002501E0BD4213D06378DC
:100160002278E6781B0443EA0263A27843EA060198
:1001700041EA022105480135043401F0F1F9002873
:10018000EBD0BDE8F0814046BDE8F081EC080720E7
:100190000028F8B5144C14DB021DA618C0F3072E76
:1001A000C3B2451D871DE3700F4984F802E04FF686
:1001B000FF7001F08BFE0346020A32706355384629
:1001C000F8BDFF230516021201142571A2712370D8
:1001D0006370E071617104F108060A27092508229D
:1001E00004234FF0000EDEE7F80807202DE9F04168
:1001F00082B001A91B4801F0C3F870BB019B1A4CE7
:100200001A0AD9B25FFA82F841EA08281D0E190CC1
:10021000B8F5806FA270E370257061701DD808F189
:1002200005070546BF080F4801A9013501F0A8F8E8
:1002300098B9019BAF424FEA13664FEA13414FEA68
:100240001322E37126716171A27104F10404EAD8EA
:1002500008F1060002B0BDE8F0816FF0460002B080
:10026000BDE8F081EC080720F808072010B582B03F
:1002700000BA02AA42F8040D202305480C4601F0FA
:1002800029F810B923681BBA236002B010BD00BF63
:10029000EC08072030B587B0502306A901F8173DB8
:1002A00005460522364800F0C1FF044610B120463D
:1002B00007B030BD334B04A80294039302F0FAF860
:1002C00004A8014602AA02F00FF903E09B0414D42B
:1002D000002CECD101A94FF44830FFF7C7FF0446CA
:1002E00002A802F0E7F802A804A902F00BF902281C
:1002F000019BEBD16FF06D04D9E7002CD7D190238F
:1003000006A901F8153D1E48052200F08FFF04469E
:100310000028CCD105F0AA335B0805F0553543EA37
:10032000450303F03332920003F0CC3342EA9302E8
:1003300002F00F331B0102F0F03243EA121303F014
:10034000FF12120203F0FF2342EA13204FEA30406B
:1003500001A9FFF78BFF08B10446A8E7502306A9BF
:1003600001F8163D0648052200F060FF044600280B
:100370009DD101A94FF44030FFF778FF044696E77E
:10038000EC0807200065CD1D2DE9F04F89B001F084
:10039000D5FD9C4F9C4E9D4D3C46002306930795F2
:1003A00001F042FE9749042206AB02F0FDFA042850
:1003B000F3D194F80290E37843EA0929B9F5806F04
:1003C000EBDC09F1020801F02FFE4246904906AB32
:1003D00002F0EAFA8045E0D194F800C0627809F1B1
:1003E000060B42EA0C28B8F1630F12DC3268002ACF
:1003F00040F0F8806FF06A00FFF7CAFE8046B8F15F
:10040000000FCADD01F016FE42467E4902F046FAB0
:10041000C3E709F1040204EB0B0111F801EC14F835
:1004200002904FF6FF7077494EEA092901F04EFD20
:10043000814540F0D480A8F1640CBCF1070F00F2B4
:100440001982DFE80CF0A5B1A88B55350E04714B6D
:100450004FF0050893E803006D4B18609980404603
:10046000CAE73268002A00F09C80BBF1120F40F00E
:10047000C981797A387A0904FA7A41EA006197F8F1
:100480000A900A4342EA092919F0FF0A40F0B781AD
:10049000B9F1000F00F0B38159465A48FFF754FEF6
:1004A0001228804600F08381B8F1000FA7DAD6E762
:1004B0003368002B40F0A2805749584801F58C72F0
:1004C00001F5847300F0FCFD544800F05DFE20232C
:1004D00052480DF10F0105228DF80F3000F0A6FEF5
:1004E000002800F0188180464C4800F0FDFDB6E77A
:1004F0003368002B40F082804749484801F58C72F0
:1005000001F5847300F0DCFD444800F03DFE20233B
:1005100042480DF10B0105228DF80B3000F086FEEC
:100520008146002800F021815FFA89F93B4800F0FC
:10053000DBFD09F0AA035B1009F0550243EA420211
:1005400002F0CC039B1002F0330243EA82031A0943
:1005500042EA03133B714FF0010880E7D6F80090A0
:10056000B9F1000F4AD14A4606A82D4900F068FBB0
:10057000494606A800F072FB022001F0D3FF06A84E
:10058000032100F077FB1420C84601F03BFF66E72B
:100590004FF0000863E73368DFF86C90002B40F001
:1005A000FE806FF06A085AE733683BBB1A491B4864
:1005B00001F58C7201F5847300F082FD174800F09C
:1005C000E3FD4FF0200915480DF1090105228DF8D2
:1005D000099000F02BFE48B3DFF848803FE7DFF8D2
:1005E00048803CE707485946FFF7AEFD8345804603
:1005F0007FF45AAFFFF7FAFD804655E76FF06908C0
:100600002DE700BFF8080720000D07200065CD1D6D
:10061000FC080720204F0800E4020720EC08072010
:10062000EC030720F0D8FFFF11FCFFFF4FF0E008BC
:100630009B4802A905228DF8088000F0F7FD864648
:100640000028C9D1964806A904AA08238DF810E00D
:1006500000F040FE0028BFD19DF81830DB07BBD565
:100660008B238F4804A908228DF8103000F082FEF9
:100670000028B1D1A0238A480DF1070105228DF889
:10068000073000F0D3FD0028A6D1302384480DF1B7
:10069000060105228DF8063000F0C8FD00289BD128
:1006A0007F480DF1050105228DF8059000F0BEFD93
:1006B000002891D17A4801A905228DF8048000F024
:1006C000B5FD002888D10B23754804A908228DF8B0
:1006D000103000F04FFE00287FF47EAFA02370485A
:1006E0000DF1030105228DF8033000F09FFD002875
:1006F0007FF472AFDFF8B081DFF8B09102E0C84557
:1007000000F0BB8058F8040FFFF7C4FD0028F6D0B6
:10071000DFF89C81A3E6E02361480DF10E0105227C
:100720008DF80E3000F082FD00287FF4DCAE4FF033
:100730003F0E5B480DF10D0103AA08238DF80CE074
:1007400000F0C8FD00287FF4CEAE4FF00B0E5448E9
:100750000DF10D0103AA08238DF80CE000F0BAFD9D
:100760008146002853D0C846BEE6E0234C480DF130
:100770000A0105228DF80A3000F058FD8146002854
:100780007FF4D2AE464806A904AA08238DF810903B
:1007900000F0A0FD002838D19DF81890C4E640482C
:1007A00000F0A2FC0022C9F80020904657E6ADF800
:1007B00010A0CDF818A0079510E0FFF7C5FCB0F524
:1007C000807F80467FF470AE01F034FC04A90222E1
:1007D00002F064F8B9F580793FF40CAF01F024FC25
:1007E000304906AB4FF4807202F0DEF80346B3F5F1
:1007F000807F01462B48E0D06FF06D082FE66FF048
:1008000015082CE66FF0590829E681468CE60A2087
:1008100001F0F8FD032306A80493CDF8149001F02D
:1008200049FE06A8014604AA01F05EFE8DF80C9070
:1008300006E09DF80D30102B95D0B9F1000F92D144
:100840000DF10D0103AA0823154800F043FD9DF8A2
:100850000D30814603F0300304A88DF80D3001F00F
:1008600029FE04A806A901F04DFE0228E1D16FF08F
:100870006D0839E64FF0FF38F1E5FFF70BFD002872
:100880007FF446AF702306480DF1020105228DF872
:10089000023000F0CBFC012380463360DFE500BF6F
:1008A000EC080720FC080720903D08001C4F0800BA
:1008B000EFD8FFFFFEE700BF08B5FFF7FBFF08BD5D
:1008C00008B5FFF7F7FF08BD08B5FFF7F3FF08BD50
:1008D00008B5FFF7EFFF08BD08B5FFF7EBFF08BD50
:1008E00008B5FFF7E7FF08BD08B5FFF7E3FF08BD50
:1008F00008B5FFF7DFFF08BD08B500F03FFF08BDF2
:1009000008B5FFF7D7FF08BD08B5FFF7D3FF08BD4F
:1009100008B5FFF7CFFF08BD08B5FFF7CBFF08BD4F
:1009200008B5FFF7C7FF08BD08B5FFF7C3FF08BD4F
:1009300008B5FFF7BFFF08BD08B5FFF7BBFF08BD4F
:1009400008B500F01FFF08BD08B500F01FFF08BD87
:1009500008B500F01FFF08BD08B5FFF7ABFF08BDE5
:1009600008B5FFF7A7FF08BD08B5FFF7A3FF08BD4F
:1009700008B5FFF79FFF08BD08B5FFF79BFF08BD4F
:1009800008B5FFF797FF08BD08B5FFF793FF08BD4F
:1009900008B5FFF78FFF08BD08B5FFF78BFF08BD4F
:1009A00008B5FFF787FF08BD08B5FFF783FF08BD4F
:1009B00008B5FFF77FFF08BD08B5FFF77BFF08BD4F
:1009C00008B5FFF777FF08BD08B5FFF773FF08BD4F
:1009D00008B5FFF76FFF08BD08B5FFF76BFF08BD4F
:1009E00008B5FFF767FF08BD08B5FFF763FF08BD4F
:1009F00008B5FFF75FFF08BD08B500F0F5FE08BDBC
:100A000008B5FFF757FF08BD08B5FFF753FF08BD4E
:100A100008B5FFF74FFF08BD08B5FFF74BFF08BD4E
:100A200070B52D4B2D4D2E4C2E482F4940F20142D2
:100A30004FF400466E6022601D4602601962AA6E85
:100A4000254BD607FBD5294A19461A628A6E224BD6
:100A5000D503FBD51A6B194622F0030242F00102BE
:100A60001A638A6E1C4B1407FBD5214A19469A62F9
:100A70008A6E194B9007FBD511221A631A46916EA4
:100A8000154B0907FBD512221A639A6E1207FCD583
:100A90001849194A91420DD0184B9A420AD2D043B4
:100AA000034423F0030404340023C858D050043313
:100AB000A342FAD1124B134A93420AD2D9430A44B1
:100AC00022F0030119440022043B43F8042F8B4217
:100AD000FBD1FFF759FCFEE700060E40501A0E400E
:100AE000000A0E40000C0E400908370009083701C3
:100AF000013F0D200053080000000720D008072008
:100B0000D0080720341807200346002019605A60D7
:100B1000187258729872D872187358739873D87381
:100B2000704700BF2DE9F0410446C068A3686668BD
:100B30000138C01A48BF8019904234BF0546154697
:100B4000F61A2068AE420F46184408D92A4602F029
:100B500033FFA36828462B44A360BDE8F0813246EA
:100B6000C6EB050802F028FFB9194246206802F0DA
:100B700023FFC4F808802846BDE8F081F8B5C368B3
:100B80008768466803F1FF3EBEEB070748BFBF1901
:100B9000751EEF1B8C46974234BF3D4615460168D3
:100BA000F61AAE4204461944604607D92A4602F0B6
:100BB00003FFE36828462B44E360F8BD324602F0A9
:100BC000FBFEAF1B30443A46216802F0F5FEE760B9
:100BD0002846F8BDC2688368013A4068D31A48BF06
:100BE0001B180138C01A7047024BC3F801000020DF
:100BF000704700BF040D0720F0B40F4A92F900308F
:100C0000012B16D00D4B4FF0010C4FF400674FF441
:100C100080564FF400554FF480444FF400404FF499
:100C2000803182F800C01F611E611D611C61186166
:100C300019610020F0BC70473018072000060E40F4
:100C400001600B6822B14A68002059695A617047F7
:100C50004A68002019691A61704700BF03681A6862
:100C60005B6819B1116B002013637047516B002052
:100C70005363704703681A685B6819B151690020B3
:100C8000536170471169002013617047036842681F
:100C900019B1196B00201A637047596B00205A6311
:100CA000704700BFF8B506463268406813680168AF
:100CB0004768526800241F25D1F834E04F6300BF15
:100CC00000BF196B1A6300BF00BF45FA04F15F6BE8
:100CD00001F001015A63FFF7D9FF00BF00BF32687E
:100CE00013685268196B1A6300BF00BF596B5A63CF
:100CF000706801684768D1F830C00F6300BF00BF5B
:100D0000D3F830C01A6300BF00BFD3F834C05A63B1
:100D100000BF00BFD3F830C01A6300BF00BF01346A
:100D2000052CD3F834C05A63C6D10020F8BD00BFEB
:100D3000F8B505462A684068136801684768526834
:100D400000240126D1F834E04F6300BF00BF196BC7
:100D50001A6300BF00BF596B5A6346FA04F1FFF7EC
:100D600095FF00BF00BF2A6813685268196B1A63A9
:100D700000BF00BF596B5A63686801684768D1F8C3
:100D800030C00F6300BF00BFD3F830C01A6300BF8C
:100D900000BFD3F834C05A6300BF00BFD3F830C0DF
:100DA0001A6300BF00BF0134022CD3F834C05A6369
:100DB000C8D10020F8BD00BF2DE9F0410746FFF77C
:100DC000B7FF7B683A68196858681368526842F23E
:100DD0000F7607254C6B486300BF00BF1C6B1A637E
:100DE00000BF00BF5C6B5A6300BF00BF1C6B1A637F
:100DF00000BF00BF5C6B5A634C69486100BF00BF15
:100E0000196B1A6300BF00BF0020596B5A6301F0D1
:100E100089FB78680168D0F804C0CC6B0B69C1F815
:100E200010C000BF00BF3A6813685268D3F8308022
:100E30001A6300BF00BF1CEA0404D3F834805A636D
:100E400040D1D1F834E0C1F834C000BF00BF196B05
:100E50001A6300BF00BF45FA04F1D3F834E001F093
:100E600001015A63FFF712FF00BF00BF3A68136821
:100E70005268196B1A6300BF00BF596B5A637868D8
:100E80000168D0F804C0D1F83080C1F830C000BF8C
:100E900000BFD3F830801A6300BF00BFD3F834809E
:100EA0005A6300BF00BFD3F830801A6300BF00BF91
:100EB0000134042CD3F834805A63C2D1013E04D0EB
:100EC000604687E70020BDE8F0816FF06D00BDE867
:100ED000F08100BF10B584B00446FFF76DFF0346F4
:100EE00010B9184604B010BD0F4A002302A80192A1
:100EF000009301F0DFFA02A801466A4601F0F4FA15
:100F00002046FFF759FF03466846002BE9D001F061
:100F1000D1FA684602A901F0F5FA0228F0D16FF083
:100F20006D03184604B010BD0065CD1D2DE9F04FCE
:100F300085B0894605469046029349B1DA1D0846B8
:100F4000D208002102F0AEFD0E99CB0189F80030E5
:100F5000029B002B70D0686803F1FF3B01241FE067
:100F6000D36B19F80C200B420CBF0023012303FAAA
:100F70000AF3134309F80C3068682E680268336876
:100F8000416876681769116100BF00BF1A6B1E6364
:100F900000BF00BF5A6B029A013472455E634FD99D
:100FA0006142671E01F00701FB08B8F1000F41D054
:100FB00018F8033043FA01F101F00101FFF766FE72
:100FC00000BF00BF2A6813685268196B1A6300BF1C
:100FD00000BF596B5A63B7EB0B035942686859411C
:100FE000FFF754FE00BF00BF2A68136856681A6BEB
:100FF0001E6300BF00BF5A6B5E6300BF00BF1A6B69
:101000001E6300BF00BFE24302F0070A5A6B5E6333
:101010004FEAD40C6868A646B9F1000FB4D0416815
:1010200002680191516901995F45516198D1019917
:10103000A646A7E74146C1E72A686868136856686C
:101040000268416800240127D2F834E0516300BFF0
:1010500000BF1A6B1E6300BF00BF5A6B47FA04F152
:101060005E63FFF713FE00BF00BF2A68136856686F
:101070001A6B1E6300BF00BF5A6B5E63686802682C
:101080004168D2F830C0116300BF00BFD3F830C050
:101090001E6300BF00BFD3F834C05E6300BF00BF53
:1010A000D3F830C01E6300BF00BF0134022CD3F858
:1010B00034C05E63C8D1002005B0BDE8F08F00BF2A
:1010C00030B40160836042604C680868116845690B
:1010D0004461526848694A615A681B68002059692E
:1010E0005A6130BC704700BF10B50446FFF7DAFD07
:1010F000226800201368526859695A61626813684F
:10110000526859695A61A2681368526859695A61EC
:1011100010BD00BF38B50446FFF7C4FD6068036822
:101120004268596B5A6300BF00BF22681368526857
:10113000196B1A6300BF00BF00215D6B5A63FFF794
:10114000A5FD00BF00BF226813685268196B1A63BF
:1011500000BF00BF596B5A636068016840680C6B40
:10116000086300BF00BF196B1A6300BF00BF596B53
:101170005A6300BF00BF196B1A6300BF00BF002095
:10118000596B5A6338BD00BF70B5026805461368D5
:10119000526819691A61596B5A636A6801201368A9
:1011A000526819691A61596B5A63AA681E4E13680E
:1011B000526819691A61596B5A63596B5A6301F085
:1011C000B1F9AA68FB2013685268196B1A6301F021
:1011D000A9F9AA681F2413685268596B5A6346FA22
:1011E00004F1686801F00101FFF750FD00BF00BF86
:1011F0002A6813685268196B1A6300BF00BF013C6C
:10120000596B5A63631CEAD1012001F08BF9AA687B
:10121000012013685268196B1A6301F083F928469C
:10122000BDE87040FFF776BF5048434D2DE9F047C9
:101230008246DAF8005040682C680368D0F804E071
:101240006D6882B089469046002603275A6BC3F822
:1012500034E000BF00BF236B256300BF00BF47FA27
:1012600006F1636B01F001016563FFF70FFD00BF3D
:1012700000BFDAF800301C685D68236B256300BF8F
:1012800000BF636B6563DAF8040003684268196B9A
:101290001A6300BF00BF216B256300BF00BF616BF5
:1012A000656300BF00BF216B256300BF00BF01362F
:1012B000042E616B4FF00001656301D09646C5E7CF
:1012C000009150464A464346FFF730FE02B0BDE863
:1012D000F08700BF2DE9F043064683B090461F46D5
:1012E0008946FFF725FD736818685B68426B4363A6
:1012F00000BF00BF326814685568226B256300BFC9
:1013000000BF626B656300BF00BF226B256300BF37
:1013100000BF626B65634269436100BF00BF236B1E
:10132000256300BF00BF0020636B656301F0FAF81E
:10133000736818685B68C16B0269036100BF00BF16
:10134000326814685568226B256300BF00BF0B42EA
:101350000CBF4FF0000E4FF0010E636B304665631B
:10136000494642463B46CDF800E0FFF7DFFD03B0BB
:10137000BDE8F08313460A460021FFF7ABBF00BF6C
:101380002DE9F04188460746FFF7A4FD08B1BDE806
:10139000F0817B68196858684B6B486300BF00BFD9
:1013A0003A68136852681C6B1A6300BF00BF5C6B1D
:1013B0005A6300BF00BF1C6B1A6300BF00BF5C6BA9
:1013C0005A634C69486100BF00BF196B1A6300BFC4
:1013D00000BF0020596B5A6301F0A4F878680468D4
:1013E0004168E56B2369216100BF00BFD7F800E0C9
:1013F000DEF80030DEF804201E6B1A6300BF00BF69
:1014000029420CBF002101215D6B5A63C8F800100E
:10141000DEF804204668012500BF00BF196B1A637F
:1014200000BF00BF596B5A6300BF00BF196B1A633E
:1014300000BF00BF596B5A6300BF00BF196B1A632E
:1014400000BF00BF596B5A636269666100BF00BF8D
:1014500000BFE16BD8F800200E420CBF0021012133
:10146000A9400A43C8F8002046682269266100BFE7
:1014700000BFDEF80420196B1A6300BF00BF0135FE
:10148000202D596B5A63C7D1616B666300BF00BFE3
:10149000196B1A6300BF00BF01215C6B5A63FFF731
:1014A000F5FB00BF00BF3A68136851681A6B1963F7
:1014B00000BF00BF5A6B59637868056846682A6B9D
:1014C0002E6300BF00BF1A6B196300BF00BF5A6BC9
:1014D000596300BF00BF1A6B196300BF00BF00242F
:1014E0005A6B0A46596329460125D1F834E04E6308
:1014F00000BF00BF196B1A6300BF00BF596B5A636E
:1015000045FA04F1FFF7C2FB00BF00BF3A68136859
:101510005268196B1A6300BF00BF596B5A63786831
:1015200001684668D1F830C00E6300BF00BFD3F831
:1015300030C01A6300BF00BFD3F834C05A6300BF85
:1015400000BFD3F830C01A6300BF00BF0134022CC3
:10155000D3F834C05A63C8D10020BDE8F08100BF81
:10156000F8B50C460646FFF7B5FC00B1F8BD70684B
:1015700003684268596B5A6300BF00BF3268136842
:101580005268196B1A6300BF00BF596B5A6300BFE2
:1015900000BF196B1A6300BF00BF596B5A6300BFCD
:1015A00000BF196B1A6300BF00BF596B5A6300BFBD
:1015B00000BF196B1A6300BF00BF1F25596B5A6328
:1015C00004F00101FFF762FB640800BF00BF32684E
:1015D00013685268196B1A6300BF00BF596B5A63D6
:1015E000706801684768D1F834E04F6300BF00BFFE
:1015F000196B1A6300BF00BF596B5A6300BF00BF6D
:10160000196B1A6300BF00BF596B5A6300BF00BF5C
:10161000196B1A6300BF00BF013D596B5A63CFD1EC
:1016200004F00101FFF732FB00BF00BF326813680E
:1016300051681A6B196300BF00BF5A6B5963706819
:10164000056847682A6B2F6300BF00BF1A6B1963D8
:1016500000BF00BF5A6B596300BF00BF1A6B19630C
:1016600000BF00BF5A6B596300BF00BF1A6B1963FC
:1016700000BF00BF00245A6B0A4659632946012562
:10168000D1F834E04F6300BF00BF196B1A6300BF8D
:1016900000BF596B5A6345FA04F1FFF7F7FA00BF30
:1016A00000BF326813685268196B1A6300BF00BF2D
:1016B000596B5A63706801684768D1F830C00F638E
:1016C00000BF00BFD3F830C01A6300BF00BFD3F81B
:1016D00034C05A6300BF00BFD3F830C01A6300BFE4
:1016E00000BF0134022CD3F834C05A63C8D10020A3
:1016F000F8BD00BF70B51E4BC0EBC00400EB84000A
:10170000C4182668DEB163685A691D691540EA0687
:1017100025D42B0713D515F0E00F11D01548012261
:10172000002301F065F804F11C0563680122D3F879
:101730000011C3F80051D3F80411C3F8042170BD9F
:1017400004F11C0530462946012201F0EDF901287B
:10175000EBD001220023084801F04AF8E5E7102207
:10176000D968DA60D6F86200002100F0ABFDD0E75E
:10177000340007203C0D07201C0D07200020FFF738
:10178000B9BF00BF0120FFF7B5BF00BF0220FFF7C0
:10179000B1BF00BF0320FFF7ADBF00BF38B50D4C90
:1017A00094F90030012B13D00B49002200230125AE
:1017B0000A48257001F006F8084801F025F80848A5
:1017C00008490022002300F0FDFF054801F01CF845
:1017D000002038BD380D0720284F08001C0D0720B9
:1017E0003C0D07204C4F080008B5024B18680368F1
:1017F000984708BDA80007202DE9F04F43688046B0
:101800005D6883B06F6838071CD54FF0FF3342F234
:101810003201D5F8002188F8303088F8313088F866
:10182000323088F833300122C5F80011EB69EA61E3
:101830000423D5F8F021C5F8F0312B682A6843F06D
:1018400080032B60D5F8303159072BD401244FF495
:10185000805B4FF002094FF4804602E001340A2C0D
:101860001BD00BFA04F33B4205EB840AF6D0A31C11
:1018700058F823000028F1D0DAF830319B07EDD575
:10188000DAF86031CAF860914368013498470A2C4D
:10189000DAF82032CAF82062E3D1AB68AF6003B057
:1018A000BDE8F08F784B79480DF1FF3213F8011B3A
:1018B000834202F8011FF9D1D8F804300222586897
:1018C0000423D0F86011C0F86021D5F86021C5F874
:1018D0006031D5F83031DA07FBD59DF8002012F0E1
:1018E00060031FD0202B39D1D8F83830002BC8BF67
:1018F000002404DC32E0D8F838309C422EDAD8F8E4
:101900003430694653F8240001348368984700282E
:10191000F1D1D8F8043001225B68D3F86011C3F824
:10192000602193E79DF8011006294AD009291CD0AF
:10193000052913D10123D0F86021BDF80220C0F899
:101940006031D0F83031DB07FBD5036802F07F024D
:1019500023F07F0313430268036077E74FF400230B
:10196000D5F8F021C5F8F03170E7120723D143F222
:101970006203D0F80821C0F80831C369C26943F096
:101980000403C3618369022243F480438169836154
:10199000D0F8F831C0F8F82143F26213D0F80C21E6
:1019A000C0F80C31C369C26943F00803C361BDF8D4
:1019B0000230C8F830300123D0F86021C0F860311F
:1019C00044E79DF80320BDF80640012A49D0022AC9
:1019D000C4D1A446D8F83C90002C3FF437AFD9F8D6
:1019E000044009F10809002C3FF430AF26494FF0BC
:1019F000010A2278944538BF6246C2EB0C0CBAB19A
:101A00003F2B29D8A2B114F8016B0133402B02F10E
:101A1000FF3201F8016BF5D1D0F86031C0F860A158
:101A2000D0F83031DE07FBD517490023002AE7D173
:101A3000BCF1000F03D059F8044B002CD9D1002B76
:101A40003FF404AF0123D0F86021C0F86031D0F832
:101A50003031D907FBD5F9E6402BDDD0002ACFD1B4
:101A6000E6E7D8F83C301A68002CA4D004F1005402
:101A7000054B04F5C014013A12F8011F03F8011BCD
:101A8000A342F9D197E700BF0000182008001820F2
:101A9000044B002093F90020012A1CBF01221A7078
:101AA000704700BF580D0720F8B5069D4FF0FF3472
:101AB000002B0646416042638363C56380F8304073
:101AC00080F8314080F8324080F833401EDD02EB70
:101AD0008300134653F8041B83420E60FAD10D4B6A
:101AE0000027336052F82740002503E0023046F813
:101AF00020400135E3682046294698470028F5DA5A
:101B0000B36B01379F4203DA726BEBE7014B036063
:101B10000020F8BDF917080010B4274B4FF444110A
:101B2000C3F801004468254B206062681846D961FB
:101B3000836E22495B06FBD52023012088630B605E
:101B4000A3681F2B2CDC1E49194000292EDB012025
:101B500088401A490861002BB8BF1F335B119B00F6
:101B600003F1604303F561431649C3F8800118602F
:101B7000D2F80038C2F80018D2F804385B04FBD55C
:101B8000114BD2F80018C2F8003841F208019369ED
:101B9000002391611168184613605DF8044B70478B
:101BA00003F01F04A040C1F80001D4E7013961F03F
:101BB0001F010144CBE700BF580D072000060E406F
:101BC0001F00008000B0000200B10002F8B504461A
:101BD0000D4616461F4600F033FA6368EC035B6857
:101BE000A90004F1005404F5C0145A18D2F8305179
:101BF000E807FBD537B1E51916F8012B04F8012BDE
:101C0000AC42F9D15A180121D2F86031C2F8601102
:101C10004FF48043D2F82012C2F8203200F012FABA
:101C20003846F8BD30B4406844680298B9B101F153
:101C30004C0554F82540240D844238BF204660B13D
:101C400002EBC13202F1005202F5C012141812F870
:101C5000011BA24203F8011BF9D130BC7047D4F834
:101C600030219207FBD5C2B2511EC9B242B10C4D10
:101C70000C4A0D4412F8011BAA4203F8011BF9D1CA
:101C80000222D4F86031C4F860210123D4F8602125
:101C9000C4F86031D4F83031DB07FBD530BC704775
:101CA0000100182000001820F0B44068CC034768F9
:101CB00004F100548900184604F5C0147E18D6F8C3
:101CC0003051EB07FBD5261828B112F8015B04F858
:101CD000015BB442F9D17A180121D2F86031C2F81F
:101CE00060114FF48043D2F82012C2F82032F0BCC9
:101CF000704700BF43684C315B6853F82100000D0A
:101D0000704700BF31B1012901D1806970474FF0A0
:101D1000FF3070474069704710B40446134650F8CE
:101D2000270C0A4654F80F1C5DF8044BFFF74EBF12
:101D30002DE9F041054684B000686969FFF7DAFFD4
:101D400005F14B0780460024082669692246286869
:101D500002AB0096FFF766FF031E02A91C4438463B
:101D60001A4604DC03EAE37004B0BDE8F08100F039
:101D7000DBFEA0450346F5D90028E6DC03EAE37064
:101D800004B0BDE8F08100BF70B50C7884B004F0F9
:101D90000F04012C054602D0012004B070BD026979
:101DA0008B889A4202D0204604B070BD3220039145
:101DB00000F0B8FB03990B7823F07F0303F0FF06D4
:101DC0007BB15EB14B78212B08D12A4652F8200B0B
:101DD00000210723FFF768FF0020DEE74FF0FF3008
:101DE000DBE74B78222B0ED0232B17D0202BF5D1FD
:101DF0002B46072253F8200B314600923246FFF75C
:101E000011FF3046C9E74A882B68EA615B683046B3
:101E10005B68D3F86021C3F86041BEE72E776E7728
:101E2000AE77EE773046B8E7F8B5DFF878E0184FD0
:101E3000184E04466FF0690C0020079D2161626115
:101E4000A36120776077A077E07784F8200084F89A
:101E5000220084F8230084F8240084F8250084F804
:101E60002600C4F804E0A760E66084F821C004F10D
:101E700027000949094A0A4B00F0DEFC2DB104F1A4
:101E80004B002A46069900F0E5FE0020F8BD00BF91
:101E9000891D0800051D080025280800191D0800D7
:101EA00031280800311D0800C069003018BF01202A
:101EB000704700BF044B002093F90020012A1CBF8B
:101EC00001221A70704700BF600D072010B462B184
:101ED000074C0A4411F8013B83EA102334F813300D
:101EE000914283EA002080B2F4D15DF8044B704740
:101EF000644F080008B501F04FFD00BF08B50C4B5A
:101F00000C49D3F8052001328A42C3F8052008D1D4
:101F1000D3F8012000210132C3F801201A79197287
:101F20005A6000F049FBBDE8084000F0D1B800BF9E
:101F3000640D0720D0FFFF7FFEE700BF38B500F03B
:101F400045FD1C4C606000F041FDA06000F05EFBB0
:101F500000F034F9184B93F90020012A07D0174AF2
:101F60001748012503211D705060116062B6FFF70C
:101F7000A1FFFEF741FEFFF711FCFFF789FD00F01E
:101F800097FB00F097FB00F0BBFB00F0D1FB68B1C2
:101F9000606000F0D1FB30B1A06000F0CDFBFEF737
:101FA00023FE002038BD00F011FDF5E700F00EFD26
:101FB000EEE700BF64040720640D072010E000E096
:101FC000A086010070B5002282B00346009272B66E
:101FD00011490192D1F80150D1F8050062B60F49BC
:101FE0006424A1FB0062520904FB12000C4C0D4E4C
:101FF00004FB00F0A1FB00414FF47A74490906FB91
:10200000052204FB01F11A605960184619466A4618
:1020100000F06AFA02B070BD640D07201F85EB5115
:1020200040420F0014AE4701014B5868704700BF93
:1020300064040720014B9868704700BF64040720C0
:1020400072B6704762B67047704700BF704700BFF6
:1020500000B52DE9F00F6B464B6143699D46BDE825
:10206000F00F00BD62B65046C847014B984700BF0D
:10207000BD20080030B40F4AD2F80530D2F8011064
:1020800013B11868C2F805005B68002099425876C1
:102090000ED00948C2F8013005690A698C682A44E3
:1020A000121B0A61026930BC18469A60FFF7D0BF64
:1020B00030BC7047200F0720000008400120FFF7C8
:1020C00019BF00BF014BD3F801007047200F072054
:1020D000704700BF0023037043708370C3701846BD
:1020E000704700BF70B4066800240C704C708C7090
:1020F000CC70C6B14B6893F91850334600E01346D4
:102100005A6892F91820AA4206DC1A681C46002A6E
:10211000F5D1196070BC704724B123680B60216051
:1021200070BC70470E60016070BC7047F8B5069EC9
:102130001F4F1C464FF0010C00234FF00F0EA6F16D
:102140002F052276646084F819C084F81EE0C4F874
:102150002370C4F82B50A376E37623776377E37775
:1021600084F8203084F8213084F8223004F12F02E2
:102170002DB1A519192302F8013BAA42FBD10D4D3F
:102180000D4AD5F80970A6F1240323446361C4F80D
:102190002770586199611A62C5F80940FFF750FF2E
:1021A000681D2146FFF79EFFFFF74CFF2046F8BD54
:1021B000B4510800200F0720652008002DE9F043E6
:1021C0002A4D85B095F90030012B4AD0284C0023C8
:1021D000206AA16A274E04AA2F7900F07F4902F8ED
:1021E000013D01F07F40DFF8A0C004F15E01C4EBC7
:1021F000060E4FF00F080126511AC4F82090A06275
:10220000646084F81E80C4F823C0C4F82BE02376F1
:102210002B7263766383A383E37784F827306F6040
:102220002E7007D004F12E031944192203F8012F50
:102230008B42FBD1104B114903224FF0006E052752
:102240004FF4D876C5F801400D48C1F810E05A6047
:1022500000211F607F220B4B0096C5F80940FFF755
:1022600065FF002005B0BDE8F08300BF200F072008
:1022700034180720C97F08200000084000060E40DF
:1022800015230800700D0720645108000146012045
:1022900010B400234FF0FF326FF06D0448768C7657
:1022A000CB7781F8203081F8213081F82230CA764E
:1022B0000A774A7702485DF8044BFFF713BF00BF67
:1022C000250F072010B590F919300446022BC0F8ED
:1022D0001A1007D0042B1DBF0323437600204FF0B4
:1022E000FF3010BDD0F81F000123637648B100F025
:1022F000D1F90023E37784F8203084F8213084F882
:10230000223021460248FFF7EDFE002010BD00BF3D
:10231000250F072038B50A4A0A4BD2F8014001259B
:10232000C4F8233030BFFFF78DFEFFF789FE21464A
:1023300005486576FFF7D6FEFFF79CFEF2E700BF83
:10234000200F07206C510800250F072030B5174BD0
:1023500089B0D3F8014094F91920032A1FD0022331
:10236000637680B10368002B13DD02AD00230146C4
:10237000C4F81F50284600930D4A234600F048F940
:10238000284600F073F9FFF775FED4F81A0009B07B
:1023900030BD4368002BE8DC6FF06D00F7E70122E9
:1023A000581D62762146FFF79DFEECE7200F0720BF
:1023B0008D22080010B50446FFF742FE2046FFF7C5
:1023C000C5FF0446FFF73EFE204610BD0B4BC1176C
:1023D00083FB00230A4AC1EBA34302FB130000B5B1
:1023E0004FF47A7202FB00F283B0684600930192C8
:1023F000FFF7E0FF002003B05DF804FB83DE1B4322
:1024000040420F004FF47A7202FB00F00A4B10B505
:1024100083FB0013C4170949C4EBA34301FB13005A
:1024200002FB00F282B0684600930192FFF7C2FF00
:10243000002002B010BD00BF83DE1B4340420F00EE
:1024400003680BB11A680260184670474368154A62
:1024500093420BDA02681449013A19440260416060
:10246000002A0EDD4368002B15DB70470F4A9342AC
:102470000268F5DD0E4901321944002A026041600C
:10248000F0DCF2D041680029EFDD094B01320B444A
:102490000260436070470449013A19440260416098
:1024A000704700BF013665C400CA9A3BFFC99A3B1A
:1024B000003665C438B50446FFF784FD054668B9A3
:1024C000084B20681A686168024422605B682046F5
:1024D0000B446360FFF7BAFF284638BD4FF0FF3565
:1024E000FAE700BF300F072038B50D6814682C4498
:1024F0000460496852680A444260FFF7A7FF002061
:1025000038BD00BF02680B689A4204D001DB02208C
:1025100070470020704742684B689A42F6D101200C
:10252000704700BF28B1C0EBC000800001387FF4C5
:10253000FDAF704770B405684B686A68934201D874
:1025400014E025469B1A4B602C6862689A42F8D3C7
:10255000061DB4421CBFC3EB020363600C6015B1DF
:10256000296070BC7047016070BC70472C46002524
:10257000EEE700BF0268E2B18A4203D115E099425A
:1025800005D01A461368002BF9D118467047196810
:1025900011601A680430824205D0596853680120DE
:1025A0000B44536070470120704711681346016067
:1025B000EFE71046704700BFF8B5134DFFF744FD35
:1025C0002B4653F8044B9C4211D063682E46013BC6
:1025D00063602F465BB923682B6023696069984765
:1025E000E368DB0707D434686368002BF3D0BDE8E9
:1025F000F840FFF72BBDA368214663600248FFF750
:1026000099FF3C686368E5E7700407200020704785
:10261000F0B44D68134C05F2E73584FB0564ED1703
:10262000C5EBA414642505FB04F40F4E04F57424D3
:1026300004F23F2486FB04760968E417C4EBA64441
:1026400005FB0144049954B9012544728472C47293
:102650000572C16002614361F0BC00207047846074
:10266000F7E700BFD34D621083DE1B4308B5C26895
:10267000836892074360014657BF0133034804480B
:102680004B60FFF757FF002008BD00BF8C040720F8
:1026900070040720C268054B014612F0020F03F1D7
:1026A0001C0008BF1846FFF765BF00BF7004072075
:1026B0000020704730B50F4C83B004F1450504F19C
:1026C000E1024FF400638DE80C002846002102224D
:1026D0000323FFF7A9FB084B601C009304F14102A0
:1026E00006490123C4F84150FFF7DEF9002003B08A
:1026F00030BD00BF380F072000000720A8000720CA
:1027000008B50848FFF708FA02E00748FFF75EFE41
:102710000648FFF7C9FB0028F7D00348FFF756FE2D
:10272000002008BD390F0720A08601007D0F07207B
:1027300000487047C80F072000487047A40F0720C3
:10274000F8B50128069B0AD000221A745A749A74AC
:10275000DA741A755A759A75DA750020F8BD5D69D4
:102760001C69104623462A46014900F081FCF4E723
:1027700084510800F8B5124F0546D7F80140B4B1AE
:10278000002603E0E36826465BB11C462868216802
:1027900000F084FC0028F5DAEC6066B1F5600020FA
:1027A000F8BD2B736B73AB73EB732646F6E70473BC
:1027B00044738473C473C7F801500020F8BD00BF90
:1027C0001C18072030B4094D00244560047344737D
:1027D0008473C473047644768476C4760160806022
:1027E00002614361204630BC704700BF41270800AA
:1027F00030B4014604694D69121943EB050300200A
:102800000A614B6130BC704710B50446FFF7B2FF58
:10281000034B0020D3F80920C3F80940A26110BD82
:102820001C1807204FF0FF30704700BF104670475C
:10283000012070470020704770B40F4E0F4D0024E8
:102840004661C560047444748474C4740476447628
:102850008476C476047744778477C47780F8204000
:1028600080F8214080F8224080F8234001604260D7
:102870008360204670BC70472D280800352808006A
:1028800041610020704700BF034B002908BF194673
:10289000C1600020704700BF3528080070B503698B
:1028A00004460E46154613B19847012805D0314617
:1028B0002A4663682046984770BD284670BD00BF11
:1028C00008B5C368984708BD38B504460D46FFF7FC
:1028D000B7FBA3686268934209D021685A1C41F88B
:1028E00023500025A260FFF7ADFB284638BD6FF0EE
:1028F0000B05F8E7F8B505460F460024FFF7A0FBE7
:10290000AB689C4215D3002453B12B6853F8246064
:10291000FFF7D8FB3562F061AB680134A342F4D80D
:102920003846FFF713FD6E300CD0AB6800249C4294
:10293000E9D22B6853F82460B36830469847C0B991
:102940000134DDE7A86898B12968002201EB800016
:1029500051F8043B81421A775A779A77DA7783F8ED
:10296000202083F8212083F8222083F82320EFD130
:102970000026FFF767FB3046F8BD00BF30B50346C1
:1029800085B00C461946002301220DEB030501A872
:10299000029203930195FFF797FF01A82146FFF7E5
:1029A000A9FF05B030BD00BF70B50D4619461646EB
:1029B0000446FFF7E3FF28B1294632462368204644
:1029C000984770BD6FF06D0070BD00BF0048704744
:1029D000BC51080070B4036AE3B19D68BDB1002426
:1029E0001E682146224656F824300131984283F869
:1029F000202083F8212083F8222083F823200C460E
:102A000003D01A775A779A77DA77A942EBD1012067
:102A100070BC7047184670BC704700BF05290ED0C7
:102A2000062903D06FF0150318467047D0F84D20E3
:102A3000002322F00102C0F84D2018467047D0F85C
:102A40004D20002342F00102C0F84D201846704787
:102A50002DE9F04780460F469146FFF7F1FAD8F886
:102A60003830002B43D0394608F13C004A46FEF787
:102A700085F80744C0EB0906D8F8284008F1240A75
:102A800038460CB376B32569A168AE4238BF3546E7
:102A90002A4600F091FFD8F828402F44A268236905
:102AA0002A445B1B761BA2602361002BE8D1E168FE
:102AB0006068FFF707FC5046FFF7C2FC0446C8F801
:102AC00028003846002CDDD166B198F84C30022B36
:102AD0000FD0D8F84D30DB0712D5B9EB060908BF87
:102AE0006FF00A09FFF7AEFA4846BDE8F0874E4698
:102AF000C2E7C6EB0909FFF7A5FA4846BDE8F0872B
:102B0000FFF7E0FAC8F83090C8F81C00C8F82C703D
:102B1000C8F834602046FFF719FC8146FFF792FAA7
:102B20004846BDE8F08700BF2DE9F0410F46164644
:102B30000446FFF74FFF68BB94F84C30022B42D09D
:102B4000E3691BB3656B3946AE4238BF35462A464A
:102B5000E06A00F031FFE36AD4F834802B44C5EB1F
:102B600008082F44E362C4F83480751BB8F1000FE5
:102B70001AD045B1A36B33B12A4604F13C00394663
:102B8000FDF7D0FF2D1A701BBDE8F0813546002DF2
:102B9000F9D0EFE7E0690021FFF794FB00232377EA
:102BA0006377A377E377C7E7E069216BFFF78AFBD9
:102BB00084F81C8084F81D8084F81E8084F81F80AF
:102BC000002DE0D0D6E74FF0FF30BDE8F08100BF28
:102BD0002DE9F041064686B00F461546FFF730FA5C
:102BE000304639462A46FFF79FFF041E02DBB5EB4D
:102BF000040805D1FFF726FA204606B0BDE8F081AB
:102C0000FFF760FAB36A3C44039402900495CDF850
:102C1000148073B106F1240001A9FFF763FA0020C4
:102C2000FFF794FB0446FFF70DFA204606B0BDE817
:102C3000F08101ABB362F2E710B50446806B18B1C6
:102C400004F13C00FDF7C6FFA36A03B11B691844F9
:102C500010BD00BF70B5244B04460D4616462349EF
:102C6000234AFFF7E9FD23492046FFF709FE2249E1
:102C70002046FFF709FE04F12400FFF72BFA00239A
:102C8000A56384F8283084F8293084F82A3084F841
:102C90002B3084F82C3084F82D3084F82E3084F8D2
:102CA0002F3084F8303084F8313084F8323084F8B2
:102CB000333084F8343084F8353084F8363084F892
:102CC00037302DB12946324604F13C00FDF71CFF98
:102CD000002084F84C0084F84D0084F84E0084F8FD
:102CE0004F0084F8500070BD392C0800512A0800AC
:102CF000D12B0800292B08001D2A0800F0B41C68FD
:102D00006928276804F104041C603D46059E1CD018
:102D100064281AD00139B5FBF2F302FB1354E4B274
:102D2000092C84BF2734E4B2303408460C701D46A9
:102D30000139002BEFD133780246012B03D12D232B
:102D4000084602F8013CF0BC7047002FE2DA01238C
:102D50007D423370DEE700BF4A6810B58B18013240
:102D60004A6018728B69102A03F101030C468B61CB
:102D700000D010BD51F8080BFFF790FD0023237120
:102D80006371A371E37110BD2DE9F04F00248DB084
:102D900081468846174603938DF82E40387838B11F
:102DA000252808D041460137C84738780028F7D190
:102DB0000DB0BDE8F08F7878302800F00C812D2818
:102DC00000F0098102374FF0200AA0F13003DAB297
:102DD000092A4FF000060AD817F8010B06EB860601
:102DE00003EB4606A0F13003DAB2092AF4D96C28C5
:102DF00003BF387801217F1800210028D8D0002295
:102E0000A0F153038DF81B20252B00F2E180DFE8B1
:102E100013F06A00DF00DF00DF00DF00DF00DF000B
:102E2000DF00DF00DF00DF00DF00DF00DF00DF00AA
:102E3000DF005C00D700DF007700DF00DF00D70095
:102E4000DF00DF00DF00DF00DF00DF00DF00DF008A
:102E5000DF006A00DF00D700DF00DF0026000DF191
:102E60001B038DE80A0078200DF12E011022039B30
:102E7000FFF744FF9DF81BC00446451C007828B1AD
:102E80002B4613F8012B013E002AFAD1BAF12D0F7F
:102E90000BD0BCF1010F00F0A380002E04DD5046E2
:102EA0004146C847013EFAD1207828B14146C8477B
:102EB00014F8010F0028F9D1002E7FF76FAF202002
:102EC0004146C847013EFAD168E7039C0DF12E0543
:102ED00023684FF0000C1878043323608DF82D0020
:102EE0000DF12D04CBE7039C23681A1D22601C689A
:102EF000002C00F088802078651C4FF0000CBEE7A5
:102F0000039C002221680023073121F0070101F111
:102F100008002060D1E900452046294600F0F4FC75
:102F2000002865D1844629462046CDF808C000F027
:102F300013FD834600F000FA02460B462046294660
:102F400000F0BCF834A3D3E9002300F06BFA00F0E2
:102F500003FDDDF808C00DF12E020AA9304CA4FBD8
:102F60000043DB0803EB8304A0EB4400303002F89D
:102F7000010D8A421846F1D12E238DF82730BBF17E
:102F8000000F45D00DF126025B4625481446A0FBF4
:102F90000301C90801EB8100A3EB400303F13000FA
:102FA00002F801090B460029EFD1BCF1010F03BF64
:102FB0002D2004F8010C04F1FF342078651C5EE735
:102FC0000DF11B038DE80A000A220DF12E014EE7D8
:102FD0004146C847E2E68246033717F8010CF4E69B
:102FE000BAF1300F7FF459AF4146C8472C4654E739
:102FF00005F10040049405904FF0010CDDE9044513
:103000008DF81BC08FE7074DA44628206C1E37E7BC
:103010000DF12704C9E700BF0000000080842E41A5
:10302000CDCCCCCCE151080070B5044615460E4617
:1030300000680321FFF744FC32462B4621460B482B
:10304000FFF7A2FE6268002A09DD214651F8080B4D
:10305000FFF724FC002323716371A371E3712068DF
:103060000421BDE87040FFF72BBC00BF592D0800BC
:103070000EB410B589B00BAB53F8041B01900024BB
:1030800001A86A46009302940794FFF7CDFF0798C2
:1030900009B0BDE8104003B0704700BF00E03BB18D
:1030A00010F8013B11F8012B9342F8D0981A7047A1
:1030B0001846704781F0004102E000BF83F00043F2
:1030C00030B54FEA41044FEA430594EA050F08BFC3
:1030D00090EA020F1FBF54EA000C55EA020C7FEA87
:1030E000645C7FEA655C00F0E2804FEA5454D4EB04
:1030F0005555B8BF6D420CDD2C4480EA020281EACE
:10310000030382EA000083EA010180EA020281EA05
:103110000303362D88BF30BD11F0004F4FEA013157
:103120004FF4801C4CEA113102D0404261EB410166
:1031300013F0004F4FEA03334CEA133302D05242EC
:1031400063EB430394EA050F00F0A780A4F10104A8
:10315000D5F1200E0DDB02FA0EFC22FA05F28018E2
:1031600041F1000103FA0EF2801843FA05F35941C8
:103170000EE0A5F120050EF1200E012A03FA0EFC47
:1031800028BF4CF0020C43FA05F3C01851EBE37171
:1031900001F0004507D54FF0000EDCF1000C7EEB8E
:1031A00000006EEB0101B1F5801F1BD3B1F5001FCC
:1031B0000CD349085FEA30004FEA3C0C04F10104EB
:1031C0004FEA445212F5800F80F09A80BCF1004F14
:1031D00008BF5FEA500C50F1000041EB045141EA96
:1031E000050130BD5FEA4C0C404141EB010111F497
:1031F000801FA4F10104E9D191F0000F04BF014642
:103200000020B1FA81F308BF2033A3F10B03B3F11F
:1032100020020CDA0C3208DD02F1140CC2F10C02AF
:1032200001FA0CF021FA02F10CE002F11402D8BF0D
:10323000C2F1200C01FA02F120FA0CFCDCBF41EAD9
:103240000C019040E41AA2BF01EB0451294330BDA8
:103250006FEA04041F3C1CDA0C340EDC04F1140485
:10326000C4F1200220FA04F001FA02F340EA03005C
:1032700021FA04F345EA030130BDC4F10C04C4F1A2
:10328000200220FA02F001FA04F340EA0300294682
:1032900030BD21FA04F0294630BD94F0000F83F4CC
:1032A000801306BF81F480110134013D4EE77FEAAF
:1032B000645C18BF7FEA655C29D094EA050F08BFFB
:1032C00090EA020F05D054EA000C04BF19461046DC
:1032D00030BD91EA030F1EBF0021002030BD5FEA20
:1032E000545C05D14000494128BF41F0004130BD48
:1032F00014F580043CBF01F5801130BD01F000459C
:1033000045F0FE4141F470014FF0000030BD7FEA0E
:10331000645C1ABF194610467FEA655C1CBF0B4609
:10332000024650EA013406BF52EA033591EA030F20
:1033300041F4002130BD00BF90F0000F04BF002118
:10334000704730B54FF4806404F132044FF000054B
:103350004FF0000150E700BF90F0000F04BF0021C4
:10336000704730B54FF4806404F1320410F000452A
:1033700048BF40424FF000013EE700BF42004FEA25
:10338000E2014FEA31014FEA02701FBF12F07F43A2
:1033900093F07F4F81F06051704792F0000F14BF9F
:1033A00093F07F4F704730B54FF4607401F00045E3
:1033B00021F0004120E700BF50EA010208BF70473A
:1033C00030B54FF000050AE050EA010208BF70472F
:1033D00030B511F0004502D5404261EB41014FF498
:1033E000806404F132045FEA915C3FF4DCAE4FF09C
:1033F00003025FEADC0C18BF03325FEADC0C18BF83
:10340000033202EBDC02C2F1200300FA03FC20FAD3
:1034100002F001FA03FE40EA0E0021FA02F1144420
:10342000C1E600BF70B54FF0FF0C4CF4E06C1CEA35
:1034300011541DBF1CEA135594EA0C0F95EA0C0FAA
:1034400000F0DEF82C4481EA030621EA4C5123EA1D
:103450004C5350EA013518BF52EA033541F480114C
:1034600043F4801338D0A0FB02CE4FF00005E1FBFF
:1034700002E506F00042E0FB03E54FF00006E1FB49
:1034800003569CF0000F18BF4EF0010EA4F1FF048C
:10349000B6F5007F64F5407404D25FEA4E0E6D41CC
:1034A00046EB060642EAC62141EA55514FEAC520DD
:1034B00040EA5E504FEACE2EB4F1FD0C88BFBCF559
:1034C000E06F1ED8BEF1004F08BF5FEA500E50F10A
:1034D000000041EB045170BD06F0004646EA0101D0
:1034E00040EA020081EA0301B4EB5C04C2BFD4EB02
:1034F0000C0541EA045170BD41F480114FF0000EFB
:10350000013C00F3AB8014F1360FDEBF002001F068
:10351000004170BDC4F10004203C35DA0C341BDCE2
:1035200004F11404C4F1200500FA05F320FA04F0B4
:1035300001FA05F240EA020001F0004221F00041E8
:1035400010EBD37021FA04F642EB06015EEA430E5B
:1035500008BF20EAD37070BDC4F10C04C4F120058B
:1035600000FA04F320FA05F001FA04F240EA02003E
:1035700001F0004110EBD37041F100015EEA430E0F
:1035800008BF20EAD37070BDC4F1200500FA05F22F
:103590004EEA020E20FA04F301FA05F243EA0203AE
:1035A00021FA04F001F0004121FA04F220EA0200BD
:1035B00000EBD3705EEA430E08BF20EAD37070BD03
:1035C00094F0000F0FD101F00046400041EB0101E3
:1035D00011F4801F08BF013CF7D041EA060195F0C5
:1035E000000F18BF704703F00046520043EB03037F
:1035F00013F4801F08BF013DF7D043EA060370476C
:1036000094EA0C0F0CEA135518BF95EA0C0F0CD076
:1036100050EA410618BF52EA4306D1D181EA0301BC
:1036200001F000414FF0000070BD50EA410606BFB6
:103630001046194652EA430619D094EA0C0F02D1FB
:1036400050EA013613D195EA0C0F05D152EA033640
:103650001CBF104619460AD181EA030101F000415E
:1036600041F0FE4141F470014FF0000070BD41F0A7
:10367000FE4141F4780170BD70B54FF0FF0C4CF481
:10368000E06C1CEA11541DBF1CEA135594EA0C0FA0
:1036900095EA0C0F00F0A7F8A4EB050481EA030EED
:1036A00052EA03354FEA013100F088804FEA0333D4
:1036B0004FF0805545EA131343EA12634FEA0222A2
:1036C00045EA111545EA10654FEA00260EF0004163
:1036D0009D4208BF964244F1FD0404F5407402D2B5
:1036E0005B084FEA3202B61A65EB03055B084FEA46
:1036F00032024FF480104FF4002CB6EB020E75EB43
:10370000030E22BFB61A754640EA0C005B084FEA6A
:103710003202B6EB020E75EB030E22BFB61A7546E7
:1037200040EA5C005B084FEA3202B6EB020E75EB32
:10373000030E22BFB61A754640EA9C005B084FEAAA
:103740003202B6EB020E75EB030E22BFB61A7546B7
:1037500040EADC0055EA060E18D04FEA051545EAA6
:1037600016754FEA06164FEAC30343EA52734FEA4F
:10377000C2025FEA1C1CC0D111F4801F0BD141EAC8
:1037800000014FF000004FF0004CB6E711F4801F2D
:1037900004BF01430020B4F1FD0C88BFBCF5E06F0D
:1037A0003FF6AFAEB5EB030C04BFB6EB020C5FEA1D
:1037B000500C50F1000041EB045170BD0EF0004E72
:1037C0004EEA113114EB5C04C2BFD4EB0C0541EAA4
:1037D000045170BD41F480114FF0000E013C90E6A1
:1037E00045EA060E8DE60CEA135594EA0C0F08BF65
:1037F00095EA0C0F3FF43BAF94EA0C0F0AD150EA64
:1038000001347FF434AF95EA0C0F7FF425AF1046F6
:1038100019462CE795EA0C0F06D152EA03353FF41E
:10382000FDAE1046194622E750EA410618BF52EA9B
:1038300043067FF4C5AE50EA41047FF40DAF52EA6F
:1038400043057FF4EBAE12E74FF0FF3C06E000BF0C
:103850004FF0010C02E000BF4FF0010C4DF804CD19
:103860004FEA410C7FEA6C5C4FEA430C18BF7FEAD9
:103870006C5C1BD001B050EA410C0CBF52EA430C07
:1038800091EA030F02BF90EA020F0020704710F187
:10389000000F91EA030F58BF994208BF90422CBF16
:1038A000D8176FEAE37040F0010070474FEA410C0F
:1038B0007FEA6C5C02D150EA013C07D14FEA430C2D
:1038C0007FEA6C5CD6D152EA033CD3D05DF8040B9E
:1038D000704700BF8446104662468C4619466346D0
:1038E00000E000BF01B5FFF7B7FF002848BF10F1A7
:1038F000000F01BD4DF808EDFFF7F4FF0CBF0120EC
:1039000000205DF808FB00BF4DF808EDFFF7EAFF67
:1039100034BF012000205DF808FB00BF4DF808ED22
:10392000FFF7E0FF94BF012000205DF808FB00BF17
:103930004DF808EDFFF7CEFF94BF012000205DF8A1
:1039400008FB00BF4DF808EDFFF7C4FF34BF0120AE
:1039500000205DF808FB00BF4A0011D212F50012EA
:1039600011D20DD56FF47873B3EB62520ED44FEAD7
:10397000C12343F0004343EA505323FA02F0704757
:103980004FF00000704750EA013002D14FF0FF3095
:1039900070474FF00000704708B50021044600F062
:1039A000D5F8044B1868C36B03B198472046FEF75F
:1039B000C3FA00BF10520800844641EA000313F026
:1039C000030349D1403A23D30B6803604B6843603B
:1039D0008B688360CB68C3600B6903614B6943618B
:1039E0008B698361CB69C3610B6A03624B6A436273
:1039F0008B6A8362CB6AC3620B6B03634B6B43635B
:103A00008B6B8363CB6BC36340304031403ADBD276
:103A100030320BD30B6803604B6843608B68836064
:103A2000CB68C36010301031103AF3D20C3205D39A
:103A300051F8043B40F8043B043AF9D2043208D070
:103A4000D2071CBF11F8013B00F8013B01D30B88E2
:103A500003806046704700BF082A13D38B07B1D09C
:103A600010F00303AED0C3F10403D21ADB071CBF6E
:103A700011F8013B00F8013BA4D331F8023B20F8D8
:103A8000023B9FE7043AD9D3013A11F8013B00F811
:103A9000013BF9D20B7803704B7843708B788370BD
:103AA00060467047F0B4840743D0541E002A3ED0CD
:103AB000CDB2034603E0621E002C38D0144603F852
:103AC000015B9A07F7D1032C2AD9CDB245EA052527
:103AD0000F2C45EA054515D9A4F110073F0903F15C
:103AE000100606EB07161A46156055609560D560FE
:103AF0001032B242F8D104F00F040137032C03EB6B
:103B000007130DD91E462246043A032A46F8045BE1
:103B1000FAD8221F22F003020432134404F00304F3
:103B20002CB1C9B21C4403F8011BA342FBD1F0BC69
:103B3000704714460346C6E7024B13B1024800F033
:103B40007DB8704700000000493C08002DE9F04FA7
:103B5000384B85B01B68029003F5A47201930F46A1
:103B60000392019BD3F84881B8F1000F1CD0DDF817
:103B70000CB04FF00109DA46D8F804305C1E11D4BD
:103B800008F188059E1C05EB830508EB860677B1D6
:103B9000EB6FBB420BD0013C631CA5F10405A6F101
:103BA0000406F4D1244A7ABB05B0BDE8F08FD8F8FA
:103BB000042056F8043C013AA24216BF0022C8F87D
:103BC000044046F8042C002BE5D009FA04F2D8F89A
:103BD0008811D8F804B00A4210D0D8F88C110A42E3
:103BE0000ED1029855F8041C9847D8F804305B456C
:103BF000B7D1DAF800304345CDD0B2E79847F4E7C3
:103C000055F8040C9847F0E7D8F804306BB9D8F8A9
:103C1000003063B14046CAF80030AFF30080DAF8F4
:103C20000080B8F1000FA7D1BEE7D8F80030C24637
:103C30009846F6E7105208000000000001460020F8
:103C40000246034600F018B838B5094D094C641B0C
:103C5000A41018BF05EB840505D0013C55F8043DC0
:103C60009847002CF9D1BDE8384001F0DDBA00BF1B
:103C70003452080038520800F0B5274C85B0266849
:103C80000746D6F84841002C40D065681F2D1EDD40
:103C9000224818B94FF0FF3005B0F0BD4FF4C8709E
:103CA000039102920193AFF3008003990446029AB4
:103CB000019B0028EED0D6F84851002025606060B6
:103CC0000546C6F84841C4F88801C4F88C013FB9DC
:103CD0006B1C00200235636044F8251005B0F0BD70
:103CE0000126AE4004EB8500C0F88820D4F8882176
:103CF000022F42EA0602C4F88821C0F80831E7D151
:103D0000D4F88C311E43C4F88C61E1E706F5A67443
:103D1000C6F84841B9E700BF105208000000000093
:103D200007050202000280000524010001000000D6
:103D3000090400000102020000000000120100025C
:103D4000EF02014041233780000100000001000024
:103D50000524000110000000070581031000400049
:103D6000042402060705830200028000080B0002FB
:103D70000202010005240600010000000904010000
:103D8000020A00000000000009024B00020100804E
:103D9000FA000000A44100A084500000A64100A049
:103DA0000652BD41A641B402265200F4A641F87F56
:103DB0004652BD33A641CE02665200F4A641000031
:103DC00086520000A64100A0A652A841A6411502B5
:103DD000C6520831A6410000E652C845A641000C73
:103DE000C6530000A641FEFFE653E040242300D066
:103DF000A641030006526530A641998D2652B5258D
:103E0000A641B4254652450CA641AA416652306FE0
:103E1000A641C06D865220FFA641CAFCA652680684
:103E2000A641B26DC6520000A64140C0E65226012E
:103E3000A6414080C6530601A6412319E653E12757
:103E4000242328D0A64103190652FBFFA641E318FC
:103E50002652FCFFA64183B44652FDFFA641C3187B
:103E60006652F0FFA641BF458652FEFFA64100A064
:103E7000A652A241A6416408C6524230A6413D2343
:103E8000E652D94EA641A409C65328D2A641A70896
:103E9000E653250A242350D0A64100C006526300F1
:103EA000A641008026528400A641CB444652DC4401
:103EB000A641260B6652AC09A6410800865242165E
:103EC000A6411002A6527DF8A641C217C652AD09FE
:103ED000A6412A08E6520900A6410B00C653621605
:103EE000A6411402E6537DF8242378D0A64142145B
:103EF0000652AE09A641602726520F00A641096E60
:103F00004652CE44A64100016652A030A64100A010
:103F10008652B441A6411802A6527DF8A64114006B
:103F2000C65200F4A6411C02E6525DF8A6416C0C94
:103F3000C6539430A64100F4E653B10C2423A0D01C
:103F4000A641DD300652FA02A641068D2652100027
:103F5000A64100804652DE03A641285266523D2308
:103F6000A641294D86529F45A64100C0A652520245
:103F7000A6419092C6525E02A641909AE652720203
:103F8000A6418050C6530024A641896EE653FFFF28
:103F90002423C8D0A6410404065200F4A64100011F
:103FA0002652C030A641909A46521302A64153B001
:103FB0006652420EA64102B486520101A64160300B
:103FC000A6528200A641C032C6520001A641A00EF0
:103FD000E6520001A6416C0CC653D433A641010041
:103FE000E65315722423F0D0A6410040065270011A
:103FF000A64162012652096DA641970C465250B95E
:10400000A6411400665200F4A64100018652A03079
:10401000A6412003A65200F4A6419022C6521E00DB
:10402000A6411501E6524FADA641896DC653004029
:10403000A6415041E6530301242318D1A64150293B
:104040000652D102A641000126524831A641480C31
:10405000465204CCA641100066524295A641020188
:1040600086529E0CA641D605A652D019A64163FCE5
:10407000C652A06BA6416794E65200FFA641226D8E
:10408000C653F5FFA64110FCE6534030242340D12F
:10409000A641285206523D23A641294D26529F454E
:1040A000A641FA02465200F4A64190326652170029
:1040B000A641ACFF865202B4A641B70CA652920CA0
:1040C000A6410404C65200F4A6410001E652C030E5
:1040D000A6410001C653D632A6417602E653420EEF
:1040E000242368D1A641760C06529013A641BEFF48
:1040F000265202B4A64194304652B00EA64100F4B6
:1041000066526C0CA6417DF886522003A64102B48B
:10411000A6522002A6417DFCC65295FFA641096D1C
:10412000E6522002A6410404C6530024A64100FF23
:10413000E6533132242390D1A641B0300652B20466
:10414000A64105CC26520001A641A2944652500C2D
:10415000A6417DFC66520C00A641850586521402DC
:10416000A641206AA6529605A6416494C652B0693B
:10417000A641226DE652F6FFA6414030C653C7CF96
:10418000A641E302E65310FC2423B8D1A6417DFCEE
:1041900006520080A641A30226521002A6417DFCD1
:1041A000465200C0A641B70266521C02A6417500E5
:1041B000865290AAA6417DFCA65290B2A641302517
:1041C000C6521802A64190B2E6525600A64105001A
:1041D000C65356B6A64166CFE653000C2423E0D161
:1041E000A641C7CF0652400CA64162CF2652000E10
:1041F000A64111FC46524030A64180BF6652A24102
:10420000A641703686528230A641C0E9A652600CA3
:10421000A64199AAC652A341A6415566E65263300B
:10422000A641A341C653C0E9A6416350E653665573
:10423000242308D2A641C0E90652AA99A64101004A
:104240002652A341A641A02646528230A6418000B4
:1042500066526330A64180308652C0E9A641623082
:10426000A6520001A64130EAC6528026A64142303D
:10427000E65201EEA64120EAC6538826A641212D2A
:10428000E6533069242330D2A641FCFF0652A240F7
:10429000A641A3412652E54FA6416330465280BF56
:1042A000A6413D2366527036A64130E9865210D0B1
:1042B000A6413A03A65200F4A64100A0C652B4415A
:1042C000A64100A0E652A241A64100A0C653A541C6
:1042D000A6416408E653D433242358D2A6416C0C7B
:1042E00006528230A6416003265200F4A6415808C7
:1042F0004652A530A64100A06652B241A6413E0EEC
:104300008652740EA641910CA6521E0EA6411400B0
:10431000C65200F4A6410400E652A030A6410200B5
:10432000C6537E14A6410300E6535E14242380D2B4
:10433000A64143000652B025A6415590265290AAA8
:10434000A641029446520104A641403066529900AB
:10435000A641B5308652EA00A64100F4A6520200FA
:10436000A6419230C6521400A641D530E6526808E4
:10437000A6410C05C6530400A6411502E653200AC7
:104380002423A8D2A641350906525019A641C025BA
:104390002652B00CA641FFFF46528050A6410404AD
:1043A000665200F4A64190AA86524300A64110012D
:1043B000A65255B4A6415314C65203EEA641910924
:1043C000E6526408A641D344C6532025A6410C01F9
:1043D000E65382942423D0D2A64162900652000C68
:1043E000A641039426520400A64181ED4652A00046
:1043F000A641F10066526294A64162B4865282EDF3
:10440000A64115EDA652B300A641950BC652140A5B
:10441000A6419909E6521809A6415115C653970AB3
:10442000A6411B0BE65306002423F8D2A6410A003E
:1044300006523115A64100802652E700A6410080B1
:1044400046526300A64100C066528400A64100C0E7
:1044500086524200A641D344A652E744A641F24404
:10446000C652EC44A6410040E652EA00A641004094
:10447000C6536900A64100A0E653A241242320D3DD
:10448000A6416C0C06528230A64100F42652EF443D
:10449000A64166004652BE03A641024066529032D3
:1044A000A641820086528500A641C232A652808073
:1044B000A6412201C6520400A641E230E6528040E5
:1044C000A6418050C6530900A641B00CE653FFFF39
:1044D000242348D3A6413E190652D60CA6415E18A5
:1044E00026520200A64100F446520300A641A7024C
:1044F00066520404A641212686524010A641501956
:10450000A652DE02A6411594C652308AA6413189D0
:10451000E65284FFA6410010C653F500A641FE00F6
:10452000E653500C242370D3A641A94106525039BA
:10453000A641A009265220FFA641230B4652A10AFC
:10454000A64163006652220AA641A500865200C019
:10455000A641DD44A6520080A6414026C652DE4454
:10456000A641226DE652DC44A6410000C65369F81C
:10457000A641EFFFE653E2B4242398D3A64100F40A
:104580000652910CA641A03026521400A6417E147A
:1045900046520400A6415E1466520200A641B025B0
:1045A00086520300A64190AAA6524300A6410104E8
:1045B000C6525590A6416FFFE65202B4A6410200D2
:1045C000C653B530A641EA00E65340302423C0D399
:1045D000A641FF000652C030A641FF00265280309F
:1045E000A641FF004652A030A641B7416652FFEDFA
:1045F000A641DE18865200A0A6415E18A65206000B
:10460000A6417418C6520700A6417E18E6526408F7
:10461000A641BE18C6530100A6419E18E6530400E9
:104620002423E8D3A641A03206520500A641C03299
:1046300026520300A641F73246520900A64108EF70
:1046400066526C08A6418050865204EDA641B00C1B
:10465000A652FFFFA6410200C6521E18A64104043E
:10466000E65200F4A6410300C6535E18A641DE02DE
:10467000E6532126242310D4A64197180652501938
:10468000A641A8CF26520000A64184ED46523089AB
:10469000A641190066526294A64162B48652EAEDC0
:1046A000A64115EDA6521300A6413200C65200F4F1
:1046B000A6410000E6520000A64183FFC6534240D7
:1046C000A6410400E653C232242338D4A641808098
:1046D00006528200A64180402652C200A64140C038
:1046E0004652A200A6416D2F66524D2EA6412D2D99
:1046F0008652C1CFA641C030A652BBCFA641980971
:10470000C652FC00A641140BE652990AA641511567
:10471000C653950BA6411A09E6530B00242360D417
:10472000A64100800652A500A64107002652311579
:10473000A64163004652160AA641E700665200C031
:10474000A641DD4486520080A64100C0A652C600A4
:10475000A6412025C652F744A641901AE6524301CD
:10476000A64190AAC6534300A641904AE6532601AB
:10477000242388D4A641A24106524026A64189009E
:10478000265200A0A6418230465290B2A641A241D4
:1047900066526C0CA641B60C865200A0A641700869
:1047A000A652C230A6416603C65200F4A641903A12
:1047B000E6521500A64141FFC65355B4A64100A0DC
:1047C000E653A4412423B0D4A64170080652843095
:1047D000A64100F42652B60CA64115004652E2024C
:1047E000A641A24066529032A641B74186520B00C4
:1047F000A641A032A65200A0A641C032C652020075
:10480000A641F732E6520500A64104EFC6536808F8
:10481000A641400CE65392CF2423D8D4A64174CFAE
:10482000065210EDA641FC002652C030A64170CFC2
:10483000465211EDA641FC006652C030A641990BCC
:104840008652180BA641950AA6529409A641511505
:10485000C6521B09A641E700E6520A00A6413115DF
:10486000C6530080A641160AE6530700242300D54C
:10487000A64100C00652C600A64100802652A500EF
:10488000A64163004652F744A641DD44665200C08B
:10489000A641EA008652D644A6412301A652004012
:1048A000A641D744C652902AA6410294E652C0259A
:1048B000A641DD44C6530AFFA64100A0E653A44129
:1048C000242328D5A641680806528430A641B00AA0
:1048D00026523407A641B06D4652406EA641FBFFFA
:1048E0006652C3B4A641FFFF8652A418A641F7FE44
:1048F000A652E040A64100A0C652A641A64100A093
:10490000E652A541A6415808C653C630A6416408E0
:10491000E653A530242350D5A64145000652EB06A8
:10492000A6410C8D26528010A64100A04652A741F8
:10493000A641E7306652400CA641AE0586525808A3
:10494000A641AC05A652306AA641A2B4C652226D59
:10495000A64130EAE652FAFFA641000CC653BF4515
:10496000A64100A0E653A541242378D5A64100A086
:104970000652A441A64164082652A530A641740CF3
:1049800046528430A641640066525906A641868D7F
:1049900086528010A641AA05A652400CA64182B4B8
:1049A000C652226DA64130E8E652FCFFA641000C3B
:1049B000C653BF45A6416A07E6530DCC2423A0D5B4
:1049C000A641441C0652D06EA641651C2652FFFF2C
:1049D000A64162004652FFFFA64189AF6652503B96
:1049E000A641501386524300A6410700A652A2409A
:1049F000A641F2FFC652C5B4A6419F45E652406E9D
:104A0000A6419F45C653400CA6419F45E6537FED06
:104A10002423C8D5A641000C065201EDA64180BF53
:104A20002652A241A641502946526230A641A341D6
:104A30006652B0EAA64163508652FF1FA641B344B6
:104A4000A652FFFFA6418029C6526230A6416030BF
:104A5000E65230EBA6418230C6530340A641C0E97E
:104A6000E65330292423F0D5A64199AA0652A34142
:104A7000A641402926528230A641556646526330EF
:104A8000A641A3416652C0E9A641635086526655CD
:104A9000A641C0E9A652AA99A6410080C65260501C
:104AA000A6413829E6524230A6419F45C653A0E9A7
:104AB000A641000CE653400C242318D6A64180BF23
:104AC0000652A241A641302926524230A641BE2DAF
:104AD0004652A069A641A4416652FDADA6414430AC
:104AE000865280BFA6412069A6523029A6410040C7
:104AF000C652A030A6413429E652C430A6418430C3
:104B0000C653E0EAA641C0E9E6534029242340D633
:104B1000A641009006524200A641420026529F45FF
:104B2000A641000C465280F8A64100A06652A3415F
:104B3000A641700C8652431CA6418294A65201EEF7
:104B4000A641000CC6521D00A641700CE652831807
:104B5000A64180BFC653A241A64199AAE653A441EB
:104B6000242368D6A641402906526230A6415566E4
:104B700026528430A641A441465230EAA6418450D0
:104B800066526655A64130EA8652AA99A64100802F
:104B9000A6528050A641A829C652A230A641803014
:104BA000E65250EAA6414230C6530007A64120EA29
:104BB000E653A429242390D6A64130E90652400C9E
:104BC000A641400C26529F45A64103804652A46050
:104BD000A64100906652A460A641400C86529F45B3
:104BE000A6415500A6520794A641AB41C652470CB8
:104BF000A641F94FE65280BFA64199AAC653AD41DE
:104C0000A6416655E653AC412423B8D6A6413029C7
:104C100006528B30A64104D026527D20A641402961
:104C200046524B31A641502966524B32A64160296B
:104C300086522B32A6417029A6520B32A641382942
:104C4000C6522B33A6416B31E652060DA641EB0648
:104C5000C6533429A6410240E65300332423E0D64C
:104C6000A64155660652AD31A641AA9926528C51ED
:104C7000A64100804652E051A64100406652C03134
:104C8000A64150198652A800A6410000A65272F80B
:104C9000A6410000C65268FCA6410831E65290E9E0
:104CA000A64168FCC6530800A64180E9E653FCFF14
:104CB000242308D7A6410000065204FBA6410000A9
:104CC0002652AAF9A641000046528AF9A6410000E0
:104CD0006652F9F9A641BE2D8652C069A641FCFF75
:104CE000A652A340A6410000C65224FDA6410000E2
:104CF000E652CBF9A6410000C6536AF8A64100204F
:104D0000E65329D1242330D7A64104000652099442
:104D1000A641D0192652C800A64110FC4652403088
:104D2000A641901B6652E300A64104008652E34070
:104D3000A641D6FFA6524794A6415019C652A800D4
:104D4000A6410450E6527D20A641BF45C653044704
:104D5000A6414030E6536E6F242358D7A641A600E3
:104D6000065200F8A6414F0026525079A641AA44A7
:104D70004652507AA64190136652AF00A641A74111
:104D8000865238ADA641A941A65280BFA641A8418E
:104D9000C65299AAA641C731E6526655A641673068
:104DA000C6535029A641C730E6533029242380D763
:104DB000A641A73106524029A64180312652382902
:104DC000A641E73046520440A641293166523429B3
:104DD000A641085186525566A6416051A652AA992D
:104DE000A6414031C6520080A641AEF8E6520040CE
:104DF000A64183F9C6530000A64126F9E6530000F8
:104E00002423A8D7A64106F906520000A6416DF951
:104E100026520000A641306946520000A641A24039
:104E200066522E2DA641306A8652FCFFA641000034
:104E3000A65247F9A64184D0C65260E9A641058E24
:104E4000E6520020A6410008C653A530A6414030D6
:104E5000E6539F452423D0D7A641AF0006520FFC4E
:104E6000A641E240E65390132422F8D7A44100A0C3
:104E700084500008A6419F450652E2FFA641000C5F
:104E80002652400CA641C12746524F2EA6414D2E18
:104E90006652158FA641051586526A07A641D06E47
:104EA000A6520000A641103BC6520701A6415F442E
:104EB000E652F925A6414018C6530301A641103B0E
:104EC000E6530401242300D0A6413A260652382591
:104ED000A641634426527A44A641C5B44652FD2FEA
:104EE000A6414D2E6652EEFFA6414A058652F02697
:104EF000A6412F2DA6529F45A6410300C652000091
:104F0000A6410001E6520101A6410000E65300005F
:104F1000042328D0B94100A03953010019003C0FE7
:104F2000302E392E300000002F647269766572735E
:104F30002F756172742F72785F6368616E6E656C35
:104F40005F6F766572666C6F770000002F64726920
:104F5000766572732F756172742F72785F657272E5
:104F60006F72730000002110422063308440A5500E
:104F7000C660E770088129914AA16BB18CC1ADD19F
:104F8000CEE1EFF13112100273325222B552944247
:104F9000F772D662399318837BB35AA3BDD39CC3EF
:104FA000FFF3DEE36224433420040114E664C77493
:104FB000A44485546AA54BB528850995EEE5CFF53F
:104FC000ACC58DD55336722611163006D776F666E7
:104FD0009556B4465BB77AA719973887DFF7FEE78F
:104FE0009DD7BCC7C448E5588668A77840086118B3
:104FF00002282338CCC9EDD98EE9AFF948896999DF
:105000000AA92BB9F55AD44AB77A966A711A500A86
:10501000333A122AFDDBDCCBBFFB9EEB799B588B2E
:105020003BBB1AABA66C877CE44CC55C222C033CD2
:10503000600C411CAEED8FFDECCDCDDD2AAD0BBD7E
:10504000688D499D977EB66ED55EF44E133E322E26
:10505000511E700E9FFFBEEFDDDFFCCF1BBF3AAFCE
:10506000599F788F8891A981CAB1EBA10CD12DC12C
:105070004EF16FE18010A100C230E32004502540C2
:1050800046706760B9839893FBA3DAB33DC31CD322
:105090007FE35EF3B1029012F322D2323542145212
:1050A00077625672EAB5CBA5A89589856EF54FE56E
:1050B0002CD50DC5E234C324A01481046674476462
:1050C00024540544DBA7FAB79987B8975FE77EF7C2
:1050D0001DC73CD7D326F2369106B01657667676B2
:1050E000154634564CD96DC90EF92FE9C899E9898E
:1050F0008AB9ABA94458654806782768C018E10802
:105100008238A3287DCB5CDB3FEB1EFBF98BD89B61
:10511000BBAB9ABB754A545A376A167AF10AD01A51
:10512000B32A923A2EFD0FED6CDD4DCDAABD8BADAD
:10513000E89DC98D267C076C645C454CA23C832CA1
:10514000E01CC10C1FEF3EFF5DCF7CDF9BAFBABF01
:10515000D98FF89F176E367E554E745E932EB23EF1
:10516000D10EF01E6D61696E0000000069646C650F
:10517000000000002F0000004357440025732573F2
:10518000257300002530386C782530386C780D0A8E
:10519000000000000D0A000025733A20636F6D6D5A
:1051A000616E64206E6F7420666F756E640D0A0008
:1051B00025730D0A00000000256400002528080062
:1051C0002D280800312808003528080000000000BC
:1051D0002D28080000000000000000000000000072
:1051E000286E756C6C29000027000000202020002C
:1051F00025630000090A0B0C0D20000025303878CB
:105200003A200000253032782000000043000000E2
:10521000A8040720F8B500BFF8BC08BC9E4670473C
:10522000393B080019010800F8B500BFF8BC08BCFC
:085230009E467047F5000800DE
:105300003C3D0800883D08006C3D0800303D080029
:10531000503D0800603D0800743D0800283D08002D
:10532000583D08007C3D0800203D0800643D080011
:10533000000000000000000000080E40000E0E40BB
:1053400000010000000E0E400002000008000000F6
:10535000000000000000800940000E0E4000040024
:1053600000000E0E400008000011000000000000C8
:10537000000000C00940000E0E4000100000000EAA
:105380000E4000200000120000000000000000009D
:10539000000A4000100E400000200000100E4000E7
:1053A00000400013000000000000000000C00A40A0
:1053B00028000000000000000000000000000000C5
:1053C00000000000000000000000000000000000DD
:1053D00000000000000000000000000000000000CD
:1053E00000000000000000000000000000000000BD
:1053F00000000000000000000000000000000000AD
:10540000000000000000000000000000000000009C
:10541000000000000000000000000000000000008C
:10542000000000000000000000000000000E0E4020
:1054300001000000000E0E4002000000000E0E40B1
:1054400004000000000E0E4008000000000E0E4098
:1054500010000000000E0E4020000000000E0E4064
:1054600040000000000E0E4080000000000E0E40C4
:1054700000010000000E0E4000020000000E0E4071
:1054800000040000000E0E4000080000000E0E4058
:1054900000100000000E0E4000200000000E0E4024
:1054A00000400000000E0E4000800000000E0E4084
:1054B00000000100000E0E4000000200000E0E4031
:1054C00000000400000E0E4000000800000E0E4018
:1054D00000001000000E0E4000002000000E0E40E4
:1054E00000004000000E0E4000008000000E0E4044
:1054F00000000001000E0E4000000002000E0E40F1
:1055000000000004000E0E4000000008000E0E40D7
:1055100000000010000E0E400000002000100E40A1
:105520000100000000100E400200000000100E40BC
:105530000400000000100E400800000000100E40A3
:105540001000000000100E402000000000100E406F
:105550004000000000100E408000000000100E40CF
:105560000001000000100E400002000000100E407C
:105570000004000000100E400008000000100E4063
:105580000010000000100E400020000000100E402F
:105590000040000000100E400080000000100E408F
:1055A0000000010000100E400000020000100E403C
:1055B0000000040000100E400000080000100E4023
:1055C0000000100000100E400000200000100E40EF
:1055D0000000400000100E400000800000100E404F
:1055E0000000000100100E400000000200100E40FC
:1055F0000000000400100E400000000800100E40E3
:105600000000001000100E400000002000100E40AE
:105610000000004000100E400000008000120E400C
:105620000100000000120E400200000000120E40B7
:105630000400000000120E400800000000120E409E
:105640001000000000120E402000000000120E406A
:105650004000000000120E408000000000120E40CA
:105660000001000000120E400002000000120E4077
:105670000004000000120E400008000000120E405E
:105680000010000000120E400020000000120E402A
:105690000040000000120E400080000000120E408A
:1056A0000000010000120E400000020000120E4037
:1056B0000000040000120E400000080000120E401E
:1056C0000000100000120E400000200000120E40EA
:1056D0000000400000120E400000800000120E404A
:1056E0000000000100120E400000000200120E40F7
:1056F0000000000400120E400000000800120E40DE
:105700000000001000120E400000002000120E40A9
:105710000000004000140E400100000000140E4084
:105720000200000000140E400400000000140E40AF
:105730000800000000140E401000000000140E408D
:105740002000000000140E404000000000140E4035
:105750008000000000140E400001000000140E4004
:1057600000020000F51E080000000000000000001C
:105770007404072000000000FFFFFFFF000000008E
:10578000000000000000000000000000900407205E
:1057900000000000FFFFFFFF00000000000000000D
:1057A0000000000000000000000000009407072037
:1057B000FC0707206408072000000000000000002C
:1057C00000000000000000000000000000000000D9
:1057D0000000000000000000000000000C52080063
:1057E00000000000000000000000000000000000B9
:1057F00000000000000000000000000000000000A9
:105800000000000000000000000000000000000098
:105810000000000000000000000000000000000088
:105820000000000000000000000000000000000078
:105830000000000000000000000000000000000068
:105840000000000000000000000000000000000058
:1058500001000000000000000E33CDAB34126DE6F5
:10586000ECDE05000B00000000000000000000005E
:105870000000000000000000000000000000000028
:105880000000000000000000000000000000000018
:105890000000000000000000000000000000000008
:1058A00000000000000000000000000000000000F8
:040000038000000079
:00000001FF
