:0200000280007C
:10000000F87F082025090800B9070800B90708008B
:10001000B9070800B9070800B9070800B9070800C0
:10002000B9070800B9070800B9070800B9070800B0
:10003000B9070800B9070800B907080069180800DF
:10004000BD070800C5070800CD070800D507080050
:10005000DD070800E5070800ED070800F5070800C0
:10006000FD070800050808000D080800150808002D
:100070001D080800250808002D080800350808009C
:100080003D080800450808004D080800550808000C
:100090005D080800650808006D080800750808007C
:1000A0007D080800850808008D08080095080800EC
:1000B0009D080800A5080800AD080800B50808005C
:1000C000BD080800C5080800CD080800D5080800CC
:1000D000DD080800E5080800ED080800F50808003C
:1000E000FD080800050908000D09080015090800A9
:1000F0001D09080010B5054C237833B9044B13B122
:100100000448AFF300800123237010BD18080720B6
:1001100000000000DC54080008B5064B1BB106487F
:100120000649AFF300800648036813B1054B03B1DD
:10013000984708BD00000000DC5408001C08072098
:10014000DC540800000000000028F8B5144C14DB53
:10015000021DA618C0F3072EC3B2451D871DE3700C
:100160000F4984F802E04FF6FF7001F065FB03468B
:10017000020A327063553846F8BDFF230516021295
:1001800001142571A27123706370E071617104F133
:1001900008060A270925082204234FF0000EDEE78F
:1001A0004008072010B582B000BA02AA42F8040D38
:1001B000202305480C4600F0CFFF10B923681BBA76
:1001C000236002B010BD00BF3408072030B587B0EF
:1001D000502306A901F8173D05460522374800F0CF
:1001E00067FF044610B1204607B030BD344B04A869
:1001F0000294039301F0F6FD04A8014602AA01F05F
:100200000BFE03E09A0416D4002CECD101A94FF4A4
:100210004830FFF7C7FF044602A801F0E3FD02A83B
:1002200004A901F007FE0228019BEBD19B0441D4F5
:100230006FF06D04D7E7002CD5D1902306A901F803
:10024000153D1E48052200F033FF0028CCD105F0F3
:10025000AA335B0805F0553543EA450303F0333212
:10026000920003F0CC3342EA930202F00F331B01F9
:1002700002F0F03243EA121303F0FF12120203F00D
:10028000FF2342EA13204FEA304001A9FFF78AFF1B
:100290000028A9D1502306A901F8163D07480522D8
:1002A00000F006FF00289FD101A94FF44030FFF76E
:1002B00079FF99E76FF06D0096E700BF34080720DB
:1002C0000065CD1D2DE9F04F89B001F0EDFAAB4E80
:1002D000DFF8C082354601F05BFBA849042201F03B
:1002E00055FFB478F37843EA0424B4F5806FF2DC68
:1002F00001F04EFBA21CA24901F048FF2B786A785E
:10030000A71D42EA0329B9F1630F13DCD8F80010E6
:10031000002940F0CD806FF06A00FFF715FF82469C
:10032000BAF1000FD7DD01F039FB5246934901F0D5
:1003300031FFD0E7221D2F4417F8013CAC5C4FF68B
:10034000FF708E4943EA042401F076FA844202D019
:100350008C4C2046E1E7A9F16409B9F1050F00F2E0
:100360002282DFE809F09B7D9D592403D8F80030F4
:10037000002B40F0FF808449844801F58C7201F520
:10038000847300F0DFFD814800F040FE20237F48A9
:100390000DF10F0105228DF80F3000F089FE0028C5
:1003A00000F0FA800446794800F0E0FDD1E7D8F883
:1003B0000030002B40F0DE807349744801F58C72E8
:1003C00001F5847300F0BEFD704800F01FFE20238D
:1003D0006E480DF10B0105228DF80B3000F068FE20
:1003E000002800F0C2810446684800F0BFFDE3B277
:1003F00003F0AA02521003F0550342EA430202F04E
:10040000CC039B1002F0330243EA82031A0942EA4A
:100410000313337101249CE7D8F80040002C40F00E
:10042000A980224606A85A4900F08CFB012106A8A3
:1004300000F096FB0A2001F07DFC214606A800F0A2
:100440008FFB0A2001F076FC012106A800F088FB52
:100450000A2001F06FFC06A8032100F08DFB78E76D
:10046000D8F80030002B40F085804749474801F517
:100470008C7201F5847300F065FD444800F0C6FD00
:10048000202742480DF1090105228DF8097000F07E
:100490000FFE002800F0DB8004465AE7002458E7EE
:1004A000D8F800303B4F002B5ED16FF06A0450E764
:1004B00004F109094FEA9909304C4FF0000B04E0B0
:1004C000CB4519D0237962790434E0781B0643EADE
:1004D0000242A178024342EA01212C4800F07CFF4D
:1004E0000BF1010B82460028EAD0874204D0BAF112
:1004F000000FBFF615AF35E0244806A900F082FED4
:1005000070BB069B1A0AD9B25FFA82FA41EA0A2A3C
:10051000F370190EBAF5806F4FEA1343B270317061
:1005200073701DD80AF10509144C07464FEA990962
:10053000164806A9013700F065FE88B9069BB94543
:100540004FEA13614FEA1342E3714FEA132321711B
:100550006271A37104F10404EAD80AF1060AC6E73D
:100560006FF0460A5046D8E60848002400F0FEFC2A
:100570003C60EEE66FF06904EBE600BF4008072040
:100580004408072011FCFFFF2C0207203408072035
:1005900034030720480C0720E02384480DF10E01A6
:1005A00005228DF80E3000F083FD00287FF4FAAEAE
:1005B0003F247E480DF10D0103AA08238DF80C405D
:1005C00000F0CAFD00287FF4EDAE0B2477480DF152
:1005D0000D0103AA08238DF80C4000F0BDFD044670
:1005E00000287FF4E0AE0A2001F0A4FB032306A854
:1005F0000493059401F0F6FB06A8014604AA01F055
:100600000BFC274607E09DF80D30102B3FF4CBAED6
:10061000002C7FF4C8AE0DF10D0103AA0823634836
:100620008DF80C7000F098FD9DF80D30044603F035
:10063000300304A88DF80D3001F0D4FB04A806A9FE
:1006400001F0F8FB0228DED16FF06D04ABE64FF04D
:10065000E009564802A905228DF8089000F028FD0F
:10066000044600287FF475AE504806A904AA082362
:100670008DF8104000F070FD00287FF40DAF9DF85C
:100680001830DB0740F18C808B23484804A90822EE
:100690008DF8103000F0B0FD00287FF4FDAEA023EF
:1006A00042480DF1070105228DF8073000F000FDEA
:1006B00000287FF4F1AE30233C480DF106010522FD
:1006C0008DF8063000F0F4FC00287FF4E5AE3748E2
:1006D0000DF1050105228DF8057000F0E9FC0028F8
:1006E0007FF4DAAE314801A905228DF8049000F0BC
:1006F000DFFC00287FF4D0AE0B232C4804A908228D
:100700008DF8103000F078FD00287FF4C5AEA023EE
:1007100026480DF1030105228DF8033000F0C8FCD6
:10072000044600287FF415AE214FDFF8889057F873
:10073000040FFFF74BFD044600287FF40AAE4F4537
:10074000F5D1FFF743FD044600287FF402AE702385
:1007500016480DF1020105228DF8023000F0A8FCC8
:1007600001230446C8F80030F3E5E0230F480DF1FB
:100770000A0105228DF80A3000F09AFC0446002890
:100780007FF432AE094806A904AA08238DF8104068
:1007900000F0E2FC00287FF426AE9DF8184023E626
:1007A0006FF04604D5E54FF0FF34D2E5340807205A
:1007B000A4350800C8510800FEE700BF08B5FFF7E0
:1007C000FBFF08BD08B5FFF7F7FF08BD08B5FFF749
:1007D000F3FF08BD08B5FFF7EFFF08BD08B5FFF749
:1007E000EBFF08BD08B5FFF7E7FF08BD08B5FFF749
:1007F000E3FF08BD08B5FFF7DFFF08BD08B500F04F
:1008000031FF08BD08B5FFF7D7FF08BD08B5FFF7F2
:10081000D3FF08BD08B5FFF7CFFF08BD08B5FFF748
:10082000CBFF08BD08B5FFF7C7FF08BD08B5FFF748
:10083000C3FF08BD08B5FFF7BFFF08BD08B5FFF748
:10084000BBFF08BD08B500F011FF08BD08B500F0FA
:1008500011FF08BD08B500F011FF08BD08B5FFF78E
:10086000ABFF08BD08B5FFF7A7FF08BD08B5FFF748
:10087000A3FF08BD08B5FFF79FFF08BD08B5FFF748
:100880009BFF08BD08B5FFF797FF08BD08B5FFF748
:1008900093FF08BD08B5FFF78FFF08BD08B5FFF748
:1008A0008BFF08BD08B5FFF787FF08BD08B5FFF748
:1008B00083FF08BD08B5FFF77FFF08BD08B5FFF748
:1008C0007BFF08BD08B5FFF777FF08BD08B5FFF748
:1008D00073FF08BD08B5FFF76FFF08BD08B5FFF748
:1008E0006BFF08BD08B5FFF767FF08BD08B5FFF748
:1008F00063FF08BD08B5FFF75FFF08BD08B5FFF748
:100900005BFF08BD08B5FFF757FF08BD08B5FFF747
:1009100053FF08BD08B5FFF74FFF08BD08B5FFF747
:100920004BFF08BD70B52D4B2D4D2E4C2E482F4939
:1009300040F201424FF400466E6022601D460260A4
:100940001962AA6E254BD607FBD5294A19461A62A9
:100950008A6E224BD503FBD51A6B194622F003028F
:1009600042F001021A638A6E1C4B1407FBD5214A20
:1009700019469A628A6E194B9007FBD511221A63A9
:100980001A46916E154B0907FBD512221A639A6E0F
:100990001207FCD51849194A91420DD0184B9A42BA
:1009A0000AD2D043034423F0030404340023C8587C
:1009B000D0500433A342FAD1124B134A93420AD2C5
:1009C000D9430A4422F0030119440022043B43F8AE
:1009D000042F8B42FBD1FFF775FCFEE700060E40AB
:1009E000501A0E40000A0E40000C0E400908370055
:1009F00009083701013F0D200055080000000720BD
:100A000018080720180807200017072003460020B1
:100A100019605A60187258729872D87218735873A5
:100A20009873D873704700BF2DE9F0410446C06841
:100A3000A36866680138C01A48BF8019904234BF65
:100A400005461546F61A2068AE420F46184408D9E6
:100A50002A4602F0F5FBA36828462B44A360BDE8B4
:100A6000F0813246C6EB050802F0EAFBB9194246AE
:100A7000206802F0E5FBC4F808802846BDE8F08154
:100A8000F8B5C3688768466803F1FF3EBEEB070709
:100A900048BFBF19751EEF1B8C46974234BF3D46B9
:100AA00015460168F61AAE4204461944604607D955
:100AB0002A4602F0C5FBE36828462B44E360F8BDF4
:100AC000324602F0BDFBAF1B30443A46216802F0CB
:100AD000B7FBE7602846F8BDC2688368013A406802
:100AE000D31A48BF1B180138C01A7047024BC3F80D
:100AF00001000020704700BF4C0C0720F0B40F4AE3
:100B000092F90030012B16D00D4B4FF0010C4FF431
:100B100000674FF480564FF400554FF480444FF473
:100B200000404FF4803182F800C01F611E611D61DA
:100B30001C61186119610020F0BC7047FC16072089
:100B400000060E4001600B6822B14A680020596916
:100B50005A6170474A68002019691A61704700BFDE
:100B600003681A685B6819B1116B00201363704742
:100B7000516B00205363704703681A685B6819B1B2
:100B8000516900205361704711690020136170475B
:100B90000368426819B1196B00201A637047596BDA
:100BA00000205A63704700BFF8B5064632684068B7
:100BB000136801684768526800241F25D1F834E0A3
:100BC0004F6300BF00BF196B1A6300BF00BF45FA37
:100BD00004F15F6B01F001015A63FFF7D9FF00BF19
:100BE00000BF326813685268196B1A6300BF00BFF8
:100BF000596B5A63706801684768D1F830C00F6359
:100C000000BF00BFD3F830C01A6300BF00BFD3F8E5
:100C100034C05A6300BF00BFD3F830C01A6300BFAE
:100C200000BF0134052CD3F834C05A63C6D100206C
:100C3000F8BD00BFF8B505462A684068136801682A
:100C40004768526800240126D1F834E04F6300BFA2
:100C500000BF196B1A6300BF00BF596B5A6346FA95
:100C600004F1FFF795FF00BF00BF2A6813685268C0
:100C7000196B1A6300BF00BF596B5A63686801683B
:100C80004768D1F830C00F6300BF00BFD3F830C051
:100C90001A6300BF00BFD3F834C05A6300BF00BF5F
:100CA000D3F830C01A6300BF00BF0134022CD3F860
:100CB00034C05A63C8D10020F8BD00BFF8B507465C
:100CC000FFF7B8FF7B683A6819685E681368526876
:100CD0000725486B4E6300BF00BF186B1A6300BF47
:100CE00000BF586B5A6300BF00BF186B1A6300BF88
:100CF00000BF586B5A6348694E6100BF00BF196B53
:100D00001A6300BF00BF0020596B5A6301F0A2F8BC
:100D1000786801684668CC6B0B690E6100BF00BF44
:100D20003A6813685268D3F830C01A6300BF00BF36
:100D30003440D3F834C05A6339D1D1F834E04E632B
:100D400000BF00BF196B1A6300BF00BF45FA04F172
:100D50005E6B01F001015A63FFF71AFF00BF00BF8D
:100D60003A6813685268196B1A6300BF00BF596B69
:100D70005A63786801684668D1F830E00E6300BFB6
:100D800000BFD3F830E01A6300BF00BFD3F834E0EF
:100D90005A6300BF00BFD3F830E01A6300BF00BF42
:100DA0000134042CD3F834E05A63C6D191E7F8BD7E
:100DB0002DE9F04F85B0894605469046029349B12A
:100DC000DA1D0846D208002102F0B0FA0E99CB01D4
:100DD00089F80030029B002B70D0686803F1FF3B5C
:100DE00001241FE0D36B19F80C200B420CBF002329
:100DF000012303FA0AF3134309F80C3068682E68DC
:100E000002683368416876681769116100BF00BFE6
:100E10001A6B1E6300BF00BF5A6B029A0134724501
:100E20005E634FD96142671E01F00701FB08B8F10C
:100E3000000F41D018F8033043FA01F101F001012D
:100E4000FFF7A6FE00BF00BF2A6813685268196B3F
:100E50001A6300BF00BF596B5A63B7EB0B035942CB
:100E600068685941FFF794FE00BF00BF2A68136805
:100E700056681A6B1E6300BF00BF5A6B5E6300BFEB
:100E800000BF1A6B1E6300BF00BFE24302F0070AF7
:100E90005A6B5E634FEAD40C6868A646B9F1000F3E
:100EA000B4D0416802680191516901995F4551616F
:100EB00098D10199A646A7E74146C1E72A68686824
:100EC000136856680268416800240127D2F834E0AC
:100ED000516300BF00BF1A6B1E6300BF00BF5A6B97
:100EE00047FA04F15E63FFF753FE00BF00BF2A68B4
:100EF000136856681A6B1E6300BF00BF5A6B5E63AF
:100F0000686802684168D2F830C0116300BF00BF52
:100F1000D3F830C01E6300BF00BFD3F834C05E6397
:100F200000BF00BFD3F830C01E6300BF00BF013454
:100F3000022CD3F834C05E63C8D1002005B0BDE8F0
:100F4000F08F00BF30B40160836042604C68086875
:100F5000116845694461526848694A615A681B686A
:100F6000002059695A6130BC704700BF10B5044673
:100F7000FFF71AFE226800201368526859695A6107
:100F800062681368526859695A61A26813685268A6
:100F900059695A6110BD00BF38B50446FFF704FE19
:100FA000606803684268596B5A6300BF00BF2268DB
:100FB00013685268196B1A6300BF00BF00215D6B94
:100FC0005A63FFF7E5FD00BF00BF2268136852684F
:100FD000196B1A6300BF00BF596B5A6360680168E0
:100FE00040680C6B086300BF00BF196B1A6300BF39
:100FF00000BF596B5A6300BF00BF196B1A6300BF73
:1010000000BF0020596B5A6338BD00BF70B502683D
:1010100005461368526819691A61596B5A636A6800
:1010200001201368526819691A61596B5A63AA68DA
:101030001E4E1368526819691A61596B5A63596BCD
:101040005A6300F007FFAA68FB2013685268196B07
:101050001A6300F0FFFEAA681F2413685268596BD8
:101060005A6346FA04F1686801F00101FFF790FD48
:1010700000BF00BF2A6813685268196B1A6300BF6B
:1010800000BF013C596B5A63631CEAD1012000F098
:10109000E1FEAA68012013685268196B1A6300F018
:1010A000D9FE2846BDE87040FFF776BF5048434D53
:1010B0002DE9F0478246DAF8005040682C68036852
:1010C000D0F804E06D6882B0894690460026032778
:1010D0005A6BC3F834E000BF00BF236B256300BF29
:1010E00000BF47FA06F1636B01F001016563FFF78A
:1010F0004FFD00BF00BFDAF800301C685D68236B4D
:10110000256300BF00BF636B6563DAF80400036802
:101110004268196B1A6300BF00BF216B256300BFD3
:1011200000BF616B656300BF00BF216B256300BF1B
:1011300000BF0136042E616B4FF00001656301D0E2
:101140009646C5E7009150464A464346FFF730FEB3
:1011500002B0BDE8F08700BF2DE9F043064683B03A
:1011600090461F468946FFF765FD736818685B68FF
:10117000426B436300BF00BF326814685568226B3E
:10118000256300BF00BF626B656300BF00BF226BB9
:10119000256300BF00BF626B65634269436100BFA6
:1011A00000BF236B256300BF00BF0020636B656336
:1011B00000F050FE736818685B68C16B02690361D8
:1011C00000BF00BF326814685568226B256300BFFA
:1011D00000BF0B420CBF4FF0000E4FF0010E636BCF
:1011E00030466563494642463B46CDF800E0FFF78E
:1011F000DFFD03B0BDE8F08313460A460021FFF788
:10120000ABBF00BF2DE9F04180460F46FFF756FD0A
:10121000D8F80430196858684B6B486300BF00BFAA
:10122000D8F80020136852681C6B1A6300BF00BF17
:101230005C6B5A6300BF00BF1C6B1A6300BF00BF2A
:101240005C6B5A634C69486100BF00BF196B1A633D
:1012500000BF00BF0020596B5A6300F0FBFDD8F8B7
:10126000040004684168E56B2369216100BF00BF89
:10127000D8F800E0DEF80030DEF804201E6B1A63B8
:1012800000BF00BF29420CBF002101215D6B5A63E2
:101290003960DEF804204668012500BF00BF196BE5
:1012A0001A6300BF00BF596B5A6300BF00BF196BC0
:1012B0001A6300BF00BF596B5A6300BF00BF196BB0
:1012C0001A6300BF00BF596B5A636269666100BF51
:1012D00000BF00BFE16B3A680E420CBF0021012144
:1012E000A9400A433A6046682269266100BF00BFF0
:1012F000DEF80420196B1A6300BF00BF0135202DF2
:10130000596B5A63C9D1616B666300BF00BF196B2B
:101310001A6300BF00BF01215C6B5A63FFF738FC02
:1013200000BF00BFD8F80020136851681A6B19631A
:1013300000BF00BF5A6B5963D8F8040005684668BF
:101340002A6B2E6300BF00BF1A6B196300BF00BF7A
:101350005A6B596300BF00BF1A6B196300BF00BF0F
:1013600000245A6B0A465963294601254F6B4E6388
:1013700000BF00BF196B1A6300BF00BF596B5A63EF
:1013800045FA04F1FFF704FC00BF00BFD8F80020C5
:1013900013685268196B1A6300BF00BF596B5A6318
:1013A000D8F80400016846680F6B0E6300BF00BFE9
:1013B0001F6B1A6300BF00BF5F6B5A6300BF00BFA3
:1013C0001F6B1A6300BF00BF0134022C5F6B5A63AE
:1013D000CCD10020BDE8F081F8B506460C46FFF7F9
:1013E0006DFC706803684268596B5A6300BF00BFA8
:1013F000326813685268196B1A6300BF00BF596BDB
:101400005A6300BF00BF196B1A6300BF00BF596B5E
:101410005A6300BF00BF196B1A6300BF00BF596B4E
:101420005A6300BF00BF196B1A6300BF00BF1F25BE
:10143000596B5A6304F00101FFF7AAFB640800BF6F
:1014400000BF326813685268196B1A6300BF00BF8F
:10145000596B5A63706801684768D1F834E04F638C
:1014600000BF00BF196B1A6300BF00BF596B5A63FE
:1014700000BF00BF196B1A6300BF00BF596B5A63EE
:1014800000BF00BF196B1A6300BF00BF013D596B5D
:101490005A63CFD104F00101FFF77AFB00BF00BF10
:1014A0003268136851681A6B196300BF00BF5A6B2A
:1014B00059637068056847682A6B2F6300BF00BFD7
:1014C0001A6B196300BF00BF5A6B596300BF00BF9E
:1014D0001A6B196300BF00BF5A6B596300BF00BF8E
:1014E0001A6B196300BF00BF00245A6B0A46596388
:1014F00029460125D1F834E04F6300BF00BF196BC6
:101500001A6300BF00BF596B5A6345FA04F1FFF735
:101510003FFB00BF00BF326813685268196B1A6343
:1015200000BF00BF596B5A63706801684768D1F803
:1015300030C00F6300BF00BFD3F830C01A6300BFD4
:1015400000BFD3F834C05A6300BF00BFD3F830C027
:101550001A6300BF00BF0134022CD3F834C05A63B1
:10156000C8D10020F8BD00BF4FF0FF30704700BF6A
:1015700070B51E4BC0EBC00400EB8400C418266895
:10158000DEB163685A691D691540EA0625D42B0748
:1015900013D515F0E00F11D015480122002300F0FB
:1015A0009BFD04F11C0563680122D3F80011C3F808
:1015B0000051D3F80411C3F8042170BD04F11C05D7
:1015C00030462946012200F0F1FE0128EBD001222D
:1015D0000023084800F080FDE5E71022D968DA60B2
:1015E000D6F86200002100F021FBD0E700000720C0
:1015F000840C0720640C07202DE9F04100F1550709
:10160000D0F85160044638461546884600F020FE62
:1016100000F0CAF973684FF48071D3F80821C3F859
:101620000881D3F80C21C3F80C51D3F82021C3F85A
:101630002011102299689A6000F0F8F9C4F862004D
:10164000002000F037FB73684FF40072D3F82011CC
:10165000C3F8202100F0AAF9384600F015FE28460C
:10166000BDE8F0810020FFF783BF00BF0120FFF736
:101670007FBF00BF0220FFF77BBF00BF0320FFF743
:1016800077BF00BF38B50D4C94F90030012B13D053
:101690000B490022002301250A48257000F006FDB1
:1016A000084800F025FD084808490022002300F002
:1016B000FDFC054800F01CFD002038BD800C072013
:1016C000CC510800640C0720840C0720F05108005E
:1016D000F8B5069E00251F460446C0F85110C0F814
:1016E000662080F86A5080F86B5080F86C5080F863
:1016F0006D50553000F08CFD32463946204600F0E2
:10170000EBFE2046044900F02FFD2046034900F07F
:101710002FFD2846F8BD00BFF9150800691508001F
:10172000F0B4D0F86630D0F851200546394903EBC3
:10173000D3709469401001441F2CB1FBF3F75BDDBB
:1017400004F01F0301269E40334BC3F800619368E9
:10175000D1685868596058695961586C5964586E15
:101760005966186FD3F870C020EA01011967136930
:1017700051695868596058695961586C5964186FB3
:10178000D3F870C020EA010119675368B9B2186A2A
:1017900019624FF40C60596858604FF0FF31D868F7
:1017A000D96002F11C00D3F80011C3F80001012137
:1017B000E920D3F80471002CC3F804119F689860E5
:1017C000D3F82001B8BF1F34C3F820114FF40070C4
:1017D000D3F820116411C3F8200150211868196052
:1017E000A30003F1604303F56143C3F88061002067
:1017F0001E601560F0BC704708482040002804DBDC
:1018000001268640044B1E61A1E7013860F01F00ED
:101810000130F5E7D01B500000060E401F0000808D
:10182000044B002093F90020012A1CBF01221A70EA
:10183000704700BFA00C072010B462B1074C0A44E7
:1018400011F8013B83EA102334F81330914283EA04
:10185000002080B2F4D15DF8044B704708520800B4
:1018600008B501F0DDFC00BF08B50C4B0C49D3F8FE
:10187000052001328A42C3F8052008D1D3F801209F
:1018800000210132C3F801201A7919725A6000F060
:101890002BFBBDE8084000F0CFB800BFA40C072028
:1018A000D0FFFF7FFEE700BF38B500F089FC1B4C7E
:1018B000606000F085FCA06000F040FB00F032F9B1
:1018C000174B93F90020012A07D0164A1648012524
:1018D00003211D705060116062B6FFF7A1FFFFF792
:1018E0000DF9FFF7CFFE00F07BFB00F07BFB00F073
:1018F0008DFB00F091FB68B1606000F091FB30B1AE
:10190000A06000F08DFBFFF7F1F8002038BD00F07B
:1019100057FCF5E700F054FCEEE700BFAC030720EE
:10192000A40C072010E000E0A086010070B50022A2
:1019300082B00346009272B611490192D1F801506B
:10194000D1F8050062B60F496424A1FB0062520978
:1019500004FB12000C4C0D4E04FB00F0A1FB0041F7
:101960004FF47A74490906FB052204FB01F11A6061
:101970005960184619466A4600F04EFA02B070BD2A
:10198000A40C07201F85EB5140420F0014AE470105
:10199000014B5868704700BFAC030720014B9868A3
:1019A000704700BFAC03072072B6704762B670473D
:1019B000704700BF704700BF00B52DE9F00F6B46C0
:1019C0004B6143699D46BDE8F00F00BD62B65046CD
:1019D000C847014B984700BF251A080030B40F4A8A
:1019E000D2F80530D2F8011013B11868C2F805001A
:1019F0005B680020994258760ED00948C2F8013041
:101A000005690A698C682A44121B0A61026930BCA4
:101A100018469A60FFF7D0BF30BC7047600E0720B1
:101A2000000008400120FFF71BBF00BF014BD3F8A7
:101A300001007047600E0720704700BF002303704D
:101A400043708370C3701846704700BF70B4066857
:101A500000240C704C708C70CC70C6B14B6893F93C
:101A60001850334600E013465A6892F91820AA42EB
:101A700006DC1A681C46002AF5D1196070BC704754
:101A800024B123680B60216070BC70470E60016058
:101A900070BC7047F8B5069E1F4F1C464FF0010CF6
:101AA00000234FF00F0EA6F12F052276646084F814
:101AB00019C084F81EE0C4F82370C4F82B50A37634
:101AC000E37623776377E37784F8203084F8213056
:101AD00084F8223004F12F022DB1A519192302F840
:101AE000013BAA42FBD10D4D0D4AD5F80970A6F174
:101AF000240323446361C4F82770586199611A6212
:101B0000C5F80940FFF750FF681D2146FFF79EFF0B
:101B1000FFF74CFF2046F8BD58540800600E072020
:101B2000CD1908002DE9F0432A4D85B095F9003014
:101B3000012B4AD0284C0023206AA16A274E04AA10
:101B40002F7900F07F4902F8013D01F07F40DFF876
:101B5000A0C004F15E01C4EB060E4FF00F08012691
:101B6000511AC4F82090A062646084F81E80C4F802
:101B700023C0C4F82BE023762B7263766383A383A0
:101B8000E37784F827306F602E7007D004F12E03BE
:101B90001944192203F8012F8B42FBD1104B114934
:101BA00003224FF0006E05274FF4D876C5F80140A8
:101BB0000D48C1F810E05A6000211F607F220B4BD6
:101BC0000096C5F80940FFF765FF002005B0BDE8A5
:101BD000F08300BF600E072000170720C97F082090
:101BE0000000084000060E407D1C0800B00C0720D5
:101BF000085408000146012010B400234FF0FF32C2
:101C00006FF06D0448768C76CB7781F8203081F8C0
:101C1000213081F82230CA760A774A7702485DF887
:101C2000044BFFF713BF00BF650E072010B590F9F6
:101C300019300446022BC0F81A1007D0042B1DBF20
:101C40000323437600204FF0FF3010BDD0F81F0073
:101C50000123637648B100F0B5F90023E37784F8F7
:101C6000203084F8213084F8223021460248FFF7E2
:101C7000EDFE002010BD00BF650E072038B50A4AF2
:101C80000A4BD2F801400125C4F8233030BFFFF7DA
:101C90008DFEFFF789FE214605486576FFF7D6FEE3
:101CA000FFF79CFEF2E700BF600E0720105408000B
:101CB000650E072030B5174B89B0D3F8014094F971
:101CC0001920032A1FD00223637680B10368002BFA
:101CD00013DD02AD00230146C4F81F5028460093CF
:101CE0000D4A234600F02CF9284600F057F9FFF77B
:101CF00075FED4F81A0009B030BD4368002BE8DC4B
:101D00006FF06D00F7E70122581D62762146FFF75C
:101D10009DFEECE7600E0720F51B080010B5044699
:101D2000FFF742FE2046FFF7C5FF0446FFF73EFEE1
:101D3000204610BD4FF47A7202FB00F00A4B10B53A
:101D400083FB0013C4170949C4EBA34301FB130031
:101D500002FB00F282B0684600930192FFF7DEFFBB
:101D6000002002B010BD00BF83DE1B4340420F00C5
:101D700003680BB11A680260184670474368154A39
:101D800093420BDA02681449013A19440260416037
:101D9000002A0EDD4368002B15DB70470F4A934283
:101DA0000268F5DD0E4901321944002A02604160E3
:101DB000F0DCF2D041680029EFDD094B01320B4421
:101DC0000260436070470449013A1944026041606F
:101DD000704700BF013665C400CA9A3BFFC99A3BF1
:101DE000003665C438B50446FFF7A0FD054668B95E
:101DF000084B20681A686168024422605B682046CC
:101E00000B446360FFF7BAFF284638BD4FF0FF353B
:101E1000FAE700BF700E072038B50D6814682C442F
:101E20000460496852680A444260FFF7A7FF002037
:101E300038BD00BF02680B689A4204D001DB022063
:101E400070470020704742684B689A42F6D10120E3
:101E5000704700BF28B1C0EBC000800001387FF49C
:101E6000FDAF704770B405684B686A68934201D84B
:101E700014E025469B1A4B602C6862689A42F8D39E
:101E8000061DB4421CBFC3EB020363600C6015B1B6
:101E9000296070BC7047016070BC70472C460025FB
:101EA000EEE700BF0268E2B18A4203D115E0994231
:101EB00005D01A461368002BF9D1184670471968E7
:101EC00011601A680430824205D0596853680120B5
:101ED0000B4453607047012070471168134601603E
:101EE000EFE71046704700BFF8B5134DFFF760FDF0
:101EF0002B4653F8044B9C4211D063682E46013B9D
:101F000063602F465BB923682B602369606998473B
:101F1000E368DB0707D434686368002BF3D0BDE8BF
:101F2000F840FFF747BDA368214663600248FFF70A
:101F300099FF3C686368E5E7B80307200020704715
:101F4000F0B44D68134C05F2E73584FB0564ED17DA
:101F5000C5EBA414642505FB04F40F4E04F57424AA
:101F600004F23F2486FB04760968E417C4EBA64418
:101F700005FB0144049954B9012544728472C4726A
:101F80000572C16002614361F0BC0020704784604B
:101F9000F7E700BFD34D621083DE1B4308B5C2686C
:101FA000836892074360014657BF013303480448E2
:101FB0004B60FFF757FF002008BD00BFD403072088
:101FC000B8030720C268054B014612F0020F03F167
:101FD0001C0008BF1846FFF765BF00BFB803072005
:101FE000FFF750BB00B5074B83B04FF4006200927F
:101FF000581C05496F334FF4E122FFF769FB03B02A
:102000005DF804FB780E0720000007200148FFF769
:1020100087BB00BF790E072000487047790E072064
:1020200000487047790E0720F8B50128069B0AD0B2
:1020300000221A745A749A74DA741A755A759A7559
:10204000DA750020F8BD5D691C69104623462A46F2
:10205000014900F051FCF4E728540800F8B5124F8C
:102060000546D7F80140B4B1002603E0E3682646F0
:102070005BB11C462868216800F054FC0028F5DAA2
:10208000EC6066B1F5600020F8BD2B736B73AB7329
:10209000EB732646F6E7047344738473C473C7F87E
:1020A00001500020F8BD00BFE816072030B4094DEC
:1020B00000244560047344738473C47304764476C7
:1020C0008476C4760160806002614361204630BC42
:1020D000704700BF2920080030B4014604694D69EB
:1020E000121943EB050300200A614B6130BC7047B5
:1020F00010B50446FFF7B2FF034B0020D3F80920C8
:10210000C3F80940A26110BDE81607204FF0FF3068
:10211000704700BF1046704701207047002070478D
:1021200070B40F4E0F4D00244661C56004744474B2
:102130008474C474047644768476C47604774477D1
:102140008477C47780F8204080F8214080F82240CE
:1021500080F82340016042608360204670BC704775
:10216000152108001D21080041600020704700BFB4
:1021700041610020704700BF034B002908BF19468A
:10218000C1600020704700BF1D21080008B503682A
:10219000984708BD70B5036904460E46154613B14D
:1021A0009847012805D031462A466368204698475B
:1021B00070BD284670BD00BF08B5C368984708BD0C
:1021C000004870476054080070B4036AE3B19D682A
:1021D000BDB100241E682146224656F82430013144
:1021E000984283F8202083F8212083F8222083F866
:1021F00023200C4603D01A775A779A77DA77A942C8
:10220000EBD1012070BC7047184670BC704700BF0E
:1022100010B5002400F8014BFFF710FC204610BD5C
:1022200010B590F9003082B0012B044604D0012390
:102230000370002002B010BDFFF7F8FB6946019063
:10224000601CFFF703FC0020FFF734FDF1E700BF3F
:1022500010B50446FFF7A8FB2046FFF7E1FF044650
:10226000FFF7A4FB204610BD10B504460130FFF770
:102270007FFD28B100214068FFF7D8FC002010BD89
:102280002070002010BD00BF10B50446FFF78CFB86
:102290002046FFF7E9FF0446FFF788FB204610BD04
:1022A00005290ED0062903D06FF015031846704794
:1022B000D0F84D20002322F00102C0F84D2018462E
:1022C0007047D0F84D20002342F00102C0F84D20A5
:1022D000184670472DE9F04780460F469146FFF7B4
:1022E00063FBD8F83830002B43D0394608F13C0066
:1022F0004A46FEF7C5FB0744C0EB0906D8F828405C
:1023000008F1240A38460CB376B32569A168AE42B9
:1023100038BF35462A4600F093FFD8F828402F44AE
:10232000A26823692A445B1B761BA2602361002BF1
:10233000E8D1E1686068FFF779FC5046FFF718FDC7
:102340000446C8F828003846002CDDD166B198F85C
:102350004C30022B0FD0D8F84D30DB0712D5B9EB3B
:10236000060908BF6FF00A09FFF720FB4846BDE8E1
:10237000F0874E46C2E7C6EB0909FFF717FB484650
:10238000BDE8F087FFF752FBC8F83090C8F81C0092
:10239000C8F82C70C8F834602046FFF78BFC8146E3
:1023A000FFF704FB4846BDE8F08700BF2DE9F04188
:1023B0000F4616460446FFF707FF68BB94F84C30FB
:1023C000022B42D0E3691BB3656B3946AE4238BF7E
:1023D00035462A46E06A00F033FFE36AD4F83480D9
:1023E0002B44C5EB08082F44E362C4F83480751B06
:1023F000B8F1000F1AD045B1A36B33B12A4604F1EE
:102400003C003946FEF710FB2D1A701BBDE8F08129
:102410003546002DF9D0EFE7E0690021FFF706FC13
:10242000002323776377A377E377C7E7E069216B1E
:10243000FFF7FCFB84F81C8084F81D8084F81E8064
:1024400084F81F80002DE0D0D6E74FF0FF30BDE8C4
:10245000F08100BF2DE9F041064686B00F461546D3
:10246000FFF7A2FA304639462A46FFF79FFF041EBF
:1024700002DBB5EB040805D1FFF798FA204606B059
:10248000BDE8F081FFF7D2FAB36A3C4403940290AE
:102490000495CDF8148073B106F1240001A9FFF76B
:1024A000D5FA0020FFF706FC0446FFF77FFA204626
:1024B00006B0BDE8F08101ABB362F2E710B50446A7
:1024C000806B18B104F13C00FEF706FBA36A03B170
:1024D0001B69184410BD00BF70B5244B04460D465F
:1024E00016462349234AFFF71BFE23492046FFF7E0
:1024F0003FFE22492046FFF73FFE04F12400FFF78C
:102500009DFA0023A56384F8283084F8293084F8E4
:102510002A3084F82B3084F82C3084F82D3084F85D
:102520002E3084F82F3084F8303084F8313084F83D
:10253000323084F8333084F8343084F8353084F81D
:10254000363084F837302DB12946324604F13C004C
:10255000FEF75CFA002084F84C0084F84D0084F803
:102560004E0084F84F0084F8500070BDBD24080070
:10257000D522080055240800AD230800A122080038
:10258000F0B41C686928276804F104041C603D4607
:10259000059E1CD064281AD00139B5FBF2F302FB6A
:1025A0001354E4B2092C84BF2734E4B23034084613
:1025B0000C701D460139002BEFD133780246012BF8
:1025C00003D12D23084602F8013CF0BC7047002FD0
:1025D000E2DA01237D423370DEE700BF4A6810B5BE
:1025E0008B1801324A6018728B69102A03F10103BB
:1025F0000C468B6100D010BD51F8080BFFF7CAFDE7
:10260000002323716371A371E37110BD000000000A
:102610002DE9F04F00248DB081468846174603937C
:102620008DF82E40387838B1252808D0414601373A
:10263000C84738780028F7D10DB0BDE8F08F78781A
:10264000302800F00C812D2800F0098102374FF06E
:10265000200AA0F13003DAB2092A4FF000060AD8A6
:1026600017F8010B06EB860603EB4606A0F13003D4
:10267000DAB2092AF4D96C2803BF387801217F180F
:1026800000210028D8D00022A0F153038DF81B2090
:10269000252B00F2E180DFE813F06A00DF00DF00A5
:1026A000DF00DF00DF00DF00DF00DF00DF00DF0032
:1026B000DF00DF00DF00DF00DF005C00D700DF00AD
:1026C0007700DF00DF00D700DF00DF00DF00DF0082
:1026D000DF00DF00DF00DF00DF006A00DF00D7007F
:1026E000DF00DF0026000DF11B038DE80A007820D3
:1026F0000DF12E011022039BFFF742FF9DF81BC036
:102700000446451C007828B12B4613F8012B013EE6
:10271000002AFAD1BAF12D0F0BD0BCF1010F00F055
:10272000A380002E04DD50464146C847013EFAD141
:10273000207828B14146C84714F8010F0028F9D184
:10274000002E7FF76FAF20204146C847013EFAD1E7
:1027500068E7039C0DF12E0523684FF0000C1878F4
:10276000043323608DF82D000DF12D04CBE7039C7D
:1027700023681A1D22601C68002C00F088802078D5
:10278000651C4FF0000CBEE7039C0022216800236B
:10279000073121F0070101F108002060D1E900456F
:1027A0002046294600F0F4FC002865D184462946DD
:1027B0002046CDF808C000F013FD834600F000FA73
:1027C00002460B462046294600F0BCF834A3D3E964
:1027D000002300F06BFA00F003FDDDF808C00DF1F6
:1027E0002E020AA9304CA4FB0043DB0803EB830450
:1027F000A0EB4400303002F8010D8A421846F1D1B6
:102800002E238DF82730BBF1000F45D00DF12602A5
:102810005B4625481446A0FB0301C90801EB810073
:10282000A3EB400303F1300002F801090B46002935
:10283000EFD1BCF1010F03BF2D2004F8010C04F10E
:10284000FF342078651C5EE70DF11B038DE80A005C
:102850000A220DF12E014EE74146C847E2E68246C4
:10286000033717F8010CF4E6BAF1300F7FF459AFD3
:102870004146C8472C4654E705F1004004940590B2
:102880004FF0010CDDE904458DF81BC08FE7074DC3
:10289000A44628206C1E37E70DF12704C9E700BFC6
:1028A0000000000080842E41CDCCCCCC85540800A3
:1028B00070B5044615460E4600680321FFF77CFC00
:1028C00032462B4621460B48FFF7A2FE6268002ADB
:1028D00009DD214651F8080BFFF75CFC002323714A
:1028E0006371A371E37120680421BDE87040FFF7B4
:1028F00063BC00BFDD2508000EB410B589B00BAB7A
:1029000053F8041B0190002401A86A460093029426
:102910000794FFF7CDFF079809B0BDE8104003B05A
:10292000704700BF00E03BB110F8013B11F8012BEC
:102930009342F8D0981A70471846704781F00041CA
:1029400002E000BF83F0004330B54FEA41044FEA94
:10295000430594EA050F08BF90EA020F1FBF54EA2F
:10296000000C55EA020C7FEA645C7FEA655C00F0CB
:10297000E2804FEA5454D4EB5555B8BF6D420CDD9C
:102980002C4480EA020281EA030382EA000083EA1F
:10299000010180EA020281EA0303362D88BF30BDBF
:1029A00011F0004F4FEA01314FF4801C4CEA113115
:1029B00002D0404261EB410113F0004F4FEA033374
:1029C0004CEA133302D0524263EB430394EA050FFF
:1029D00000F0A780A4F10104D5F1200E0DDB02FA6E
:1029E0000EFC22FA05F2801841F1000103FA0EF202
:1029F000801843FA05F359410EE0A5F120050EF1C8
:102A0000200E012A03FA0EFC28BF4CF0020C43FAF8
:102A100005F3C01851EBE37101F0004507D54FF005
:102A2000000EDCF1000C7EEB00006EEB0101B1F555
:102A3000801F1BD3B1F5001F0CD349085FEA30009B
:102A40004FEA3C0C04F101044FEA445212F5800FA6
:102A500080F09A80BCF1004F08BF5FEA500C50F143
:102A6000000041EB045141EA050130BD5FEA4C0C26
:102A7000404141EB010111F4801FA4F10104E9D1AF
:102A800091F0000F04BF01460020B1FA81F308BFA6
:102A90002033A3F10B03B3F120020CDA0C3208DD72
:102AA00002F1140CC2F10C0201FA0CF021FA02F14D
:102AB0000CE002F11402D8BFC2F1200C01FA02F1BD
:102AC00020FA0CFCDCBF41EA0C019040E41AA2BFE2
:102AD00001EB0451294330BD6FEA04041F3C1CDAAA
:102AE0000C340EDC04F11404C4F1200220FA04F0CA
:102AF00001FA02F340EA030021FA04F345EA030174
:102B000030BDC4F10C04C4F1200220FA02F001FA35
:102B100004F340EA0300294630BD21FA04F02946B7
:102B200030BD94F0000F83F4801306BF81F4801150
:102B30000134013D4EE77FEA645C18BF7FEA655CC3
:102B400029D094EA050F08BF90EA020F05D054EA95
:102B5000000C04BF1946104630BD91EA030F1EBF9A
:102B60000021002030BD5FEA545C05D1400049419E
:102B700028BF41F0004130BD14F580043CBF01F591
:102B8000801130BD01F0004545F0FE4141F4700177
:102B90004FF0000030BD7FEA645C1ABF1946104652
:102BA0007FEA655C1CBF0B46024650EA013406BF53
:102BB00052EA033591EA030F41F4002130BD00BF12
:102BC00090F0000F04BF0021704730B54FF48064CF
:102BD00004F132044FF000054FF0000150E700BF50
:102BE00090F0000F04BF0021704730B54FF48064AF
:102BF00004F1320410F0004548BF40424FF000019C
:102C00003EE700BF42004FEAE2014FEA31014FEADE
:102C100002701FBF12F07F4393F07F4F81F060512D
:102C2000704792F0000F14BF93F07F4F704730B59C
:102C30004FF4607401F0004521F0004120E700BF2F
:102C400050EA010208BF704730B54FF000050AE0B6
:102C500050EA010208BF704730B511F0004502D5B7
:102C6000404261EB41014FF4806404F132045FEAB9
:102C7000915C3FF4DCAE4FF003025FEADC0C18BF5E
:102C800003325FEADC0C18BF033202EBDC02C2F154
:102C9000200300FA03FC20FA02F001FA03FE40EAE6
:102CA0000E0021FA02F11444C1E600BF70B54FF0E6
:102CB000FF0C4CF4E06C1CEA11541DBF1CEA1355C8
:102CC00094EA0C0F95EA0C0F00F0DEF82C4481EA30
:102CD000030621EA4C5123EA4C5350EA013518BF50
:102CE00052EA033541F4801143F4801338D0A0FB3D
:102CF00002CE4FF00005E1FB02E506F00042E0FBEA
:102D000003E54FF00006E1FB03569CF0000F18BFEF
:102D10004EF0010EA4F1FF04B6F5007F64F5407497
:102D200004D25FEA4E0E6D4146EB060642EAC6212A
:102D300041EA55514FEAC52040EA5E504FEACE2E97
:102D4000B4F1FD0C88BFBCF5E06F1ED8BEF1004F9A
:102D500008BF5FEA500E50F1000041EB045170BD16
:102D600006F0004646EA010140EA020081EA03015A
:102D7000B4EB5C04C2BFD4EB0C0541EA045170BD56
:102D800041F480114FF0000E013C00F3AB8014F1D0
:102D9000360FDEBF002001F0004170BDC4F1000419
:102DA000203C35DA0C341BDC04F11404C4F120059A
:102DB00000FA05F320FA04F001FA05F240EA0200F5
:102DC00001F0004221F0004110EBD37021FA04F62B
:102DD00042EB06015EEA430E08BF20EAD37070BDE5
:102DE000C4F10C04C4F1200500FA04F320FA05F044
:102DF00001FA04F240EA020001F0004110EBD37046
:102E000041F100015EEA430E08BF20EAD37070BDB5
:102E1000C4F1200500FA05F24EEA020E20FA04F38E
:102E200001FA05F243EA020321FA04F001F000413D
:102E300021FA04F220EA020000EBD3705EEA430EAE
:102E400008BF20EAD37070BD94F0000F0FD101F0DD
:102E50000046400041EB010111F4801F08BF013C16
:102E6000F7D041EA060195F0000F18BF704703F054
:102E70000046520043EB030313F4801F08BF013DDB
:102E8000F7D043EA0603704794EA0C0F0CEA135597
:102E900018BF95EA0C0F0CD050EA410618BF52EA51
:102EA0004306D1D181EA030101F000414FF0000057
:102EB00070BD50EA410606BF1046194652EA430665
:102EC00019D094EA0C0F02D150EA013613D195EAD9
:102ED0000C0F05D152EA03361CBF104619460AD121
:102EE00081EA030101F0004141F0FE4141F470012B
:102EF0004FF0000070BD41F0FE4141F4780170BD1B
:102F000070B54FF0FF0C4CF4E06C1CEA11541DBF7F
:102F10001CEA135594EA0C0F95EA0C0F00F0A7F881
:102F2000A4EB050481EA030E52EA03354FEA0131AE
:102F300000F088804FEA03334FF0805545EA1313C1
:102F400043EA12634FEA022245EA111545EA106589
:102F50004FEA00260EF000419D4208BF964244F120
:102F6000FD0404F5407402D25B084FEA3202B61A3F
:102F700065EB03055B084FEA32024FF480104FF413
:102F8000002CB6EB020E75EB030E22BFB61A754687
:102F900040EA0C005B084FEA3202B6EB020E75EB1A
:102FA000030E22BFB61A754640EA5C005B084FEA82
:102FB0003202B6EB020E75EB030E22BFB61A75464F
:102FC00040EA9C005B084FEA3202B6EB020E75EB5A
:102FD000030E22BFB61A754640EADC0055EA060E1B
:102FE00018D04FEA051545EA16754FEA06164FEA5E
:102FF000C30343EA52734FEAC2025FEA1C1CC0D10A
:1030000011F4801F0BD141EA00014FF000004FF096
:10301000004CB6E711F4801F04BF01430020B4F157
:10302000FD0C88BFBCF5E06F3FF6AFAEB5EB030C0F
:1030300004BFB6EB020C5FEA500C50F1000041EB0C
:10304000045170BD0EF0004E4EEA113114EB5C04D9
:10305000C2BFD4EB0C0541EA045170BD41F48011AC
:103060004FF0000E013C90E645EA060E8DE60CEAB4
:10307000135594EA0C0F08BF95EA0C0F3FF43BAFD1
:1030800094EA0C0F0AD150EA01347FF434AF95EA88
:103090000C0F7FF425AF104619462CE795EA0C0F6C
:1030A00006D152EA03353FF4FDAE1046194622E739
:1030B00050EA410618BF52EA43067FF4C5AE50EA13
:1030C00041047FF40DAF52EA43057FF4EBAE12E703
:1030D0004FF0FF3C06E000BF4FF0010C02E000BFE4
:1030E0004FF0010C4DF804CD4FEA410C7FEA6C5CC7
:1030F0004FEA430C18BF7FEA6C5C1BD001B050EA6A
:10310000410C0CBF52EA430C91EA030F02BF90EA54
:10311000020F0020704710F1000F91EA030F58BF13
:10312000994208BF90422CBFD8176FEAE37040F075
:10313000010070474FEA410C7FEA6C5C02D150EA13
:10314000013C07D14FEA430C7FEA6C5CD6D152EACE
:10315000033CD3D05DF8040B704700BF8446104693
:1031600062468C461946634600E000BF01B5FFF792
:10317000B7FF002848BF10F1000F01BD4DF808ED62
:10318000FFF7F4FF0CBF012000205DF808FB00BF33
:103190004DF808EDFFF7EAFF34BF012000205DF88D
:1031A00008FB00BF4DF808EDFFF7E0FF94BF0120DA
:1031B00000205DF808FB00BF4DF808EDFFF7CEFFDB
:1031C00094BF012000205DF808FB00BF4DF808ED1A
:1031D000FFF7C4FF34BF012000205DF808FB00BFEB
:1031E0004A0011D212F5001211D20DD56FF4787386
:1031F000B3EB62520ED44FEAC12343F0004343EADB
:10320000505323FA02F070474FF00000704750EA25
:10321000013002D14FF0FF3070474FF0000070478F
:1032200008B50021044600F0D5F8044B1868C36BBC
:1032300003B198472046FEF735FB00BFB4540800A1
:10324000844641EA000313F0030349D1403A23D3F3
:103250000B6803604B6843608B688360CB68C36016
:103260000B6903614B6943618B698361CB69C361FE
:103270000B6A03624B6A43628B6A8362CB6AC362E6
:103280000B6B03634B6B43638B6B8363CB6BC363CE
:1032900040304031403ADBD230320BD30B68036010
:1032A0004B6843608B688360CB68C360103010311B
:1032B000103AF3D20C3205D351F8043B40F8043BEA
:1032C000043AF9D2043208D0D2071CBF11F8013BEE
:1032D00000F8013B01D30B8803806046704700BFB4
:1032E000082A13D38B07B1D010F00303AED0C3F17B
:1032F0000403D21ADB071CBF11F8013B00F8013BA5
:10330000A4D331F8023B20F8023B9FE7043AD9D31B
:10331000013A11F8013B00F8013BF9D20B78037038
:103320004B7843708B78837060467047F0B48407A5
:1033300043D0541E002A3ED0CDB2034603E0621EA5
:10334000002C38D0144603F8015B9A07F7D1032C00
:103350002AD9CDB245EA05250F2C45EA054515D9F0
:10336000A4F110073F0903F1100606EB07161A46F1
:10337000156055609560D5601032B242F8D104F006
:103380000F040137032C03EB07130DD91E46224609
:10339000043A032A46F8045BFAD8221F22F00302FB
:1033A0000432134404F003042CB1C9B21C4403F8E2
:1033B000011BA342FBD1F0BC704714460346C6E78D
:1033C000024B13B1024800F07DB8704700000000C6
:1033D000D13408002DE9F04F384B85B01B680290BE
:1033E00003F5A47201930F460392019BD3F8488121
:1033F000B8F1000F1CD0DDF80CB04FF00109DA462F
:10340000D8F804305C1E11D408F188059E1C05EB29
:10341000830508EB860677B1EB6FBB420BD0013C0E
:10342000631CA5F10405A6F10406F4D1244A7ABB75
:1034300005B0BDE8F08FD8F8042056F8043C013AF6
:10344000A24216BF0022C8F8044046F8042C002B04
:10345000E5D009FA04F2D8F88811D8F804B00A4285
:1034600010D0D8F88C110A420ED1029855F8041CDD
:103470009847D8F804305B45B7D1DAF800304345B7
:10348000CDD0B2E79847F4E755F8040C9847F0E739
:10349000D8F804306BB9D8F8003063B14046CAF8A8
:1034A0000030AFF30080DAF80080B8F1000FA7D148
:1034B000BEE7D8F80030C2469846F6E7B454080094
:1034C00000000000014600200246034600F018B844
:1034D00038B5094D094C641BA41018BF05EB8405D1
:1034E00005D0013C55F8043D9847002CF9D1BDE8C2
:1034F000384001F0EBBF00BFD8540800DC5408008E
:10350000F0B5274C85B026680746D6F84841002C10
:1035100040D065681F2D1EDD224818B94FF0FF30DE
:1035200005B0F0BD4FF4C870039102920193AFF360
:10353000008003990446029A019B0028EED0D6F839
:1035400048510020256060600546C6F84841C4F82F
:103550008801C4F88C013FB96B1C00200235636000
:1035600044F8251005B0F0BD0126AE4004EB8500FF
:10357000C0F88820D4F88821022F42EA0602C4F855
:103580008821C0F80831E7D1D4F88C311E43C4F843
:103590008C61E1E706F5A674C6F84841B9E700BFBB
:1035A000B454080000000000A44100A084500000B2
:1035B000A64100A0C650BD41C4F8000084300400FC
:1035C000A6416602C65000F4C4F80000843004002E
:1035D000A641F87FC650BD33C4F800008430040013
:1035E000A6418002C65000F4C4F8000084300400F4
:1035F000A6410000C6500000C4F80000843004005A
:10360000A64100A0C650A841C4F8000084300400C0
:10361000A6416500C6500831C4F80000843004009B
:10362000A6410000C650C845C4F80000843004001C
:10363000A641000CC6500000C4F80000843004000D
:10364000A641FEFFC650E040C4F8000084300400EC
:10365000A6410300C6506530C4F800008430040061
:10366000A641998DC650B525C4F8000084300400E9
:10367000A641B425C650450CC4F8000084300400AF
:10368000A641AA41C650306FC4F80000843004003F
:10369000A641C06DC65020FFC4F80000843004006D
:1036A000A641CAFCC6506806C4F800008430040075
:1036B000A641B26DC6500000C4F80000843004007A
:1036C000A64140C0C6502601C4F800008430040062
:1036D000A6414080C6500601C4F8000084300400B2
:1036E000A6412319C650E127C4F800008430040025
:1036F000A6410319C650FBFFC4F800008430040043
:10370000A641E318C650FCFFC4F800008430040052
:10371000A64183B4C650FDFFC4F800008430040005
:10372000A641C318C650F0FFC4F80000843004005E
:10373000A641BF45C650FEFFC4F800008430040017
:10374000A6413D23C650E54FC4F800008430040074
:10375000A64100F4C65010D0C4F800008430040024
:10376000A641B541C6509402C4F80000843004005C
:10377000A641A541C65000A0C4F800008430040052
:10378000A641B041C65000A0C4F800008430040037
:10379000A6419530C65000A0C4F800008430040053
:1037A000A641A530C650240BC4F8000084300400A4
:1037B000A64100F4C6501007C4F80000843004008D
:1037C000A641B141C650BA02C4F8000084300400DA
:1037D000A641D033C65000A0C4F8000084300400D5
:1037E000A6417132C6501C07C4F8000084300400A2
:1037F000A641500EC6502007C4F8000084300400D3
:10380000A6411C07C6509030C4F800008430040064
:10381000A6411400C65000F4C4F80000843004002F
:10382000A6410400C650A030C4F800008430040053
:10383000A6410200C6505E14C4F8000084300400A3
:10384000A6410300C6507E14C4F800008430040072
:10385000A6416200C6502025C4F800008430040050
:10386000A6415490C65090A2C4F8000084300400D1
:10387000A6410294C6500104C4F80000843004003C
:10388000A6414030C650CF00C4F800008430040088
:10389000A6419130C650EA00C4F80000843004000C
:1038A000A64100F4C6502007C4F80000843004008C
:1038B000A641B430C6501400C4F80000843004009F
:1038C000A6418050C6500200C4F8000084300400B5
:1038D000A641BE0CC650FFFFC4F8000084300400AF
:1038E000A6415E03C65000F4C4F800008430040012
:1038F000A6410400C650D430C4F80000843004004F
:10390000A6415029C650D403C4F8000084300400F6
:10391000A641D50AC650540AC4F8000084300400F9
:10392000A641E544C6504026C4F800008430040097
:10393000A641E101C65082B4C4F8000084300400FE
:10394000A6415214C65082EEC4F800008430040030
:10395000A6419E14C6501C07C4F800008430040021
:10396000A6412025C6500100C4F8000084300400A0
:10397000A641A294C650D444C4F800008430040088
:10398000A6418290C6507B01C4F800008430040038
:10399000A64104B4C6500300C4F8000084300400FB
:1039A000A64103EEC650D200C4F8000084300400E3
:1039B000A641F400C6508294C4F80000843004008C
:1039C000A64182B4C65004EEC4F80000843004005E
:1039D000A6417490C650E800C4F80000843004008A
:1039E000A64103B4C6500800C4F8000084300400A7
:1039F000A6414030C650D001C4F800008430040015
:103A0000A641DE14C650A600C4F8000084300400AD
:103A1000A641FE14C6500800C4F80000843004001B
:103A2000A6417E14C6500900C4F80000843004008A
:103A3000A6419E14C6500400C4F80000843004005F
:103A4000A6415E15C6500500C4F80000843004008D
:103A5000A6413E15C6500B00C4F800008430040097
:103A6000A641E700C6500A00C4F8000084300400F4
:103A7000A641C600C6500080C4F80000843004008F
:103A8000A641F744C65000C0C4F8000084300400CA
:103A9000A6410700C650BE14C4F8000084300400DC
:103AA000A6410600C6505E14C4F80000843004002D
:103AB000A64100C0C6506300C4F800008430040072
:103AC000A6410080C6508400C4F800008430040081
:103AD000A6419032C6504601C4F80000843004006C
:103AE000A6410040C650E900C4F80000843004003C
:103AF000A641E600C650DC44C4F80000843004004F
:103B0000A641EB44C65090BAC4F8000084300400CB
:103B1000A64177B0C6502025C4F8000084300400C8
:103B2000A6410394C6500104C4F800008430040088
:103B3000A641EA44C6507700C4F80000843004006F
:103B4000A641001DC650A241C4F800008430040004
:103B5000A6419013C6504500C4F80000843004000C
:103B6000A641BB00C65002B4C4F800008430040073
:103B7000A641DE00C6504030C4F800008430040086
:103B8000A641041DC650A441C4F8000084300400BE
:103B9000A6415011C650B700C4F80000843004009C
:103BA000A6410100C6508450C4F8000084300400CF
:103BB000A641901BC6508200C4F800008430040067
:103BC000A641A441C65090ADC4F800008430040062
:103BD000A6418500C650C01FC4F800008430040010
:103BE000A64103B4C650901BC4F800008430040002
:103BF000A641A341C650A800C4F8000084300400C8
:103C0000A6416350C650C01FC4F8000084300400B1
:103C1000A6416200C6500118C4F8000084300400B8
:103C2000A6410294C6509013C4F8000084300400EA
:103C3000A6414030C650A200C4F800008430040001
:103C4000A641A241C650DE00C4F800008430040042
:103C5000A6419530C65000A0C4F80000843004008E
:103C6000A641C230C650240BC4F8000084300400C2
:103C7000A64100F4C6502807C4F8000084300400B0
:103C8000A6411700C650C002C4F8000084300400EA
:103C9000A6415794C650903AC4F8000084300400FE
:103CA000A641000CC6507600C4F800008430040021
:103CB000A6416801C6500240C4F8000084300400E8
:103CC000A6418080C6506200C4F800008430040021
:103CD000A6410400C650C232C4F80000843004007B
:103CE000A6418040C6502201C4F800008430040080
:103CF000A6410900C6506230C4F8000084300400B8
:103D0000A641FFFFC6508050C4F800008430040074
:103D1000A641D60CC650BE0CC4F800008430040086
:103D2000A6410200C6503E19C4F8000084300400C9
:103D3000A6410300C6505E18C4F800008430040099
:103D4000A6415E03C65000F4C4F8000084300400AD
:103D5000A6414010C6508302C4F80000843004001D
:103D6000A641DE02C6502126C4F8000084300400BB
:103D7000A641708AC6505039C4F80000843004004F
:103D8000A6414EFFC6501494C4F8000084300400CD
:103D9000A641B400C6507189C4F800008430040004
:103DA000A6415E0CC6500010C4F800008430040028
:103DB000A6415029C650BE00C4F80000843004005B
:103DC000A64120FFC650A941C4F800008430040079
:103DD000A641210BC650A009C4F80000843004009D
:103DE000A641220AC650A30BC4F800008430040088
:103DF000A64100C0C6506300C4F80000843004002F
:103E0000A6410080C650C600C4F8000084300400FB
:103E1000A641DF44C650DE44C4F8000084300400EC
:103E2000A641DC44C6504026C4F80000843004009B
:103E3000A64169F8C650226DC4F800008430040021
:103E4000A641A2B4C6500000C4F8000084300400AB
:103E5000A6419030C650EFFFC4F800008430040043
:103E6000A64100F4C6501C07C4F8000084300400CA
:103E7000A641A030C6501400C4F8000084300400ED
:103E8000A6415E14C6500400C4F80000843004004B
:103E9000A6417E14C6500200C4F80000843004001D
:103EA000A6412025C6500300C4F800008430040059
:103EB000A64190A2C6506200C4F8000084300400FD
:103EC000A6410104C6505490C4F800008430040098
:103ED000A64139FFC65002B4C4F800008430040083
:103EE000A6412007C6509130C4F800008430040079
:103EF000A641EA00C6504030C4F8000084300400F7
:103F0000A641FF00C6504031C4F8000084300400D0
:103F1000A641FF00C6506030C4F8000084300400A1
:103F2000A641FF00C650E030C4F800008430040011
:103F3000A641FFFFC6502031C4F8000084300400C1
:103F4000A6410700C6505E18C4F800008430040083
:103F5000A6417E18C65004EDC4F800008430040069
:103F6000A6418050C6500500C4F80000843004000B
:103F7000A641BE0CC650FFFFC4F800008430040008
:103F8000A6413E19C65008EFC4F800008430040072
:103F9000A641FE18C6500100C4F800008430040099
:103FA000A6415E19C6500400C4F800008430040025
:103FB000A6411E18C6500600C4F800008430040054
:103FC000A6415E18C6500200C4F800008430040008
:103FD000A64100F4C6500300C4F800008430040079
:103FE000A6413019C6505E03C4F8000084300400B6
:103FF000A641A125C6501C07C4F800008430040067
:10400000A6410800C6507E18C4F8000084300400A1
:10401000A6410900C6505E18C4F8000084300400B0
:10402000A6418032C650AECFC4F8000084300400F0
:10403000A64181EDC6500300C4F80000843004009E
:10404000A6411A00C65062B4C4F8000084300400CF
:10405000A6418032C65015EDC4F80000843004003B
:10406000A641C032C6500200C4F8000084300400EB
:10407000A641F30EC6500500C4F8000084300400C9
:10408000A641400DC65004EFC4F80000843004007F
:10409000A6418050C650400CC4F800008430040093
:1040A000A641BE0CC650FFFFC4F8000084300400D7
:1040B000A6410200C6505E18C4F800008430040017
:1040C000A6415E03C65000F4C4F80000843004002A
:1040D000A6410300C6505E19C4F8000084300400F5
:1040E000A641DE02C6502126C4F800008430040038
:1040F000A6419718C6505039C4F800008430040017
:10410000A64191CFC6500000C4F8000084300400DE
:10411000A64115EDC6507089C4F800008430040033
:10412000A6414031C650BDCFC4F800008430040021
:10413000A6414030C650FC00C4F8000084300400A2
:10414000A641B8CFC650DE00C4F800008430040099
:10415000A641FF00C6504031C4F80000843004007E
:10416000A64154B4C65008EDC4F8000084300400E1
:10417000A641000CC650DE00C4F8000084300400E4
:10418000A6410800C650BE14C4F8000084300400E4
:10419000A6410900C650DE14C4F8000084300400B3
:1041A000A6410400C6507E14C4F800008430040008
:1041B000A6410500C6509E14C4F8000084300400D7
:1041C000A6410B00C650FE14C4F800008430040061
:1041D000A6410A00C6505E15C4F8000084300400F1
:1041E000A6410080C650C600C4F800008430040018
:1041F000A64100C0C650A500C4F8000084300400E9
:10420000A6415E14C650EE44C4F800008430040099
:10421000A6413E15C6500700C4F8000084300400D3
:10422000A6418400C6500600C4F800008430040093
:10423000A6416300C6500080C4F80000843004002A
:10424000A641FD44C65000C0C4F8000084300400FC
:10425000A6410040C650CA00C4F8000084300400E3
:10426000A641FE44C650DC44C4F80000843004007B
:10427000A6418900C650D344C4F80000843004002D
:10428000A64167B0C6500040C4F800008430040066
:10429000A6410394C6500104C4F800008430040011
:1042A000A641D444C65089FFC4F8000084300400FD
:1042B000A641001DC650A341C4F80000843004008C
:1042C000A641901BC6506200C4F800008430040070
:1042D000A641AE06C650A18DC4F80000843004008B
:1042E000A6410180C6506050C4F80000843004002C
:1042F000A641901BC6506500C4F80000843004003D
:10430000A641A341C650B08DC4F80000843004001B
:10431000A6410794C650801FC4F8000084300400F2
:10432000A641730CC650AD00C4F8000084300400F0
:10433000A641B06DC650200AC4F8000084300400C5
:10434000A641A2B4C650206DC4F800008430040019
:10435000A6418318C650FBFFC4F800008430040057
:10436000A6414700C650FFFFC4F800008430040097
:10437000A641726FC6508040C4F80000843004002B
:10438000A6410900C650A730C4F8000084300400DC
:10439000A64147D1C6502D2DC4F80000843004003A
:1043A000A641DE00C650FF00C4F8000084300400BF
:1043B000A641C732C65050B9C4F80000843004008A
:1043C000A64199CFC6500500C4F80000843004000F
:1043D000A6414010C6508502C4F800008430040095
:1043E000A641041DC650A441C4F800008430040056
:1043F000A6410100C6508450C4F800008430040077
:10440000A641901BC6508500C4F80000843004000B
:10441000A641A441C650E0ADC4F8000084300400B9
:10442000A6418200C650C01FC4F8000084300400BA
:10443000A641D6ADC650901BC4F8000084300400DD
:10444000A6410180C6506050C4F8000084300400CA
:10445000A6410118C6508450C4F8000084300400FE
:10446000A641901BC6508500C4F8000084300400AB
:10447000A641A341C650D4ADC4F800008430040066
:10448000A6416200C650801FC4F8000084300400BA
:10449000A64193ADC650901BC4F8000084300400C0
:1044A000A641811FC650A341C4F800008430040017
:1044B000A6416500C650B06DC4F800008430040009
:1044C000A641C9ADC650901BC4F80000843004005A
:1044D000A641C41FC650A341C4F8000084300400A4
:1044E000A6414018C6508330C4F800008430040050
:1044F000A6419023C6508200C4F800008430040016
:10450000A6416330C65006AEC4F8000084300400F3
:10451000A6416500C6505518C4F800008430040058
:10452000A641A340C650901BC4F80000843004008C
:10453000A6414030C650BCFFC4F8000084300400DF
:10454000A64138CFC650EA00C4F800008430040009
:10455000A641FF00C6504031C4F80000843004007A
:10456000A6410800C6507490C4F8000084300400CE
:10457000A6415F00C65003B4C4F8000084300400B4
:10458000A641A600C6504030C4F8000084300400A4
:10459000A6410800C650DE14C4F8000084300400B0
:1045A000A6410900C6503E15C4F80000843004003E
:1045B000A6410400C6509E14C4F8000084300400D4
:1045C000A6410500C650FE14C4F800008430040063
:1045D000A6410B00C6505E15C4F8000084300400EC
:1045E000A6410A00C6507E14C4F8000084300400BE
:1045F000A6410700C650BE14C4F800008430040071
:10460000A6410600C6505E14C4F8000084300400C1
:10461000A64100C0C650C600C4F8000084300400A3
:10462000A6410080C6502901C4F80000843004006F
:10463000A64100C0C6508400C4F8000084300400C5
:10464000A6410080C650E700C4F800008430040092
:10465000A6419032C6502601C4F800008430040000
:10466000A6414601C650E744C4F800008430040067
:10467000A641B025C6509032C4F800008430040032
:10468000A6412025C650EC44C4F800008430040044
:10469000A6410694C650F344C4F8000084300400D8
:1046A000A641EA44C65009FFC4F800008430040063
:1046B000A641001DC650A241C4F800008430040089
:1046C000A6419013C6504500C4F800008430040091
:1046D000A6414DFFC65002B4C4F800008430040067
:1046E000A641DE00C6504030C4F80000843004000B
:1046F000A641041DC650A441C4F800008430040043
:10470000A6418450C6505C05C4F800008430040003
:10471000A6418200C6500100C4F8000084300400A5
:10472000A64190ADC650901BC4F800008430040030
:10473000A641C01FC650A441C4F800008430040044
:10474000A641901BC6508500C4F8000084300400C8
:10475000A6413BFFC65003B4C4F8000084300400F7
:10476000A641C01FC650A341C4F800008430040015
:10477000A6410118C6506350C4F8000084300400FC
:10478000A6419013C6506200C4F8000084300400B3
:10479000A64135FFC6500294C4F8000084300400DE
:1047A000A641DE00C6504030C4F80000843004004A
:1047B000A6411803C65000F4C4F800008430040079
:1047C000A641240BC6509530C4F800008430040084
:1047D000A641A0FEC6504240C4F800008430040048
:1047E000A6410400C650C232C4F800008430040060
:1047F000A6418080C6506200C4F8000084300400E6
:10480000A6418040C6504201C4F800008430040034
:10481000A64140C0C650E200C4F800008430040045
:10482000A6414AD1C650BD2DC4F800008430040012
:10483000A641DECEC650FF00C4F80000843004005C
:10484000A64111EDC6502D2DC4F80000843004009F
:10485000A6414031C650D7CEC4F8000084300400D1
:10486000A6414030C650FC00C4F80000843004006B
:10487000A641D2CEC650A600C4F800008430040081
:10488000A641FF00C6504031C4F800008430040047
:10489000A641400DC650400CC4F80000843004000E
:1048A000A641FE32C65004EFC4F800008430040074
:1048B000A641C032C6500400C4F800008430040091
:1048C000A641F9CEC6500500C4F8000084300400AB
:1048D000A6410200C6508032C4F8000084300400B3
:1048E000A64100A0C650A641C4F8000084300400D0
:1048F000A64100A0C650A541C4F8000084300400C1
:10490000A6411007C650C630C4F800008430040029
:10491000A6411C07C650A530C4F80000843004002E
:10492000A6414500C650EB06C4F8000084300400E0
:10493000A6410C8DC6508010C4F8000084300400DD
:10494000A64100A0C650A741C4F80000843004006E
:10495000A641E730C650400CC4F800008430040083
:10496000A641AE05C6501007C4F80000843004000C
:10497000A641AC05C650306AC4F80000843004007B
:10498000A641A2B4C650226DC4F8000084300400D1
:10499000A64130EAC650FAFFC4F800008430040093
:1049A000A641000CC650BF45C4F800008430040086
:1049B000A64100A0C650A541C4F800008430040000
:1049C000A64100A0C650A441C4F8000084300400F1
:1049D000A6411C07C650A530C4F80000843004006E
:1049E000A6412C0BC6508430C4F80000843004006B
:1049F000A6416400C6505906C4F800008430040083
:104A0000A641868DC6508010C4F800008430040092
:104A1000A641AA05C650400CC4F80000843004002A
:104A2000A64182B4C650226DC4F800008430040050
:104A3000A64130E8C650FCFFC4F8000084300400F2
:104A4000A641000CC650BF45C4F8000084300400E5
:104A5000A64100A0C650A341C4F800008430040061
:104A6000A641280BC650431CC4F800008430040043
:104A7000A6418294C65001EEC4F8000084300400C0
:104A8000A641000CC6501D00C4F80000843004008C
:104A9000A641280BC6508318C4F8000084300400D7
:104AA000A64180BFC650A241C4F800008430040073
:104AB000A64199AAC650A441C4F80000843004005D
:104AC000A6414029C6506230C4F80000843004007A
:104AD000A6415566C6508430C4F8000084300400F6
:104AE000A641A441C65030EAC4F800008430040056
:104AF000A6418450C6506655C4F8000084300400B6
:104B0000A64130EAC650AA99C4F8000084300400D7
:104B1000A6410080C6508050C4F8000084300400D4
:104B2000A641A829C650A230C4F800008430040071
:104B3000A6418030C65050EAC4F80000843004001A
:104B4000A6414230C6500007C4F80000843004007B
:104B5000A64120EAC650A429C4F80000843004000D
:104B6000A64130E9C650400CC4F80000843004006F
:104B7000A641400CC6509F45C4F800008430040094
:104B8000A6410380C650A460C4F80000843004002D
:104B9000A6410090C650A460C4F800008430040010
:104BA000A641400CC6509F45C4F800008430040064
:104BB000A6415500C6500794C4F800008430040094
:104BC000A641AB41C650470CC4F800008430040035
:104BD000A641F94FC65080BFC4F8000084300400DD
:104BE000A64199AAC650AD41C4F800008430040023
:104BF000A6416655C650AC41C4F80000843004009C
:104C0000A6413029C6508B30C4F80000843004001F
:104C1000A64104D0C6507D20C4F8000084300400B2
:104C2000A6414029C6504B31C4F80000843004002E
:104C3000A6415029C6504B32C4F80000843004000D
:104C4000A6416029C6502B32C4F80000843004000D
:104C5000A6417029C6500B32C4F80000843004000D
:104C6000A6413829C6502B33C4F800008430040014
:104C7000A6416B31C650060DC4F800008430040014
:104C8000A641EB06C6503429C4F800008430040065
:104C9000A6410240C6500033C4F80000843004002E
:104CA000A6415566C650AD31C4F8000084300400FA
:104CB000A641AA99C6508C51C4F800008430040063
:104CC000A6410080C650E051C4F8000084300400C2
:104CD000A6410040C650C031C4F800008430040032
:104CE000A6415019C650A800C4F800008430040042
:104CF000A6410000C65072F8C4F8000084300400D9
:104D0000A6410000C65068FCC4F8000084300400CE
:104D1000A6410831C65090E9C4F800008430040070
:104D2000A64168FCC6500800C4F8000084300400A6
:104D3000A64180E9C650FCFFC4F80000843004009E
:104D4000A6410000C65004FBC4F8000084300400F3
:104D5000A6410000C650AAF9C4F80000843004003F
:104D6000A6410000C6508AF9C4F80000843004004F
:104D7000A6410000C650F9F9C4F8000084300400D0
:104D8000A641BE2DC650C069C4F80000843004009E
:104D9000A641FCFFC650A340C4F8000084300400C4
:104DA000A6410000C65024FDC4F800008430040071
:104DB000A6410000C650CBF9C4F8000084300400BE
:104DC000A6410000C6506AF8C4F800008430040010
:104DD000A6410020C65029D1C4F800008430040048
:104DE000A6410400C6500994C4F8000084300400B1
:104DF000A641D019C650C800C4F800008430040091
:104E0000A64110FCC6504030C4F8000084300400B5
:104E1000A641901BC650E300C4F800008430040093
:104E2000A6410400C650E340C4F8000084300400EA
:104E3000A641D6FFC6504794C4F800008430040051
:104E4000A6415019C650A800C4F8000084300400E0
:104E5000A6410450C6507D20C4F8000084300400F0
:104E6000A641BF45C6500447C4F800008430040082
:104E7000A6414030C6506E6FC4F800008430040074
:104E8000A641A600C65000F8C4F800008430040013
:104E9000A6414F00C6505079C4F800008430040089
:104EA000A641AA44C650507AC4F8000084300400D9
:104EB000A6419013C650AF00C4F80000843004002F
:104EC000A641A741C65038ADC4F8000084300400A4
:104ED000A641A941C65080BFC4F800008430040038
:104EE000A641A841C65099AAC4F800008430040025
:104EF000A641C731C6506655C4F80000843004008E
:104F0000A6416730C6505029C4F800008430040020
:104F1000A641C730C6503029C4F8000084300400D0
:104F2000A641A731C6504029C4F8000084300400CF
:104F3000A6418031C6503829C4F8000084300400EE
:104F4000A641E730C6500440C4F800008430040095
:104F5000A6412931C6503429C4F800008430040029
:104F6000A6410851C6505566C4F8000084300400BC
:104F7000A6416051C650AA99C4F8000084300400CC
:104F8000A6414031C6500080C4F8000084300400BF
:104F9000A641AEF8C6500040C4F8000084300400BA
:104FA000A64183F9C6500000C4F800008430040014
:104FB000A64126F9C6500000C4F800008430040061
:104FC000A64106F9C6500000C4F800008430040071
:104FD000A6416DF9C6500000C4F8000084300400FA
:104FE000A6413069C6500000C4F8000084300400B7
:104FF000A641A240C6502E2DC4F800008430040003
:10500000A641306AC650FCFFC4F80000843004009A
:10501000A6410000C65047F9C4F8000084300400DF
:10502000A64184D0C65060E9C4F800008430040072
:10503000A641058EC6500020C4F80000843004004C
:10504000A6410008C650A530C4F800008430040012
:10505000A6414030C6509F45C4F80000843004008B
:10506000A641AF00C6500FFCC4F800008430040015
:10507000A641E240C6509013C4F8000084300400FA
:10508000A6419F45C650E2FFC4F8000084300400EA
:10509000A641000CC650400CC4F800008430040047
:1050A000A641C127C6504F2EC4F80000843004002A
:1050B000A6414D2EC650158FC4F800008430040060
:1050C000A6410515C6506A07C4F8000084300400E4
:1050D000A641D06EC6500000C4F800008430040021
:1050E000A641103BC6500701C4F8000084300400FC
:1050F000A6415F44C650F925C4F80000843004007E
:10510000A6414018C6500301C4F8000084300400D2
:10511000A641103BC6500401C4F8000084300400CE
:10512000A6413A26C6503825C4F800008430040051
:10513000A6416344C6507A44C4F800008430040099
:10514000A641C5B4C650FD2FC4F800008430040049
:10515000A6414D2EC650EEFFC4F800008430040076
:10516000A6414A05C650F026C4F800008430040069
:10517000A6412F2DC6509F45C4F80000843004007E
:10518000A6410000C6500000C4F8000084300400AE
:10519000A6410300C6500000C4F80000843004009B
:1051A000A6410001C6500101C4F80000843004008B
:1051B000A6410000C6500000C4F80000843004007E
:1051C000B94100A03953010019003C0F2F647269E6
:1051D000766572732F756172742F72785F63686180
:1051E0006E6E656C5F6F766572666C6F770000003F
:1051F0002F647269766572732F756172742F72787D
:105200005F6572726F72730000002110422063307C
:105210008440A550C660E770088129914AA16BB10E
:105220008CC1ADD1CEE1EFF13112100273325222B6
:10523000B5529442F772D662399318837BB35AA35E
:10524000BDD39CC3FFF3DEE3622443342004011486
:10525000E664C774A44485546AA54BB528850995AE
:10526000EEE5CFF5ACC58DD5533672261116300656
:10527000D776F6669556B4465BB77AA719973887FE
:10528000DFF7FEE79DD7BCC7C448E5588668A77816
:105290004008611802282338CCC9EDD98EE9AFF94E
:1052A000488969990AA92BB9F55AD44AB77A966AF6
:1052B000711A500A333A122AFDDBDCCBBFFB9EEB9E
:1052C000799B588B3BBB1AABA66C877CE44CC55CC6
:1052D000222C033C600C411CAEED8FFDECCDCDDDEE
:1052E0002AAD0BBD688D499D977EB66ED55EF44E96
:1052F000133E322E511E700E9FFFBEEFDDDFFCCF3E
:105300001BBF3AAF599F788F8891A981CAB1EBA191
:105310000CD12DC14EF16FE18010A100C230E3200D
:105320000450254046706760B9839893FBA3DAB3B5
:105330003DC31CD37FE35EF3B1029012F322D2325D
:105340003542145277625672EAB5CBA5A895898585
:105350006EF54FE52CD50DC5E234C324A0148104AD
:105360006674476424540544DBA7FAB79987B89755
:105370005FE77EF71DC73CD7D326F2369106B016FD
:1053800057667676154634564CD96DC90EF92FE915
:10539000C899E9898AB9ABA944586548067827684D
:1053A000C018E1088238A3287DCB5CDB3FEB1EFBF5
:1053B000F98BD89BBBAB9ABB754A545A376A167A9D
:1053C000F10AD01AB32A923A2EFD0FED6CDD4DCDC5
:1053D000AABD8BADE89DC98D267C076C645C454CED
:1053E000A23C832CE01CC10C1FEF3EFF5DCF7CDF95
:1053F0009BAFBABFD98FF89F176E367E554E745E3D
:10540000932EB23ED10EF01E6D61696E0000000059
:1054100069646C65000000002F00000043574400E1
:1054200025732573257300002530386C78253038B6
:105430006C780D0A000000000D0A000025733A2068
:10544000636F6D6D616E64206E6F7420666F756E34
:10545000640D0A0025730D0A000000002564000099
:105460000D21080015210800192108001D21080040
:1054700000000000152108000000000000000000EE
:1054800000000000286E756C6C29000027000000E9
:105490002020200025630000090A0B0C0D200000CD
:1054A000253038783A20000025303278200000007E
:1054B00043000000F0030720F8B500BFF8BC08BCAB
:1054C0009E467047C133080019010800F8B500BFB7
:0C54D000F8BC08BC9E467047F5000800C0
:105500000000000000080E40000E0E4000010000E8
:10551000000E0E4000020000080000000000000025
:105520000000800940000E0E4000040000000E0E36
:10553000400008000011000000000000000000C052
:105540000940000E0E4000100000000E0E4000202A
:10555000000012000000000000000000000A4000EF
:10556000100E400000200000100E4000004000130C
:1055700000000000000E0E4001000000000E0E4072
:1055800002000000000E0E4004000000000E0E405D
:1055900008000000000E0E4010000000000E0E403B
:1055A00020000000000E0E4040000000000E0E40E3
:1055B00080000000000E0E4000010000000E0E40B2
:1055C00000020000000E0E4000040000000E0E401D
:1055D00000080000000E0E4000100000000E0E40FB
:1055E00000200000000E0E4000400000000E0E40A3
:1055F00000800000000E0E4000000100000E0E4072
:1056000000000200000E0E4000000400000E0E40DC
:1056100000000800000E0E4000001000000E0E40BA
:1056200000002000000E0E4000004000000E0E4062
:1056300000008000000E0E4000000001000E0E4031
:1056400000000002000E0E4000000004000E0E409C
:1056500000000008000E0E4000000010000E0E407A
:105660000000002000100E400100000000100E405D
:105670000200000000100E400400000000100E4068
:105680000800000000100E401000000000100E4046
:105690002000000000100E404000000000100E40EE
:1056A0008000000000100E400001000000100E40BD
:1056B0000002000000100E400004000000100E4028
:1056C0000008000000100E400010000000100E4006
:1056D0000020000000100E400040000000100E40AE
:1056E0000080000000100E400000010000100E407D
:1056F0000000020000100E400000040000100E40E8
:105700000000080000100E400000100000100E40C5
:105710000000200000100E400000400000100E406D
:105720000000800000100E400000000100100E403C
:105730000000000200100E400000000400100E40A7
:105740000000000800100E400000001000100E4085
:105750000000002000100E400000004000100E402D
:105760000000008000120E400100000000120E40F8
:105770000200000000120E400400000000120E4063
:105780000800000000120E401000000000120E4041
:105790002000000000120E404000000000120E40E9
:1057A0008000000000120E400001000000120E40B8
:1057B0000002000000120E400004000000120E4023
:1057C0000008000000120E400010000000120E4001
:1057D0000020000000120E400040000000120E40A9
:1057E0000080000000120E400000010000120E4078
:1057F0000000020000120E400000040000120E40E3
:105800000000080000120E400000100000120E40C0
:105810000000200000120E400000400000120E4068
:105820000000800000120E400000000100120E4037
:105830000000000200120E400000000400120E40A2
:105840000000000800120E400000001000120E4080
:105850000000002000120E400000004000140E4026
:105860000100000000140E400200000000140E4071
:105870000400000000140E400800000000140E4058
:105880001000000000140E402000000000140E4024
:105890004000000000140E408000000000140E4084
:1058A0000001000000140E40000200006118080012
:1058B0000000000000000000BC0307200000000002
:1058C000FFFFFFFF000000000000000000000000DC
:1058D00000000000D803072000000000FFFFFFFFCA
:1058E00000000000000000000000000000000000B8
:1058F00000000000DC06072044070720AC07072053
:105900000000000000000000000000000000000097
:105910000000000000000000000000000000000087
:1059200000000000B054080000000000000000006B
:105930000000000000000000000000000000000067
:105940000000000000000000000000000000000057
:105950000000000000000000000000000000000047
:105960000000000000000000000000000000000037
:105970000000000000000000000000000000000027
:105980000000000000000000000000000000000017
:105990000000000000000000010000000000000006
:1059A0000E33CDAB34126DE6ECDE05000B000000CB
:1059B00000000000000000000000000000000000E7
:1059C00000000000000000000000000000000000D7
:1059D00000000000000000000000000000000000C7
:1059E00000000000000000000000000000000000B7
:040000038000000079
:00000001FF
