:0200000280007C
:10000000F87F08207D0A080011090800110908007E
:100010001109080011090800110908001109080058
:100020001109080011090800110908001109080048
:10003000110908001109080011090800C11F080072
:10004000150908001D090800250908002D090800E8
:10005000350908003D090800450908004D09080058
:10006000550908005D090800650908006D090800C8
:10007000750908007D090800850908008D09080038
:10008000950908009D090800A5090800AD090800A8
:10009000B5090800BD090800C5090800CD09080018
:1000A000D5090800DD090800E5090800ED09080088
:1000B000F5090800FD090800050A08000D0A0800F6
:1000C000150A08001D0A0800250A08002D0A080064
:1000D000350A08003D0A0800450A08004D0A0800D4
:1000E000550A08005D0A0800650A08006D0A080044
:1000F000750A080010B5054C237833B9044B13B1C9
:100100000448AFF300800123237010BDD0080720FE
:1001100000000000D052080008B5064B1BB106488D
:100120000649AFF300800648036813B1054B03B1DD
:10013000984708BD00000000D0520800D4080720EE
:10014000D0520800000000002DE9F041D71CBF0884
:100150009046064617D00C46002501E0BD4212D05D
:1001600063782178E2781B0443EA0163A1781343A2
:1001700043EA012130460135043401F053FA0028E6
:10018000ECD0BDE8F0814046BDE8F0812DE9F041BA
:1001900082B00C4601A9064601F054F950BB019B00
:1001A0001A0AD9B25FFA82F841EA08281D0E190C22
:1001B000B8F5806FE370A270257061701DD808F1EA
:1001C00005070546BF08304601A9013501F03AF997
:1001D00080B9019BAF424FEA13604FEA13414FEAE7
:1001E0001322E37120716171A27104F10404EAD851
:1001F00008F1060002B0BDE8F0816FF04600F9E7B3
:100200000029F8B5044613DBC1F30722CBB20D1D5C
:100210004E1D8F1DA270E3702A4621464FF6FF70D7
:1002200001F0B6FE0346020A6255A3553846F8BDF2
:10023000FF230D160A120814237063702571A27132
:10024000E17160710A270926082504230022E1E7ED
:1002500010B582B002AB09BA43F8041D144621461A
:100260001A46202301F098F810B923681BBA2360BE
:1002700002B010BD70B5054686B00A200E4600F0EB
:1002800071FC06A901F8170D0522284601F030F887
:10029000044610B1204606B070BD304B04A802944D
:1002A000039302F069F904A8014602AA02F07EF95C
:1002B00006E000F06BFC019B18421DD1002CE9D137
:1002C0004FF4982000F062FC01AA01462846FFF78F
:1002D000BFFF044602A802F04FF902A804A902F0E9
:1002E00073F902284FF48020E3D14FF4802000F00E
:1002F0004DFC6FF06D04CDE7002CCBD1092000F050
:1003000031FC06A901F8150D0522284600F0F0FF82
:1003100004460028BED1304600F038FC01AA014650
:100320002846FFF795FF08B10446B3E70A2000F01E
:1003300019FC06A901F8160D0522284600F0D8FF81
:1003400004460028A6D14FF4404000F01FFC01AA4B
:1003500001462846FFF77CFF04469BE70065CD1D5C
:10036000002380F8143480F8153480F8163480F8AF
:1003700017341846704700BF2DE9F047AB4A88B0E4
:10038000002300F10C0607920693044601F0AEFE2E
:10039000314606AB042202F069FB042851D1A57B4B
:1003A000E37B43EA0525B5F5806F5BDCAF1C04F108
:1003B000100801F09BFE41463A4606AB02F056FBA0
:1003C00087423ED1277B637B05F1060943EA072775
:1003D000632F16DCD4F81434002B38D16FF06A0187
:1003E0003046FFF70DFF0546002D06DD01F084FEC7
:1003F0002A46314602F0B4FA0025284608B0BDE886
:10040000F0872A1D06EB0903B55C13F8013C4FF693
:10041000FF70314643EA052501F0BAFD854202D05E
:10042000834D2946DCE7643F072F00F25B82DFE85B
:1004300017F0F800DB00D300BB0095007400270024
:100440001C006FF06D05284608B0BDE8F087204617
:1004500031464A46FFF778FE8145054657D0002DC4
:10046000C2DADEE76FF05905C7E7724B0625186858
:100470009A889B792061A8F8042088F80630D0E794
:10048000D4F81434002B00F0AC80B9F1100F40F018
:100490002182627D217D1204E37D42EA0162A77D13
:1004A000134343EA072717F0FF0A40F01082002F9A
:1004B00000F00D824A4620463146FFF745FE1028DF
:1004C0000546CCD1594BADF810A0CDF818A0079334
:1004D00001F00CFE41464FF4807206AB02F0C6FA02
:1004E0000346B3F5807F02464146204640F0F58141
:1004F000FFF72AFEB0F5807F0546B0D101F0FCFD84
:1005000004A9022202F02CFAB7F58077E0D1204648
:100510003146FFF73BFE0546A1E7D4F81434002B23
:1005200040F081804449204601F58C7201F58473C6
:1005300000F028FE204600F089FE042000F012FBA7
:1005400008A901F8110D0522204600F0D1FE00286F
:1005500078D00546204600F029FE62E7D4F814342E
:10056000002B60D13449204601F58C7201F584736B
:1005700000F008FE204600F069FE042000F0F2FAC8
:1005800006A98DF818000522204600F0B1FE0546A8
:10059000002800F05581204600F008FEE8B200F087
:1005A000E1FA012520743CE7D4F81454002D3AD127
:1005B0002A4606A8214900F0A5FB294606A800F016
:1005C000AFFB022002F010F806A8032100F0B4FBF4
:1005D000142001F079FF24E7D4F81434002B40F004
:1005E0004D816FF06A051CE7D4F81434DBB9124969
:1005F000204601F58C7201F5847300F0C3FD20469E
:1006000000F024FE042000F0ADFA08A901F8130D53
:100610000522204600F06CFE002800F08580084D81
:10062000FFE60025FDE66FF06905FAE60065CD1DE1
:1006300011FCFFFF444F0800E4020720EC030720F1
:10064000F0D8FFFF072000F08DFA08A901F8120D7D
:100650000522204600F04CFE00287FF47AAFFC20F3
:1006600000F080FA0DF10D018DF80C0003AA204670
:10067000082300F091FE00287FF46BAFD02000F03B
:1006800071FA0DF10D018DF80C0003AA2046082324
:1006900000F082FE054600287FF45CAF0A2001F0DE
:1006A00013FF032306A8049304AF059501F064FF2C
:1006B00006A83A46014601F079FF284600F052FAB2
:1006C0008DF80C0009E000F04DFA9DF80D308342E2
:1006D0003FF440AF002D7FF43DAF0DF10D0103AAB3
:1006E0000823204600F058FE0546042000F03AFAA0
:1006F0008046082000F036FA9DF80D3040EA0800E8
:10070000034038468DF80D3001F036FF384606A913
:1007100001F05AFF02284FF00800D4D1082000F061
:1007200021FA6FF06D0515E7072000F01BFA08A904
:1007300001F8140D0522204600F0DAFD00287FF4B0
:100740006EAF00F00FFA08AF07F8100D06A93A4691
:100750002046082300F020FE00287FF460AF8020B0
:1007600000F000FA9DF8183018423FF458AFD1203D
:1007700000F0F8F939468DF810000822204600F004
:100780005BFE00287FF44BAF052000F0EBF908A9D1
:1007900001F8150D0522204600F0AAFD00287FF47F
:1007A0003EAF0C2000F0DEF908A901F8160D052275
:1007B000204600F09DFD00287FF431AF042000F0BA
:1007C000D1F908A901F8170D0522204600F090FD87
:1007D00000287FF424AF072000F0C4F908A901F82D
:1007E000180D0522204600F083FD00287FF417AF86
:1007F000D02000F0B7F939468DF8100008222046C5
:1008000000F01AFE00287FF40AAF052000F0AAF9D4
:1008100008A901F8190D0522204600F069FD0028FD
:100820007FF4FDAE314D324F01E0BD4233D0204662
:1008300055F8041FFFF71EFD0028F6D02D4DF0E5FA
:10084000072000F08FF908A901F8100D05222046B5
:1008500000F04EFD054600287FF49DAE00F082F9C1
:100860000DF10F018DF80E000DF10E022046082348
:1008700000F092FDA0BB9DF80F508CE600252046AD
:1008800000F094FC84F8145484F8155484F8165439
:1008900084F81754C5E501462046FFF7EBFC0746F0
:1008A0000028CBD10E2000F05DF908A901F81A0D3F
:1008B0000522204600F01CFD0123054684F815742E
:1008C00084F8167484F8177484F81434A9E56FF06A
:1008D0001505A6E56FF05905A3E56FF06D05A0E5D8
:1008E000054658E64FF0FF359BE500BFE43D0800A4
:1008F000404F0800EFD8FFFF00B5ADF21C4D01F0EE
:100900007FFB6846FFF72CFD6846FFF735FDFBE7E8
:10091000FEE700BF08B5FFF7FBFF08BD08B5FFF70E
:10092000F7FF08BD08B5FFF7F3FF08BD08B5FFF7EF
:10093000EFFF08BD08B5FFF7EBFF08BD08B5FFF7EF
:10094000E7FF08BD08B5FFF7E3FF08BD08B5FFF7EF
:10095000DFFF08BD08B500F073FF08BD08B5FFF75D
:10096000D7FF08BD08B5FFF7D3FF08BD08B5FFF7EF
:10097000CFFF08BD08B5FFF7CBFF08BD08B5FFF7EF
:10098000C7FF08BD08B5FFF7C3FF08BD08B5FFF7EF
:10099000BFFF08BD08B5FFF7BBFF08BD08B500F0F5
:1009A00053FF08BD08B500F053FF08BD08B500F0BF
:1009B00053FF08BD08B5FFF7ABFF08BD08B5FFF74B
:1009C000A7FF08BD08B5FFF7A3FF08BD08B5FFF7EF
:1009D0009FFF08BD08B5FFF79BFF08BD08B5FFF7EF
:1009E00097FF08BD08B5FFF793FF08BD08B5FFF7EF
:1009F0008FFF08BD08B5FFF78BFF08BD08B5FFF7EF
:100A000087FF08BD08B5FFF783FF08BD08B5FFF7EE
:100A10007FFF08BD08B5FFF77BFF08BD08B5FFF7EE
:100A200077FF08BD08B5FFF773FF08BD08B5FFF7EE
:100A30006FFF08BD08B5FFF76BFF08BD08B5FFF7EE
:100A400067FF08BD08B5FFF763FF08BD08B5FFF7EE
:100A50005FFF08BD08B500F029FF08BD08B5FFF726
:100A600057FF08BD08B5FFF753FF08BD08B5FFF7EE
:100A70004FFF08BD08B5FFF74BFF08BD70B52D4B04
:100A80002D4D2E4C2E482F4940F201424FF4004686
:100A90006E6022601D4602601962AA6E254BD60761
:100AA000FBD5294A19461A628A6E224BD503FBD51B
:100AB0001A6B194622F0030242F001021A638A6E91
:100AC0001C4B1407FBD5214A19469A628A6E194BB2
:100AD0009007FBD511221A631A46916E154B090730
:100AE000FBD512221A639A6E1207FCD51849194ACF
:100AF00091420DD0184B9A420AD2D043034423F0BE
:100B0000030404340023C858D0500433A342FAD15C
:100B1000124B134A93420AD2D9430A4422F00301EA
:100B200019440022043B43F8042F8B42FBD1FFF70A
:100B3000E3FEFEE700060E40501A0E40000A0E408B
:100B4000000C0E400908370009083701013F0D204D
:100B50000053080000000720D0080720D008072015
:100B60001C14072000F0AA035B1000F0550243EAB2
:100B7000420202F0CC039B1002F0330243EA8203EC
:100B80001A0942EA0310C0B2704700BF00F05533A3
:100B90005B0000F0AA3143EA510101F033339B00BE
:100BA00001F0CC3243EA920202F00F331B0102F053
:100BB000F03243EA121303F0FF10000203F0FF23A8
:100BC00040EA13204FEA3040704700BF0346002040
:100BD00019605A60187258729872D87218735873E4
:100BE0009873D873704700BF2DE9F0410446C06880
:100BF000A36866680138C01A48BF8019904234BFA4
:100C000005461546F61A2068AE420F46184408D924
:100C10002A4602F035FFA36828462B44A360BDE8AE
:100C2000F0813246C6EB050802F02AFFB9194246A8
:100C3000206802F025FFC4F808802846BDE8F0814E
:100C4000F8B5C3688768466803F1FF3EBEEB070747
:100C500048BFBF19751EEF1B8C46974234BF3D46F7
:100C600015460168F61AAE4204461944604607D993
:100C70002A4602F005FFE36828462B44E360F8BDEE
:100C8000324602F0FDFEAF1B30443A46216802F0C6
:100C9000F7FEE7602846F8BDC2688368013A4068FD
:100CA000D31A48BF1B180138C01A7047024BC3F84B
:100CB00001000020704700BFEC080720F0B40F4A85
:100CC00092F90030012B16D00D4B4FF0010C4FF470
:100CD00000674FF480564FF400554FF480444FF4B2
:100CE00000404FF4803182F800C01F611E611D6119
:100CF0001C61186119610020F0BC704718140720AE
:100D000000060E4001600B6822B14A680020596954
:100D10005A6170474A68002019691A61704700BF1C
:100D200003681A685B6819B1116B00201363704780
:100D3000516B00205363704703681A685B6819B1F0
:100D40005169002053617047116900201361704799
:100D50000368426819B1196B00201A637047596B18
:100D600000205A63704700BFF8B5064632684068F5
:100D7000136801684768526800241F25D1F834E0E1
:100D80004F6300BF00BF196B1A6300BF00BF45FA75
:100D900004F15F6B01F001015A63FFF7D9FF00BF57
:100DA00000BF326813685268196B1A6300BF00BF36
:100DB000596B5A63706801684768D1F830C00F6397
:100DC00000BF00BFD3F830C01A6300BF00BFD3F824
:100DD00034C05A6300BF00BFD3F830C01A6300BFED
:100DE00000BF0134052CD3F834C05A63C6D10020AB
:100DF000F8BD00BFF8B505462A6840681368016869
:100E00004768526800240126D1F834E04F6300BFE0
:100E100000BF196B1A6300BF00BF596B5A6346FAD3
:100E200004F1FFF795FF00BF00BF2A6813685268FE
:100E3000196B1A6300BF00BF596B5A636868016879
:100E40004768D1F830C00F6300BF00BFD3F830C08F
:100E50001A6300BF00BFD3F834C05A6300BF00BF9D
:100E6000D3F830C01A6300BF00BF0134022CD3F89E
:100E700034C05A63C8D10020F8BD00BF2DE9F0414D
:100E80000746FFF7B7FF7B683A6819685868136828
:100E9000526842F20F7607254C6B486300BF00BFD3
:100EA0001C6B1A6300BF00BF5C6B5A6300BF00BFBE
:100EB0001C6B1A6300BF00BF5C6B5A634C694861CE
:100EC00000BF00BF196B1A6300BF00BF0020596B41
:100ED0005A6301F089FB78680168D0F804C0CC6BD4
:100EE0000B69C1F810C000BF00BF3A6813685268B0
:100EF000D3F830801A6300BF00BF1CEA0404D3F8A3
:100F000034805A6340D1D1F834E0C1F834C000BF16
:100F100000BF196B1A6300BF00BF45FA04F1D3F894
:100F200034E001F001015A63FFF712FF00BF00BF78
:100F30003A6813685268196B1A6300BF00BF596B97
:100F40005A6378680168D0F804C0D1F83080C1F8DD
:100F500030C000BF00BFD3F830801A6300BF00BFAD
:100F6000D3F834805A6300BF00BFD3F830801A63CF
:100F700000BF00BF0134042CD3F834805A63C2D1BF
:100F8000013E04D0604687E70020BDE8F0816FF0A5
:100F90006D00BDE8F08100BF10B584B00446FFF7D6
:100FA0006DFF034610B9184604B010BD0F4A002368
:100FB00002A80192009301F0DFFA02A801466A46F6
:100FC00001F0F4FA2046FFF759FF03466846002B6C
:100FD000E9D001F0D1FA684602A901F0F5FA022839
:100FE000F0D16FF06D03184604B010BD0065CD1D43
:100FF0002DE9F04F85B0894605469046029349B1E8
:10100000DA1D0846D208002102F0B0FD0E99CB018E
:1010100089F80030029B002B70D0686803F1FF3B19
:1010200001241FE0D36B19F80C200B420CBF0023E6
:10103000012303FA0AF3134309F80C3068682E6899
:1010400002683368416876681769116100BF00BFA4
:101050001A6B1E6300BF00BF5A6B029A01347245BF
:101060005E634FD96142671E01F00701FB08B8F1CA
:10107000000F41D018F8033043FA01F101F00101EB
:10108000FFF766FE00BF00BF2A6813685268196B3D
:101090001A6300BF00BF596B5A63B7EB0B03594289
:1010A00068685941FFF754FE00BF00BF2A68136803
:1010B00056681A6B1E6300BF00BF5A6B5E6300BFA9
:1010C00000BF1A6B1E6300BF00BFE24302F0070AB5
:1010D0005A6B5E634FEAD40C6868A646B9F1000FFC
:1010E000B4D0416802680191516901995F4551612D
:1010F00098D10199A646A7E74146C1E72A686868E2
:10110000136856680268416800240127D2F834E069
:10111000516300BF00BF1A6B1E6300BF00BF5A6B54
:1011200047FA04F15E63FFF713FE00BF00BF2A68B1
:10113000136856681A6B1E6300BF00BF5A6B5E636C
:10114000686802684168D2F830C0116300BF00BF10
:10115000D3F830C01E6300BF00BFD3F834C05E6355
:1011600000BF00BFD3F830C01E6300BF00BF013412
:10117000022CD3F834C05E63C8D1002005B0BDE8AE
:10118000F08F00BF30B40160836042604C68086833
:10119000116845694461526848694A615A681B6828
:1011A000002059695A6130BC704700BF10B5044631
:1011B000FFF7DAFD226800201368526859695A6106
:1011C00062681368526859695A61A2681368526864
:1011D00059695A6110BD00BF38B50446FFF7C4FD18
:1011E000606803684268596B5A6300BF00BF226899
:1011F00013685268196B1A6300BF00BF00215D6B52
:101200005A63FFF7A5FD00BF00BF2268136852684C
:10121000196B1A6300BF00BF596B5A63606801689D
:1012200040680C6B086300BF00BF196B1A6300BFF6
:1012300000BF596B5A6300BF00BF196B1A6300BF30
:1012400000BF0020596B5A6338BD00BF70B50268FB
:1012500005461368526819691A61596B5A636A68BE
:1012600001201368526819691A61596B5A63AA6898
:101270001E4E1368526819691A61596B5A63596B8B
:101280005A6301F0B1F9AA68FB2013685268196B20
:101290001A6301F0A9F9AA681F2413685268596BF0
:1012A0005A6346FA04F1686801F00101FFF750FD46
:1012B00000BF00BF2A6813685268196B1A6300BF29
:1012C00000BF013C596B5A63631CEAD1012001F055
:1012D0008BF9AA68012013685268196B1A6301F030
:1012E00083F92846BDE87040FFF776BF5048434D6C
:1012F0002DE9F0478246DAF8005040682C68036810
:10130000D0F804E06D6882B0894690460026032735
:101310005A6BC3F834E000BF00BF236B256300BFE6
:1013200000BF47FA06F1636B01F001016563FFF747
:101330000FFD00BF00BFDAF800301C685D68236B4A
:10134000256300BF00BF636B6563DAF804000368C0
:101350004268196B1A6300BF00BF216B256300BF91
:1013600000BF616B656300BF00BF216B256300BFD9
:1013700000BF0136042E616B4FF00001656301D0A0
:101380009646C5E7009150464A464346FFF730FE71
:1013900002B0BDE8F08700BF2DE9F043064683B0F8
:1013A00090461F468946FFF725FD736818685B68FD
:1013B000426B436300BF00BF326814685568226BFC
:1013C000256300BF00BF626B656300BF00BF226B77
:1013D000256300BF00BF626B65634269436100BF64
:1013E00000BF236B256300BF00BF0020636B6563F4
:1013F00001F0FAF8736818685B68C16B02690361F1
:1014000000BF00BF326814685568226B256300BFB7
:1014100000BF0B420CBF4FF0000E4FF0010E636B8C
:1014200030466563494642463B46CDF800E0FFF74B
:10143000DFFD03B0BDE8F08313460A460021FFF745
:10144000ABBF00BF2DE9F04188460746FFF7A4FD7A
:1014500008B1BDE8F0817B68196858684B6B486338
:1014600000BF00BF3A68136852681C6B1A6300BF64
:1014700000BF5C6B5A6300BF00BF1C6B1A6300BFE8
:1014800000BF5C6B5A634C69486100BF00BF196BB9
:101490001A6300BF00BF0020596B5A6301F0A4F823
:1014A000786804684168E56B2369216100BF00BF6B
:1014B000D7F800E0DEF80030DEF804201E6B1A6377
:1014C00000BF00BF29420CBF002101215D6B5A63A0
:1014D000C8F80010DEF804204668012500BF00BFF0
:1014E000196B1A6300BF00BF596B5A6300BF00BF7E
:1014F000196B1A6300BF00BF596B5A6300BF00BF6E
:10150000196B1A6300BF00BF596B5A636269666149
:1015100000BF00BF00BFE16BD8F800200E420CBF37
:1015200000210121A9400A43C8F800204668226929
:10153000266100BF00BFDEF80420196B1A6300BFEC
:1015400000BF0135202D596B5A63C7D1616B6663AB
:1015500000BF00BF196B1A6300BF00BF01215C6BA5
:101560005A63FFF7F5FB00BF00BF3A681368516884
:101570001A6B196300BF00BF5A6B5963786805681E
:1015800046682A6B2E6300BF00BF1A6B196300BF49
:1015900000BF5A6B596300BF00BF1A6B196300BFCD
:1015A00000BF00245A6B0A46596329460125D1F829
:1015B00034E04E6300BF00BF196B1A6300BF00BF69
:1015C000596B5A6345FA04F1FFF7C2FB00BF00BF35
:1015D0003A6813685268196B1A6300BF00BF596BF1
:1015E0005A63786801684668D1F830C00E6300BF5E
:1015F00000BFD3F830C01A6300BF00BFD3F834C0B7
:101600005A6300BF00BFD3F830C01A6300BF00BFE9
:101610000134022CD3F834C05A63C8D10020BDE88D
:10162000F08100BFF8B50C460646FFF7B5FC00B1E7
:10163000F8BD706803684268596B5A6300BF00BF09
:10164000326813685268196B1A6300BF00BF596B88
:101650005A6300BF00BF196B1A6300BF00BF596B0C
:101660005A6300BF00BF196B1A6300BF00BF596BFC
:101670005A6300BF00BF196B1A6300BF00BF1F256C
:10168000596B5A6304F00101FFF762FB640800BF65
:1016900000BF326813685268196B1A6300BF00BF3D
:1016A000596B5A63706801684768D1F834E04F633A
:1016B00000BF00BF196B1A6300BF00BF596B5A63AC
:1016C00000BF00BF196B1A6300BF00BF596B5A639C
:1016D00000BF00BF196B1A6300BF00BF013D596B0B
:1016E0005A63CFD104F00101FFF732FB00BF00BF06
:1016F0003268136851681A6B196300BF00BF5A6BD8
:1017000059637068056847682A6B2F6300BF00BF84
:101710001A6B196300BF00BF5A6B596300BF00BF4B
:101720001A6B196300BF00BF5A6B596300BF00BF3B
:101730001A6B196300BF00BF00245A6B0A46596335
:1017400029460125D1F834E04F6300BF00BF196B73
:101750001A6300BF00BF596B5A6345FA04F1FFF7E3
:10176000F7FA00BF00BF326813685268196B1A633A
:1017700000BF00BF596B5A63706801684768D1F8B1
:1017800030C00F6300BF00BFD3F830C01A6300BF82
:1017900000BFD3F834C05A6300BF00BFD3F830C0D5
:1017A0001A6300BF00BF0134022CD3F834C05A635F
:1017B000C8D10020F8BD00BF70B51E4BC0EBC004FF
:1017C00000EB8400C4182668DEB163685A691D699D
:1017D0001540EA0625D42B0713D515F0E00F11D0DC
:1017E00015480122002301F065F804F11C05636827
:1017F0000122D3F80011C3F80051D3F80411C3F843
:10180000042170BD04F11C0530462946012201F077
:10181000EDF90128EBD001220023084801F04AF835
:10182000E5E71022D968DA60D6F86200002100F0FE
:10183000ABFDD0E734000720240907200409072066
:101840000020FFF7B9BF00BF0120FFF7B5BF00BF01
:101850000220FFF7B1BF00BF0320FFF7ADBF00BFFD
:1018600038B50D4C94F90030012B13D00B490022F0
:10187000002301250A48257001F006F8084801F008
:1018800025F8084808490022002300F0FDFF05481C
:1018900001F01CF8002038BD20090720C04F0800C7
:1018A0000409072024090720E44F080008B5024B6B
:1018B00018680368984708BDA80007202DE9F04F75
:1018C000436880465D6883B06F6838071CD54FF069
:1018D000FF3342F23201D5F8002188F8303088F821
:1018E000313088F8323088F833300122C5F80011E1
:1018F000EB69EA610423D5F8F021C5F8F0312B68D3
:101900002A6843F080032B60D5F8303159072BD477
:1019100001244FF4805B4FF002094FF4804602E04F
:1019200001340A2C1BD00BFA04F33B4205EB840A6A
:10193000F6D0A31C58F823000028F1D0DAF8303193
:101940009B07EDD5DAF86031CAF86091436801343D
:1019500098470A2CDAF82032CAF82062E3D1AB6843
:10196000AF6003B0BDE8F08F784B79480DF1FF32DE
:1019700013F8011B834202F8011FF9D1D8F8043093
:10198000022258680423D0F86011C0F86021D5F80D
:101990006021C5F86031D5F83031DA07FBD59DF804
:1019A000002012F060031FD0202B39D1D8F8383036
:1019B000002BC8BF002404DC32E0D8F838309C4249
:1019C0002EDAD8F83430694653F82400013483689D
:1019D00098470028F1D1D8F8043001225B68D3F889
:1019E0006011C3F8602193E79DF8011006294AD0E1
:1019F00009291CD0052913D10123D0F86021BDF895
:101A00000220C0F86031D0F83031DB07FBD5036825
:101A100002F07F0223F07F0313430268036077E73D
:101A20004FF40023D5F8F021C5F8F03170E7120724
:101A300023D143F26203D0F80821C0F80831C3690A
:101A4000C26943F00403C3618369022243F4804303
:101A500081698361D0F8F831C0F8F82143F262134C
:101A6000D0F80C21C0F80C31C369C26943F00803F7
:101A7000C361BDF80230C8F830300123D0F86021CE
:101A8000C0F8603144E79DF80320BDF80640012A04
:101A900049D0022AC4D1A446D8F83C90002C3FF487
:101AA00037AFD9F8044009F10809002C3FF430AFF2
:101AB00026494FF0010A2278944538BF6246C2EBAE
:101AC0000C0CBAB13F2B29D8A2B114F8016B013329
:101AD000402B02F1FF3201F8016BF5D1D0F86031F3
:101AE000C0F860A1D0F83031DE07FBD517490023DC
:101AF000002AE7D1BCF1000F03D059F8044B002CA9
:101B0000D9D1002B3FF404AF0123D0F86021C0F8F5
:101B10006031D0F83031D907FBD5F9E6402BDDD064
:101B2000002ACFD1E6E7D8F83C301A68002CA4D0C0
:101B300004F10054054B04F5C014013A12F8011FDA
:101B400003F8011BA342F9D197E700BF000018205A
:101B500008001820044B002093F90020012A1CBF24
:101B600001221A70704700BF40090720F8B5069D92
:101B70004FF0FF34002B0646416042638363C56328
:101B800080F8304080F8314080F8324080F83340AF
:101B90001EDD02EB8300134653F8041B83420E60E4
:101BA000FAD10D4B0027336052F82740002503E09F
:101BB000023046F820400135E36820462946984720
:101BC0000028F5DAB36B01379F4203DA726BEBE75B
:101BD000014B03600020F8BDBD18080010B4274B6E
:101BE0004FF44411C3F801004468254B206062683B
:101BF0001846D961836E22495B06FBD5202301205C
:101C000088630B60A3681F2B2CDC1E491940002938
:101C10002EDB012088401A490861002BB8BF1F3312
:101C20005B119B0003F1604303F561431649C3F860
:101C300080011860D2F80038C2F80018D2F80438D1
:101C40005B04FBD5114BD2F80018C2F8003841F202
:101C500008019369002391611168184613605DF8CB
:101C6000044B704703F01F04A040C1F80001D4E703
:101C7000013961F01F010144CBE700BF4009072093
:101C800000060E401F00008000B0000200B10002FC
:101C9000F8B504460D4616461F4600F033FA636851
:101CA000EC035B68A90004F1005404F5C0145A1851
:101CB000D2F83051E807FBD537B1E51916F8012BFA
:101CC00004F8012BAC42F9D15A180121D2F8603145
:101CD000C2F860114FF48043D2F82012C2F82032CB
:101CE00000F012FA3846F8BD30B4406844680298F3
:101CF000B9B101F14C0554F82540240D844238BF98
:101D0000204660B102EBC13202F1005202F5C0126E
:101D1000141812F8011BA24203F8011BF9D130BCC0
:101D20007047D4F830219207FBD5C2B2511EC9B218
:101D300042B10C4D0C4A0D4412F8011BAA4203F8A3
:101D4000011BF9D10222D4F86031C4F860210123CB
:101D5000D4F86021C4F86031D4F83031DB07FBD50A
:101D600030BC70470100182000001820F0B4406813
:101D7000CC03476804F100548900184604F5C014E8
:101D80007E18D6F83051EB07FBD5261828B112F88B
:101D9000015B04F8015BB442F9D17A180121D2F851
:101DA0006031C2F860114FF48043D2F82012C2F8BB
:101DB0002032F0BC704700BF43684C315B6853F879
:101DC0002100000D704700BF31B1012901D18069A8
:101DD00070474FF0FF3070474069704710B40446B9
:101DE000134650F8270C0A4654F80F1C5DF8044BB4
:101DF000FFF74EBF2DE9F041054684B000686969E0
:101E0000FFF7DAFF05F14B078046002408266969D1
:101E10002246286802AB0096FFF766FF031E02A960
:101E20001C4438461A4604DC03EAE37004B0BDE8FB
:101E3000F08100F0DBFEA0450346F5D90028E6DC82
:101E400003EAE37004B0BDE8F08100BF70B50C7820
:101E500084B004F00F04012C054602D0012004B028
:101E600070BD02698B889A4202D0204604B070BDD2
:101E70003220039100F0B8FB03990B7823F07F0325
:101E800003F0FF067BB15EB14B78212B08D12A46C7
:101E900052F8200B00210723FFF768FF0020DEE740
:101EA0004FF0FF30DBE74B78222B0ED0232B17D0DF
:101EB000202BF5D12B46072253F8200B31460092F8
:101EC0003246FFF711FF3046C9E74A882B68EA61BE
:101ED0005B6830465B68D3F86021C3F86041BEE7B9
:101EE0002E776E77AE77EE773046B8E7F8B5DFF845
:101EF00078E0184F184E04466FF0690C0020079DDB
:101F000021616261A36120776077A077E07784F830
:101F1000200084F8220084F8230084F8240084F848
:101F2000250084F82600C4F804E0A760E66084F881
:101F300021C004F127000949094A0A4B00F0DEFCE0
:101F40002DB104F14B002A46069900F0E5FE002071
:101F5000F8BD00BF4D1E0800C91D0800E928080093
:101F6000DD1D0800F5280800F51D0800C0690030D7
:101F700018BF0120704700BF044B002093F90020D8
:101F8000012A1CBF01221A70704700BF48090720B0
:101F900010B462B1074C0A4411F8013B83EA1023E4
:101FA00034F81330914283EA002080B2F4D15DF816
:101FB000044B7047FC4F080008B501F051FD00BF0D
:101FC00008B50C4B0C49D3F8052001328A42C3F8FE
:101FD000052008D1D3F8012000210132C3F80120E7
:101FE0001A7919725A6000F049FBBDE8084000F008
:101FF000D1B800BF4C090720D0FFFF7FFEE700BF2C
:1020000038B500F045FD1C4C606000F041FDA0605B
:1020100000F05EFB00F034F9184B93F90020012A20
:1020200007D0174A1748012503211D705060116021
:1020300062B6FFF7A1FFFEF741FEFFF711FCFFF7C5
:1020400089FD00F097FB00F097FB00F0BBFB00F070
:10205000D1FB68B1606000F0D1FB30B1A06000F04E
:10206000CDFBFEF723FE002038BD00F011FDF5E7A3
:1020700000F00EFDEEE700BF640407204C090720C6
:1020800010E000E0A086010070B5002282B0034697
:10209000009272B611490192D1F80150D1F80500B1
:1020A00062B60F496424A1FB0062520904FB1200CE
:1020B0000C4C0D4E04FB00F0A1FB00414FF47A7470
:1020C000490906FB052204FB01F11A605960184614
:1020D00019466A4600F06AFA02B070BD4C09072042
:1020E0001F85EB5140420F0014AE4701014B586869
:1020F000704700BF64040720014B9868704700BF19
:102100006404072072B6704762B67047704700BF1C
:10211000704700BF00B52DE9F00F6B464B61436976
:102120009D46BDE8F00F00BD62B65046C847014B62
:10213000984700BF8121080030B40F4AD2F805301B
:10214000D2F8011013B11868C2F805005B680020CE
:10215000994258760ED00948C2F8013005690A69DB
:102160008C682A44121B0A61026930BC18469A60C6
:10217000FFF7D0BF30BC7047080B072000000840B5
:102180000120FFF719BF00BF014BD3F801007047D2
:10219000080B0720704700BF002303704370837053
:1021A000C3701846704700BF70B4066800240C70F6
:1021B0004C708C70CC70C6B14B6893F91850334694
:1021C00000E013465A6892F91820AA4206DC1A6801
:1021D0001C46002AF5D1196070BC704724B12368F1
:1021E0000B60216070BC70470E60016070BC70476E
:1021F000F8B5069E1F4F1C464FF0010C00234FF010
:102200000F0EA6F12F052276646084F819C084F8B9
:102210001EE0C4F82370C4F82B50A376E37623772E
:102220006377E37784F8203084F8213084F8223013
:1022300004F12F022DB1A519192302F8013BAA427E
:10224000FBD10D4D0D4AD5F80970A6F124032344A6
:102250006361C4F82770586199611A62C5F8094032
:10226000FFF750FF681D2146FFF79EFFFFF74CFF69
:102270002046F8BD4C520800080B07202921080011
:102280002DE9F0432A4D85B095F90030012B4AD055
:10229000284C0023206AA16A274E04AA2F7900F057
:1022A0007F4902F8013D01F07F40DFF8A0C004F152
:1022B0005E01C4EB060E4FF00F080126511AC4F858
:1022C0002090A062646084F81E80C4F823C0C4F823
:1022D0002BE023762B7263766383A383E37784F802
:1022E00027306F602E7007D004F12E031944192295
:1022F00003F8012F8B42FBD1104B114903224FF001
:10230000006E05274FF4D876C5F801400D48C1F896
:1023100010E05A6000211F607F220B4B0096C5F829
:102320000940FFF765FF002005B0BDE8F08300BF5E
:10233000080B07201C140720C97F08200000084054
:1023400000060E40D923080058090720FC51080058
:102350000146012010B400234FF0FF326FF06D04EE
:1023600048768C76CB7781F8203081F8213081F85F
:102370002230CA760A774A7702485DF8044BFFF7A5
:1023800013BF00BF0D0B072010B590F9193004469C
:10239000022BC0F81A1007D0042B1DBF032343766D
:1023A00000204FF0FF3010BDD0F81F0001236376EE
:1023B00048B100F0D1F90023E37784F8203084F8A5
:1023C000213084F8223021460248FFF7EDFE00203C
:1023D00010BD00BF0D0B072038B50A4A0A4BD2F8D2
:1023E00001400125C4F8233030BFFFF78DFEFFF711
:1023F00089FE214605486576FFF7D6FEFFF79CFE6D
:10240000F2E700BF080B0720045208000D0B07205D
:1024100030B5174B89B0D3F8014094F91920032A3D
:102420001FD00223637680B10368002B13DD02AD59
:1024300000230146C4F81F50284600930D4A234646
:1024400000F048F9284600F073F9FFF775FED4F85C
:102450001A0009B030BD4368002BE8DC6FF06D0056
:10246000F7E70122581D62762146FFF79DFEECE753
:10247000080B07205123080010B50446FFF742FE61
:102480002046FFF7C5FF0446FFF73EFE204610BD7D
:102490000B4BC11783FB00230A4AC1EBA34302FB8A
:1024A000130000B54FF47A7202FB00F283B0684665
:1024B00000930192FFF7E0FF002003B05DF804FBFA
:1024C00083DE1B4340420F004FF47A7202FB00F0A0
:1024D0000A4B10B583FB0013C4170949C4EBA3438F
:1024E00001FB130002FB00F282B0684600930192E8
:1024F000FFF7C2FF002002B010BD00BF83DE1B4308
:1025000040420F0003680BB11A680260184670471A
:102510004368154A93420BDA02681449013A194498
:1025200002604160002A0EDD4368002B15DB704716
:102530000F4A93420268F5DD0E4901321944002A20
:1025400002604160F0DCF2D041680029EFDD094B08
:1025500001320B440260436070470449013A194458
:1025600002604160704700BF013665C400CA9A3BF3
:10257000FFC99A3B003665C438B50446FFF784FDB1
:10258000054668B9084B20681A68616802442260F1
:102590005B6820460B446360FFF7BAFF284638BDEE
:1025A0004FF0FF35FAE700BF180B072038B50D686C
:1025B00014682C440460496852680A444260FFF77A
:1025C000A7FF002038BD00BF02680B689A4204D004
:1025D00001DB022070470020704742684B689A4236
:1025E000F6D10120704700BF28B1C0EBC0008000C9
:1025F00001387FF4FDAF704770B405684B686A68B6
:10260000934201D814E025469B1A4B602C686268FF
:102610009A42F8D3061DB4421CBFC3EB02036360A9
:102620000C6015B1296070BC7047016070BC7047C8
:102630002C460025EEE700BF0268E2B18A4203D1D2
:1026400015E0994205D01A461368002BF9D11846B7
:102650007047196811601A680430824205D05968C1
:10266000536801200B445360704701207047116884
:1026700013460160EFE71046704700BFF8B5134DF1
:10268000FFF744FD2B4653F8044B9C4211D063687E
:102690002E46013B63602F465BB923682B6023699C
:1026A00060699847E368DB0707D434686368002BE8
:1026B000F3D0BDE8F840FFF72BBDA3682146636067
:1026C0000248FFF799FF3C686368E5E7700407205C
:1026D00000207047F0B44D68134C05F2E73584FBD9
:1026E0000564ED17C5EBA414642505FB04F40F4E37
:1026F00004F5742404F23F2486FB04760968E41789
:10270000C4EBA64405FB0144049954B90125447265
:102710008472C4720572C16002614361F0BC002022
:1027200070478460F7E700BFD34D621083DE1B4320
:1027300008B5C268836892074360014657BF0133FA
:10274000034804484B60FFF757FF002008BD00BF57
:102750008C04072070040720C268054B014612F064
:10276000020F03F11C0008BF1846FFF765BF00BF4A
:10277000700407200020704730B50F4C83B004F17F
:10278000450504F1E1024FF400638DE80C00284692
:10279000002102220323FFF7A9FB084B601C0093D2
:1027A00004F1410206490123C4F84150FFF7DEF964
:1027B000002003B030BD00BF200B07200000072021
:1027C000A800072008B50848FFF708FA02E0074804
:1027D000FFF75EFE0648FFF7C9FB0028F7D0034865
:1027E000FFF756FE002008BD210B0720A086010040
:1027F000650B072000487047B00B07200048704762
:102800008C0B0720F8B50128069B0AD000221A7409
:102810005A749A74DA741A755A759A75DA750020B2
:10282000F8BD5D691C69104623462A46014900F03F
:1028300083FCF4E71C520800F8B5124F0546D7F8A0
:102840000140B4B1002603E0E36826465BB11C46B4
:102850002868216800F086FC0028F5DAEC6066B193
:10286000F5600020F8BD2B736B73AB73EB732646DA
:10287000F6E7047344738473C473C7F801500020EF
:10288000F8BD00BF0414072030B4094D0024456092
:10289000047344738473C473047644768476C47674
:1028A0000160806002614361204630BC704700BF18
:1028B0000528080030B4014604694D69121943EB3C
:1028C000050300200A614B6130BC704710B5044617
:1028D000FFF7B2FF034B0020D3F80920C3F80940EB
:1028E000A26110BD041407204FF0FF30704700BFF5
:1028F00010467047012070470020704770B40F4E9B
:102900000F4D00244661C560047444748474C4741B
:10291000047644768476C476047744778477C477E3
:1029200080F8204080F8214080F8224080F8234041
:10293000016042608360204670BC7047F128080047
:10294000F928080041610020704700BF034B0029AF
:1029500008BF1946C1600020704700BFF928080071
:1029600070B5036904460E46154613B19847012811
:1029700005D031462A4663682046984770BD2846F0
:1029800070BD00BF08B5C368984708BD38B5044698
:102990000D46FFF7B7FBA3686268934209D0216830
:1029A0005A1C41F823500025A260FFF7ADFB2846D2
:1029B00038BD6FF00B05F8E7F8B505460F46002463
:1029C000FFF7A0FBAB689C4215D3002453B12B68E2
:1029D00053F82460FFF7D8FB3562F061AB6801342F
:1029E000A342F4D83846FFF713FD6E300CD0AB6825
:1029F00000249C42E9D22B6853F82460B368304627
:102A00009847C0B90134DDE7A86898B12968002269
:102A100001EB800051F8043B81421A775A779A778C
:102A2000DA7783F8202083F8212083F8222083F8A6
:102A30002320EFD10026FFF767FB3046F8BD00BF2B
:102A400030B5034685B00C461946002301220DEB34
:102A5000030501A8029203930195FFF797FF01A8D0
:102A60002146FFF7A9FF05B030BD00BF70B50D4688
:102A7000194616460446FFF7E3FF28B129463246B9
:102A800023682046984770BD6FF06D0070BD00BF91
:102A9000004870475452080070B4036AE3B19D685F
:102AA000BDB100241E682146224656F8243001316B
:102AB000984283F8202083F8212083F8222083F88D
:102AC00023200C4603D01A775A779A77DA77A942EF
:102AD000EBD1012070BC7047184670BC704700BF36
:102AE00005290ED0062903D06FF01503184670474C
:102AF000D0F84D20002322F00102C0F84D201846E6
:102B00007047D0F84D20002342F00102C0F84D205C
:102B1000184670472DE9F04780460F469146FFF76B
:102B2000F1FAD8F83830002B43D0394608F13C0090
:102B30004A46FEF785F80744C0EB0906D8F8284056
:102B400008F1240A38460CB376B32569A168AE4271
:102B500038BF35462A4600F093FFD8F828402F4466
:102B6000A26823692A445B1B761BA2602361002BA9
:102B7000E8D1E1686068FFF707FC5046FFF7C2FC48
:102B80000446C8F828003846002CDDD166B198F814
:102B90004C30022B0FD0D8F84D30DB0712D5B9EBF3
:102BA000060908BF6FF00A09FFF7AEFA4846BDE80C
:102BB000F0874E46C2E7C6EB0909FFF7A5FA48467B
:102BC000BDE8F087FFF7E0FAC8F83090C8F81C00BD
:102BD000C8F82C70C8F834602046FFF719FC81460D
:102BE000FFF792FA4846BDE8F08700BF2DE9F041B3
:102BF0000F4616460446FFF74FFF68BB94F84C306B
:102C0000022B42D0E3691BB3656B3946AE4238BF35
:102C100035462A46E06A00F033FFE36AD4F8348090
:102C20002B44C5EB08082F44E362C4F83480751BBD
:102C3000B8F1000F1AD045B1A36B33B12A4604F1A5
:102C40003C003946FDF7D0FF2D1A701BBDE8F0811E
:102C50003546002DF9D0EFE7E0690021FFF794FB3E
:102C6000002323776377A377E377C7E7E069216BD6
:102C7000FFF78AFB84F81C8084F81D8084F81E808E
:102C800084F81F80002DE0D0D6E74FF0FF30BDE87C
:102C9000F08100BF2DE9F041064686B00F4615468B
:102CA000FFF730FA304639462A46FFF79FFF041EE9
:102CB00002DBB5EB040805D1FFF726FA204606B083
:102CC000BDE8F081FFF760FAB36A3C4403940290D8
:102CD0000495CDF8148073B106F1240001A9FFF723
:102CE00063FA0020FFF794FB0446FFF70DFA204635
:102CF00006B0BDE8F08101ABB362F2E710B504465F
:102D0000806B18B104F13C00FDF7C6FFA36A03B164
:102D10001B69184410BD00BF70B5244B04460D4616
:102D200016462349234AFFF7E9FD23492046FFF7CA
:102D300009FE22492046FFF709FE04F12400FFF7AF
:102D40002BFA0023A56384F8283084F8293084F80E
:102D50002A3084F82B3084F82C3084F82D3084F815
:102D60002E3084F82F3084F8303084F8313084F8F5
:102D7000323084F8333084F8343084F8353084F8D5
:102D8000363084F837302DB12946324604F13C0004
:102D9000FDF71CFF002084F84C0084F84D0084F8F7
:102DA0004E0084F84F0084F8500070BDFD2C0800E0
:102DB000152B0800952C0800ED2B0800E12A0800CF
:102DC000F0B41C686928276804F104041C603D46BF
:102DD000059E1CD064281AD00139B5FBF2F302FB22
:102DE0001354E4B2092C84BF2734E4B230340846CB
:102DF0000C701D460139002BEFD133780246012BB0
:102E000003D12D23084602F8013CF0BC7047002F87
:102E1000E2DA01237D423370DEE700BF4A6810B575
:102E20008B1801324A6018728B69102A03F1010372
:102E30000C468B6100D010BD51F8080BFFF790FDD8
:102E4000002323716371A371E37110BD00000000C2
:102E50002DE9F04F00248DB0814688461746039334
:102E60008DF82E40387838B1252808D041460137F2
:102E7000C84738780028F7D10DB0BDE8F08F7878D2
:102E8000302800F00C812D2800F0098102374FF026
:102E9000200AA0F13003DAB2092A4FF000060AD85E
:102EA00017F8010B06EB860603EB4606A0F130038C
:102EB000DAB2092AF4D96C2803BF387801217F18C7
:102EC00000210028D8D00022A0F153038DF81B2048
:102ED000252B00F2E180DFE813F06A00DF00DF005D
:102EE000DF00DF00DF00DF00DF00DF00DF00DF00EA
:102EF000DF00DF00DF00DF00DF005C00D700DF0065
:102F00007700DF00DF00D700DF00DF00DF00DF0039
:102F1000DF00DF00DF00DF00DF006A00DF00D70036
:102F2000DF00DF0026000DF11B038DE80A0078208A
:102F30000DF12E011022039BFFF742FF9DF81BC0ED
:102F40000446451C007828B12B4613F8012B013E9E
:102F5000002AFAD1BAF12D0F0BD0BCF1010F00F00D
:102F6000A380002E04DD50464146C847013EFAD1F9
:102F7000207828B14146C84714F8010F0028F9D13C
:102F8000002E7FF76FAF20204146C847013EFAD19F
:102F900068E7039C0DF12E0523684FF0000C1878AC
:102FA000043323608DF82D000DF12D04CBE7039C35
:102FB00023681A1D22601C68002C00F0888020788D
:102FC000651C4FF0000CBEE7039C00222168002323
:102FD000073121F0070101F108002060D1E9004527
:102FE0002046294600F0F4FC002865D18446294695
:102FF0002046CDF808C000F013FD834600F000FA2B
:1030000002460B462046294600F0BCF834A3D3E91B
:10301000002300F06BFA00F003FDDDF808C00DF1AD
:103020002E020AA9304CA4FB0043DB0803EB830407
:10303000A0EB4400303002F8010D8A421846F1D16D
:103040002E238DF82730BBF1000F45D00DF126025D
:103050005B4625481446A0FB0301C90801EB81002B
:10306000A3EB400303F1300002F801090B460029ED
:10307000EFD1BCF1010F03BF2D2004F8010C04F1C6
:10308000FF342078651C5EE70DF11B038DE80A0014
:103090000A220DF12E014EE74146C847E2E682467C
:1030A000033717F8010CF4E6BAF1300F7FF459AF8B
:1030B0004146C8472C4654E705F10040049405906A
:1030C0004FF0010CDDE904458DF81BC08FE7074D7B
:1030D000A44628206C1E37E70DF12704C9E700BF7E
:1030E0000000000080842E41CDCCCCCC7952080069
:1030F00070B5044615460E4600680321FFF742FCF2
:1031000032462B4621460B48FFF7A2FE6268002A92
:1031100009DD214651F8080BFFF722FC002323713B
:103120006371A371E37120680421BDE87040FFF76B
:1031300029BC00BF1D2E08000EB410B589B00BAB22
:1031400053F8041B0190002401A86A4600930294DE
:103150000794FFF7CDFF079809B0BDE8104003B012
:10316000704700BF00E03BB110F8013B11F8012BA4
:103170009342F8D0981A70471846704781F0004182
:1031800002E000BF83F0004330B54FEA41044FEA4C
:10319000430594EA050F08BF90EA020F1FBF54EAE7
:1031A000000C55EA020C7FEA645C7FEA655C00F083
:1031B000E2804FEA5454D4EB5555B8BF6D420CDD54
:1031C0002C4480EA020281EA030382EA000083EAD7
:1031D000010180EA020281EA0303362D88BF30BD77
:1031E00011F0004F4FEA01314FF4801C4CEA1131CD
:1031F00002D0404261EB410113F0004F4FEA03332C
:103200004CEA133302D0524263EB430394EA050FB6
:1032100000F0A780A4F10104D5F1200E0DDB02FA25
:103220000EFC22FA05F2801841F1000103FA0EF2B9
:10323000801843FA05F359410EE0A5F120050EF17F
:10324000200E012A03FA0EFC28BF4CF0020C43FAB0
:1032500005F3C01851EBE37101F0004507D54FF0BD
:10326000000EDCF1000C7EEB00006EEB0101B1F50D
:10327000801F1BD3B1F5001F0CD349085FEA300053
:103280004FEA3C0C04F101044FEA445212F5800F5E
:1032900080F09A80BCF1004F08BF5FEA500C50F1FB
:1032A000000041EB045141EA050130BD5FEA4C0CDE
:1032B000404141EB010111F4801FA4F10104E9D167
:1032C00091F0000F04BF01460020B1FA81F308BF5E
:1032D0002033A3F10B03B3F120020CDA0C3208DD2A
:1032E00002F1140CC2F10C0201FA0CF021FA02F105
:1032F0000CE002F11402D8BFC2F1200C01FA02F175
:1033000020FA0CFCDCBF41EA0C019040E41AA2BF99
:1033100001EB0451294330BD6FEA04041F3C1CDA61
:103320000C340EDC04F11404C4F1200220FA04F081
:1033300001FA02F340EA030021FA04F345EA03012B
:1033400030BDC4F10C04C4F1200220FA02F001FAED
:1033500004F340EA0300294630BD21FA04F029466F
:1033600030BD94F0000F83F4801306BF81F4801108
:103370000134013D4EE77FEA645C18BF7FEA655C7B
:1033800029D094EA050F08BF90EA020F05D054EA4D
:10339000000C04BF1946104630BD91EA030F1EBF52
:1033A0000021002030BD5FEA545C05D14000494156
:1033B00028BF41F0004130BD14F580043CBF01F549
:1033C000801130BD01F0004545F0FE4141F470012F
:1033D0004FF0000030BD7FEA645C1ABF194610460A
:1033E0007FEA655C1CBF0B46024650EA013406BF0B
:1033F00052EA033591EA030F41F4002130BD00BFCA
:1034000090F0000F04BF0021704730B54FF4806486
:1034100004F132044FF000054FF0000150E700BF07
:1034200090F0000F04BF0021704730B54FF4806466
:1034300004F1320410F0004548BF40424FF0000153
:103440003EE700BF42004FEAE2014FEA31014FEA96
:1034500002701FBF12F07F4393F07F4F81F06051E5
:10346000704792F0000F14BF93F07F4F704730B554
:103470004FF4607401F0004521F0004120E700BFE7
:1034800050EA010208BF704730B54FF000050AE06E
:1034900050EA010208BF704730B511F0004502D56F
:1034A000404261EB41014FF4806404F132045FEA71
:1034B000915C3FF4DCAE4FF003025FEADC0C18BF16
:1034C00003325FEADC0C18BF033202EBDC02C2F10C
:1034D000200300FA03FC20FA02F001FA03FE40EA9E
:1034E0000E0021FA02F11444C1E600BF70B54FF09E
:1034F000FF0C4CF4E06C1CEA11541DBF1CEA135580
:1035000094EA0C0F95EA0C0F00F0DEF82C4481EAE7
:10351000030621EA4C5123EA4C5350EA013518BF07
:1035200052EA033541F4801143F4801338D0A0FBF4
:1035300002CE4FF00005E1FB02E506F00042E0FBA1
:1035400003E54FF00006E1FB03569CF0000F18BFA7
:103550004EF0010EA4F1FF04B6F5007F64F540744F
:1035600004D25FEA4E0E6D4146EB060642EAC621E2
:1035700041EA55514FEAC52040EA5E504FEACE2E4F
:10358000B4F1FD0C88BFBCF5E06F1ED8BEF1004F52
:1035900008BF5FEA500E50F1000041EB045170BDCE
:1035A00006F0004646EA010140EA020081EA030112
:1035B000B4EB5C04C2BFD4EB0C0541EA045170BD0E
:1035C00041F480114FF0000E013C00F3AB8014F188
:1035D000360FDEBF002001F0004170BDC4F10004D1
:1035E000203C35DA0C341BDC04F11404C4F1200552
:1035F00000FA05F320FA04F001FA05F240EA0200AD
:1036000001F0004221F0004110EBD37021FA04F6E2
:1036100042EB06015EEA430E08BF20EAD37070BD9C
:10362000C4F10C04C4F1200500FA04F320FA05F0FB
:1036300001FA04F240EA020001F0004110EBD370FD
:1036400041F100015EEA430E08BF20EAD37070BD6D
:10365000C4F1200500FA05F24EEA020E20FA04F346
:1036600001FA05F243EA020321FA04F001F00041F5
:1036700021FA04F220EA020000EBD3705EEA430E66
:1036800008BF20EAD37070BD94F0000F0FD101F095
:103690000046400041EB010111F4801F08BF013CCE
:1036A000F7D041EA060195F0000F18BF704703F00C
:1036B0000046520043EB030313F4801F08BF013D93
:1036C000F7D043EA0603704794EA0C0F0CEA13554F
:1036D00018BF95EA0C0F0CD050EA410618BF52EA09
:1036E0004306D1D181EA030101F000414FF000000F
:1036F00070BD50EA410606BF1046194652EA43061D
:1037000019D094EA0C0F02D150EA013613D195EA90
:103710000C0F05D152EA03361CBF104619460AD1D8
:1037200081EA030101F0004141F0FE4141F47001E2
:103730004FF0000070BD41F0FE4141F4780170BDD2
:1037400070B54FF0FF0C4CF4E06C1CEA11541DBF37
:103750001CEA135594EA0C0F95EA0C0F00F0A7F839
:10376000A4EB050481EA030E52EA03354FEA013166
:1037700000F088804FEA03334FF0805545EA131379
:1037800043EA12634FEA022245EA111545EA106541
:103790004FEA00260EF000419D4208BF964244F1D8
:1037A000FD0404F5407402D25B084FEA3202B61AF7
:1037B00065EB03055B084FEA32024FF480104FF4CB
:1037C000002CB6EB020E75EB030E22BFB61A75463F
:1037D00040EA0C005B084FEA3202B6EB020E75EBD2
:1037E000030E22BFB61A754640EA5C005B084FEA3A
:1037F0003202B6EB020E75EB030E22BFB61A754607
:1038000040EA9C005B084FEA3202B6EB020E75EB11
:10381000030E22BFB61A754640EADC0055EA060ED2
:1038200018D04FEA051545EA16754FEA06164FEA15
:10383000C30343EA52734FEAC2025FEA1C1CC0D1C1
:1038400011F4801F0BD141EA00014FF000004FF04E
:10385000004CB6E711F4801F04BF01430020B4F10F
:10386000FD0C88BFBCF5E06F3FF6AFAEB5EB030CC7
:1038700004BFB6EB020C5FEA500C50F1000041EBC4
:10388000045170BD0EF0004E4EEA113114EB5C0491
:10389000C2BFD4EB0C0541EA045170BD41F4801164
:1038A0004FF0000E013C90E645EA060E8DE60CEA6C
:1038B000135594EA0C0F08BF95EA0C0F3FF43BAF89
:1038C00094EA0C0F0AD150EA01347FF434AF95EA40
:1038D0000C0F7FF425AF104619462CE795EA0C0F24
:1038E00006D152EA03353FF4FDAE1046194622E7F1
:1038F00050EA410618BF52EA43067FF4C5AE50EACB
:1039000041047FF40DAF52EA43057FF4EBAE12E7BA
:103910004FF0FF3C06E000BF4FF0010C02E000BF9B
:103920004FF0010C4DF804CD4FEA410C7FEA6C5C7E
:103930004FEA430C18BF7FEA6C5C1BD001B050EA21
:10394000410C0CBF52EA430C91EA030F02BF90EA0C
:10395000020F0020704710F1000F91EA030F58BFCB
:10396000994208BF90422CBFD8176FEAE37040F02D
:10397000010070474FEA410C7FEA6C5C02D150EACB
:10398000013C07D14FEA430C7FEA6C5CD6D152EA86
:10399000033CD3D05DF8040B704700BF844610464B
:1039A00062468C461946634600E000BF01B5FFF74A
:1039B000B7FF002848BF10F1000F01BD4DF808ED1A
:1039C000FFF7F4FF0CBF012000205DF808FB00BFEB
:1039D0004DF808EDFFF7EAFF34BF012000205DF845
:1039E00008FB00BF4DF808EDFFF7E0FF94BF012092
:1039F00000205DF808FB00BF4DF808EDFFF7CEFF93
:103A000094BF012000205DF808FB00BF4DF808EDD1
:103A1000FFF7C4FF34BF012000205DF808FB00BFA2
:103A20004A0011D212F5001211D20DD56FF478733D
:103A3000B3EB62520ED44FEAC12343F0004343EA92
:103A4000505323FA02F070474FF00000704750EADD
:103A5000013002D14FF0FF3070474FF00000704747
:103A600008B50021044600F0D5F8044B1868C36B74
:103A700003B198472046FEF7C1FA00BFA8520800DC
:103A8000844641EA000313F0030349D1403A23D3AB
:103A90000B6803604B6843608B688360CB68C360CE
:103AA0000B6903614B6943618B698361CB69C361B6
:103AB0000B6A03624B6A43628B6A8362CB6AC3629E
:103AC0000B6B03634B6B43638B6B8363CB6BC36386
:103AD00040304031403ADBD230320BD30B680360C8
:103AE0004B6843608B688360CB68C36010301031D3
:103AF000103AF3D20C3205D351F8043B40F8043BA2
:103B0000043AF9D2043208D0D2071CBF11F8013BA5
:103B100000F8013B01D30B8803806046704700BF6B
:103B2000082A13D38B07B1D010F00303AED0C3F132
:103B30000403D21ADB071CBF11F8013B00F8013B5C
:103B4000A4D331F8023B20F8023B9FE7043AD9D3D3
:103B5000013A11F8013B00F8013BF9D20B780370F0
:103B60004B7843708B78837060467047F0B484075D
:103B700043D0541E002A3ED0CDB2034603E0621E5D
:103B8000002C38D0144603F8015B9A07F7D1032CB8
:103B90002AD9CDB245EA05250F2C45EA054515D9A8
:103BA000A4F110073F0903F1100606EB07161A46A9
:103BB000156055609560D5601032B242F8D104F0BE
:103BC0000F040137032C03EB07130DD91E462246C1
:103BD000043A032A46F8045BFAD8221F22F00302B3
:103BE0000432134404F003042CB1C9B21C4403F89A
:103BF000011BA342FBD1F0BC704714460346C6E745
:103C0000024B13B1024800F07DB87047000000007D
:103C1000113D08002DE9F04F384B85B01B6802902C
:103C200003F5A47201930F460392019BD3F84881D8
:103C3000B8F1000F1CD0DDF80CB04FF00109DA46E6
:103C4000D8F804305C1E11D408F188059E1C05EBE1
:103C5000830508EB860677B1EB6FBB420BD0013CC6
:103C6000631CA5F10405A6F10406F4D1244A7ABB2D
:103C700005B0BDE8F08FD8F8042056F8043C013AAE
:103C8000A24216BF0022C8F8044046F8042C002BBC
:103C9000E5D009FA04F2D8F88811D8F804B00A423D
:103CA00010D0D8F88C110A420ED1029855F8041C95
:103CB0009847D8F804305B45B7D1DAF8003043456F
:103CC000CDD0B2E79847F4E755F8040C9847F0E7F1
:103CD000D8F804306BB9D8F8003063B14046CAF860
:103CE0000030AFF30080DAF80080B8F1000FA7D100
:103CF000BEE7D8F80030C2469846F6E7A85208005A
:103D000000000000014600200246034600F018B8FB
:103D100038B5094D094C641BA41018BF05EB840588
:103D200005D0013C55F8043D9847002CF9D1BDE879
:103D3000384001F0C5BA00BFCC520800D05208008C
:103D4000F0B5274C85B026680746D6F84841002CC8
:103D500040D065681F2D1EDD224818B94FF0FF3096
:103D600005B0F0BD4FF4C870039102920193AFF318
:103D7000008003990446029A019B0028EED0D6F8F1
:103D800048510020256060600546C6F84841C4F8E7
:103D90008801C4F88C013FB96B1C002002356360B8
:103DA00044F8251005B0F0BD0126AE4004EB8500B7
:103DB000C0F88820D4F88821022F42EA0602C4F80D
:103DC0008821C0F80831E7D1D4F88C311E43C4F8FB
:103DD0008C61E1E706F5A674C6F84841B9E700BF73
:103DE000A852080000000000A44100A08450000078
:103DF000A64100A00652BD41A641A602265200F4EB
:103E0000A641F87F4652BD33A641C002665200F477
:103E1000A641000086520000A64100A0A652A8417B
:103E2000A641C904C6520831A6410000E652C84561
:103E3000A641000CC6530000A641FEFFE653E04039
:103E4000242300D0A641030006526530A641998D77
:103E50002652B525A641B4254652450CA641AA4195
:103E60006652306FA641C06D865220FFA641CAFC43
:103E7000A6526806A641B26DC6520000A64140C0D7
:103E8000E6522601A6414080C6530601A6412319E9
:103E9000E653E127242328D0A64103190652FBFF4D
:103EA000A641E3182652FCFFA64183B44652FDFF0B
:103EB000A641C3186652F0FFA641BF458652FEFFD9
:103EC000A6410380A652A460A6410090C652A460F9
:103ED000A641400CE6529F45A641B8F9C653BD33F2
:103EE000A6413D23E65384EE242350D0A641040E80
:103EF000065220D6A6411400265200F4A641100016
:103F000046529D30A641120066523D16A64113004E
:103F100086525D14A641CA44A6529024A6410104CB
:103F2000C6525190A6416C01E6520294A64102008D
:103F3000C653B130A6411400E65300F4242378D0D0
:103F4000A641140006529D30A641896D2652126F7B
:103F5000A641096E46526605A641A009665298041C
:103F6000A641805086521509A641B024A652FFFFF3
:103F7000A64100F4C652896EA6415100E652F603EE
:103F8000A64151B4C653908AA6415D14E6535A0126
:103F90002423A0D0A6417D1406521000A64103EEB2
:103FA00026521100A641D34446522025A6411A01AB
:103FB00066528294A641040086526290A64169002E
:103FC000A6520394A6416294C65281EDA64182EDA9
:103FD000E6520C01A641A300C65362B4A6411400E8
:103FE000E653FD142423C8D0A641150006521D1522
:103FF000A641180026525D14A641190046527D14B0
:10400000A641030066529060A64117008652BD1477
:10401000A6411600A6525D15A6411B00C652DD142E
:10402000A6411A00E6523D15A6410080C65308017C
:10403000A6410080E65363002423F0D0A64100C0CF
:104040000652E700A64100C026524200A641903A1F
:1040500046520701A64190606652D344A641EF4400
:1040600086520010A6410040A6526900A6410040B9
:10407000C6520A01A641F344E652F244A641B003F7
:10408000C65300F4A641902AE6530501242318D113
:10409000A641804006526200A641AD2F2652BD2D9A
:1040A000A6416C0146520240A64180806652A200A1
:1040B000A64180508652A26CA6414230A652FFFF14
:1040C000A641D10CC6520900A6417D18E652896E60
:1040D000A6412524C6531200A641F603E65300F478
:1040E000242340D1A64113000652FD18A64198048E
:1040F0002652096EA64190894652A125A6411189F2
:104100006652188CA64184278652896DA641A84123
:10411000A652F607A6413009C65220FFA641330B2E
:10412000E652B10AA6414200C653320AA641A50092
:10413000E65300C0242368D1A641D544065200802E
:10414000A64140262652D644A641B26D4652D444DA
:10415000A6410000665248F8A641EFFF8652E3B43C
:10416000A6413D23A652000CA641400CC652205643
:10417000A641BD33E6529F45A64184EDC65348068D
:10418000A6416800E6536294242390D1A64162B40C
:104190000652EAEDA6415D1426523A00A6417D146E
:1041A00046521400A641BD1466521500A6415D1684
:1041B00086521600A6416300A6521700A64142008F
:1041C000C6520080A641D344E65200C0A641909258
:1041D000C6534202A6417200E653D0252423B8D12B
:1041E000A6417D1406529092A6419D3026521D0094
:1041F000A641A03046521804A6413D166652000161
:10420000A6419D1686521800A6417D16A652190099
:10421000A641FD16C6521A00A641DD16E6521B0045
:10422000A64100F4C6531C00A6417DF8E6531400D5
:104230002423E0D1A641906006521806A641B20C94
:1042400026520300A64118044652DD30A641001054
:1042500066529060A641EC02865200F4A64100012D
:10426000A652E030A641AF00C6520294A64100C05B
:10427000E6523102A6418040C6536200A6418CCF6F
:10428000E653BD2D242308D2A64195EF0652AD2F4B
:10429000A641FC0026526030A641FF004652A030E5
:1042A000A641FF0066524030A6415D1886527FEE5F
:1042B000A6419D18A6521400A6419D18C652100092
:1042C000A641BD18E6521100A6417D18C65315003F
:1042D000A641FD18E6531600242330D2A64103EC74
:1042E00006521700A641090026524032A64108EFA7
:1042F00046528D6CA6418050665204EDA641896EEF
:104300008652FFFFA6411200A6521D18A641F603D1
:10431000C65200F4A6411300E6525D18A641A1253D
:10432000C653096EA6415091E6534402242358D245
:10433000A6417ACF06529089A64100002652521813
:10434000A64114004652FD14A641150066521D15E3
:10435000A64118008652BD14A6411900A652DD14CC
:10436000A6410300C6529060A6411700E6523D16D2
:10437000A6411600C6537D14A6411B00E6533D1509
:10438000242380D2A6411A0006525D14A641008063
:104390002652C600A64100C04652E700A641008052
:1043A00066520801A64100C08652A500A641903A77
:1043B000A6520701A641CF44C652EE44A641902A18
:1043C000E6522501A6412025C653B025A64100107E
:1043D000E65390602423A8D2A64145000652CB4460
:1043E000A6410F6F26529082A64100F44652B10CAE
:1043F000A641100066525803A64150B48652903A26
:10440000A6416200A652A3FFA6414284C652804044
:10441000A641D402E65200F4A6411C00C6539D30CA
:10442000A64102B4E65390EF2423D0D2A6416030D7
:1044300006529FFFA64102EC2652FC00A641050051
:1044400046524032A64104EF66528B6CA641400CA6
:104450008652AECFA6411800A652DD14A64119001F
:10446000C652FD14A6411400E6529D14A641150043
:10447000C653BD14A6411B00E6535D142423F8D295
:10448000A6411A0006523D15A641170026521D15D9
:10449000A641160046527D14A64100806652A50032
:1044A000A64100C08652C600A6410080A652E70081
:1044B000A64100C0C6528400A641E544E652F74436
:1044C000A6410401C653D644A641A900E653902252
:1044D000242320D3A641B02506520040A641D5444E
:1044E0002652DC44A641029446520B6EA641340784
:1044F0006652A500A641406E8652B00AA641C3B4DA
:10450000A652B06DA641A418C652FBFFA641620098
:10451000E652FFFFA641BD2DC6538040A641AD2FF8
:10452000E653EDCE242348D3A641EA000652E030FC
:10453000A6416030265261CFA64191EF4652FF005E
:10454000A641603066525DCFA64194028652FC00BF
:10455000A6413402A6520080A6417302C652908A38
:10456000A641F102E6520040A6418050C653908A0F
:10457000A641BD30E653FFFF242370D3A641C030CF
:1045800006521804A64100F426520001A641710209
:104590004652F603A641620E665290A2A641010160
:1045A000865254B0A6418A00A65202B4A641000128
:1045B000C652C033A6410001E652A032A64137726E
:1045C000C653E00EA6419D30E6530100242398D344
:1045D000A641D10306521804A641C4032652004046
:1045E000A6419E0C465250F1A6411400665200F4BA
:1045F000A64100018652A030A6410300A652906059
:10460000A6411203C65200F4A6410010E652906083
:10461000A64122FFC65302B4A6410040E65337012B
:104620002423C0D3A641180406525D30A641504948
:1046300026522201A64150294652B202A64100014B
:1046400066526931A641690C865204CCA641160017
:10465000A6526395A6412301C652DE0CA641DE0791
:10466000E652D039A6410000C65303FDA64100FF23
:10467000E65347FC2423E8D3A641F4FF06524894AE
:10468000A64190EF2652B26DA641FC004652603022
:10469000A64110FC66524030A64180808652A2009E
:1046A000A6410CCFA652DD2EA64140C0C652420004
:1046B000A6410300E6529060A6410001C653E030D7
:1046C000A641EC02E65300F4242310D4A6410010C6
:1046D00006529060A641F4FE265202B4A641BE0CDA
:1046E0004652930CA64100016652C030A641F60323
:1046F000865200F4A6410001A652B532A6419502A9
:10470000C652620EA641D50FE6529013A641AFFFE6
:10471000C65302B4A6419060E653F10E242338D468
:10472000A64100F406520300A641906026521203EF
:10473000A64102B446520010A64190246652DDFE06
:10474000A641180486527D30A6415232A6529604E4
:10475000A641D203C65200FFA641D130E652509185
:10476000A64104CCC6530001A641C394E653710C84
:10477000242360D4A641E00C06520E00A641440258
:1047800026521706A641B06A46525021A64185948A
:104790006652406AA641B26D8652F6FFA64190EF7E
:1047A000A652BDCFA64156CEC652600CA6417DFC96
:1047B000E652E00CA641D602C6531806A641760082
:1047C000E6530040242388D4A6417596065290AA49
:1047D000A641600C26524DFEA6416030465291EF34
:1047E000A641B0CF6652FC00A64111FC8652403073
:1047F000A641200EA652CCCFA64180BFC652A241F0
:10480000A6417036E6528230A641C0E9C653600C1C
:10481000A64199AAE653A3412423B0D4A6415566E4
:1048200006526330A641A3412652C0E9A641635017
:1048300046526655A641C0E96652AA99A6410100B2
:104840008652A341A641A026A6528230A6418000EE
:10485000C6526330A6418030E652C0E9A6416230BC
:10486000C6530001A64130EAE65380262423D8D45B
:10487000A6414230065201EEA64120EA2652882681
:10488000A641212D46523069A641FCFF6652A24046
:10489000A641A3418652F14FA6416330A65280BF84
:1048A000A641E7CBC6527036A64100F4E65230E985
:1048B000A6410000C6532C03A641A541E6530000C3
:1048C000242300D5A641096E065200A0A64152033A
:1048D000265200F4A64140084652A530A64100F4F5
:1048E00066520B6EA641BD3086523200A64100F4DE
:1048F000A6521000A6419D30C6523800A641E040A5
:10490000E6521400A641000CC653FAFFA64100A0CF
:10491000E653A641242328D5A64100A00652A5416E
:10492000A64140082652C630A6414C084652A53042
:10493000A64145006652EB06A6410C8D86528010BA
:10494000A64100A0A652A741A641E730C652400C9E
:10495000A641AE05E6524008A641AC05C653306AF2
:10496000A641A2B4E653226D242350D5A64130EAD5
:104970000652FAFFA641000C2652BF45A64100A0F0
:104980004652A541A64100A06652A441A6414C084A
:104990008652A530A6415008A6528430A641640034
:1049A000C6525906A641868DE6528010A641AA0538
:1049B000C653400CA64182B4E653226D242378D519
:1049C000A64130E80652FCFFA641000C2652BF4526
:1049D000A6416A0746520DCCA641441C6652D06ED1
:1049E000A641651C8652FFFFA6416200A652FFFF4A
:1049F000A64189AFC652503BA6415013E652430030
:104A0000A6410700C653A240A641F2FFE653C5B433
:104A10002423A0D5A6419F450652406EA6419F453E
:104A20002652400CA6419F4546527FEDA641000C00
:104A3000665201EDA64180BF8652A241A64150298F
:104A4000A6526230A641A341C652B0EAA6416350C5
:104A5000E652FF1FA641B344C653FFFFA64180297B
:104A6000E65362302423C8D5A6416030065230EBAD
:104A7000A641823026520340A641C0E94652302961
:104A8000A64199AA6652A341A64140298652823086
:104A9000A6415566A6526330A641A341C652C0E95D
:104AA000A6416350E6526655A641C0E9C653AA998D
:104AB000A6410080E65360502423F0D5A641382952
:104AC00006524230A6419F452652A0E9A641000C5D
:104AD0004652400CA64180BF6652A241A6413029F1
:104AE00086524230A641BE2DA652A069A641A441DD
:104AF000C652FDADA6414430E65280BFA6412069B2
:104B0000C6533029A6410040E653A030242318D6CE
:104B1000A64134290652C430A64184302652E0EA28
:104B2000A641C0E946524029A64100906652420083
:104B3000A641420086529F45A641000CA65280F82D
:104B4000A64100A0C652A341A6414C08E652431C10
:104B5000A6418294C65301EEA641000CE6531D0007
:104B6000242340D6A6414C0806528318A64180BF94
:104B70002652A241A64199AA4652A441A6414029E3
:104B800066526230A641556686528430A641A441E1
:104B9000A65230EAA6418450C6526655A64130EA74
:104BA000E652AA99A6410080C6538050A641A82982
:104BB000E653A230242368D6A6418030065250EA3C
:104BC000A641423026520007A64120EA4652A429B7
:104BD000A64130E96652400CA641400C86529F45E2
:104BE000A6410380A652A460A6410090C652A460CC
:104BF000A641400CE6529F45A6415500C653079476
:104C0000A641AB41E653470C242390D6A641F94F69
:104C1000065280BFA64199AA2652AD41A6416655CB
:104C20004652AC41A641302966528B30A64104D091
:104C300086527D20A6414029A6524B31A6415029DB
:104C4000C6524B32A6416029E6522B32A64170294A
:104C5000C6530B32A6413829E6532B332423B8D64A
:104C6000A6416B310652060DA641EB0626523429A9
:104C7000A641024046520033A64155666652AD3108
:104C8000A641AA9986528C51A6410080A652E051B5
:104C9000A6410040C652C031A6415019E652A800B4
:104CA000A6410000C65372F8A6410000E65368FC16
:104CB0002423E0D6A6410831065290E9A64168FCBB
:104CC00026520800A64180E94652FCFFA64100009A
:104CD000665204FBA64100008652AAF9A6410000D4
:104CE000A6528AF9A6410000C652F9F9A641BE2D86
:104CF000E652C069A641FCFFC653A340A64100008E
:104D0000E65324FD242308D7A64100000652CBF920
:104D1000A641000026526AF8A6410020465229D139
:104D2000A641040066520994A641D0198652C800D3
:104D3000A64110FCA6524030A641901BC652E3008B
:104D4000A6410400E652E340A641D6FFC65347946D
:104D5000A6415019E653A800242330D7A641045099
:104D600006527D20A641BF4526520447A641403049
:104D700046526E6FA641A600665200F8A6414F004B
:104D800086525079A641AA44A652507AA641901361
:104D9000C652AF00A641A741E65238ADA641A9418F
:104DA000C65380BFA641A841E65399AA242358D7E9
:104DB000A641C73106526655A64167302652502992
:104DC000A641C73046523029A641A7316652402934
:104DD000A641803186523829A641E730A6520440C8
:104DE000A6412931C6523429A6410851E6525566DA
:104DF000A6416051C653AA99A6414031E6530080AE
:104E0000242380D7A641AEF806520040A64183F97C
:104E100026520000A64126F946520000A64106F996
:104E200066520000A6416DF986520000A641306925
:104E3000A6520000A641A240C6522E2DA641306ABD
:104E4000E652FCFFA6410000C65347F9A64184D0B4
:104E5000E65360E92423A8D7A641058E0652002018
:104E6000A64100082652A530A641403046529F4533
:104E7000A641AF0066520FFCA641E2408652901355
:104E8000A6419F45A652E2FFA641000CC652400C27
:104E9000A641C127E6524F2EA6414D2EC653158F6F
:104EA000A6410515E6536A072423D0D7A641D06E44
:104EB00006520000A641103BE65307012422F8D712
:104EC000A44100A084500008A6415F440652F92581
:104ED000A641401826520301A641103B4652040148
:104EE000A6413A2666523825A641634486527A4442
:104EF000A641C5B4A652FD2FA6414D2EC652EEFFC7
:104F0000A6414A05E652F026A6412F2DC6539F45DD
:104F1000A6410000E6530000242300D0A641030070
:104F200006520000A641000126520101A6410000E0
:104F3000E6530000442228D0B94100A039530100B3
:104F400019003C0F302E31302E30000007050202D0
:104F50000002800005240100010000000904000097
:104F6000010202000000000012010002EF020140F5
:104F700041233780000100000001000005240001EA
:104F80001000000007058103100040000424020601
:104F90000705830200028000080B000202020100E4
:104FA000052406000100000009040100020A0000B7
:104FB0000000000009024B0002010080FA0000001E
:104FC0002F647269766572732F756172742F7278AF
:104FD0005F6368616E6E656C5F6F766572666C6F3D
:104FE000770000002F647269766572732F756172A5
:104FF000742F72785F6572726F72730000002110F7
:10500000422063308440A550C660E7700881299132
:105010004AA16BB18CC1ADD1CEE1EFF131121002DA
:1050200073325222B5529442F772D6623993188382
:105030007BB35AA3BDD39CC3FFF3DEE362244334A6
:1050400020040114E664C774A44485546AA54BB5D2
:1050500028850995EEE5CFF5ACC58DD5533672267A
:1050600011163006D776F6669556B4465BB77AA722
:1050700019973887DFF7FEE79DD7BCC7C448E558C6
:105080008668A7784008611802282338CCC9EDD972
:105090008EE9AFF9488969990AA92BB9F55AD44A1A
:1050A000B77A966A711A500A333A122AFDDBDCCBC2
:1050B000BFFB9EEB799B588B3BBB1AABA66C877CE6
:1050C000E44CC55C222C033C600C411CAEED8FFD12
:1050D000ECCDCDDD2AAD0BBD688D499D977EB66EBA
:1050E000D55EF44E133E322E511E700E9FFFBEEF62
:1050F000DDDFFCCF1BBF3AAF599F788F8891A98124
:10510000CAB1EBA10CD12DC14EF16FE18010A1000D
:10511000C230E3200450254046706760B9839893FD
:10512000FBA3DAB33DC31CD37FE35EF3B10290125D
:10513000F322D2323542145277625672EAB5CBA5C9
:10514000A89589856EF54FE52CD50DC5E234C324AD
:10515000A01481046674476424540544DBA7FAB79D
:105160009987B8975FE77EF71DC73CD7D326F236FD
:105170009106B01657667676154634564CD96DC9E9
:105180000EF92FE9C899E9898AB9ABA9445865484D
:1051900006782768C018E1088238A3287DCB5CDB3D
:1051A0003FEB1EFBF98BD89BBBAB9ABB754A545A9D
:1051B000376A167AF10AD01AB32A923A2EFD0FED09
:1051C0006CDD4DCDAABD8BADE89DC98D267C076CED
:1051D000645C454CA23C832CE01CC10C1FEF3EFFDD
:1051E0005DCF7CDF9BAFBABFD98FF89F176E367E3D
:1051F000554E745E932EB23ED10EF01E6D61696EF7
:105200000000000069646C65000000002F000000D1
:105210004357440025732573257300002530386CEF
:10522000782530386C780D0A000000000D0A000067
:1052300025733A20636F6D6D616E64206E6F74200C
:10524000666F756E640D0A0025730D0A000000007C
:1052500025640000E9280800F1280800F528080066
:10526000F928080000000000F128080000000000F4
:105270000000000000000000286E756C6C29000022
:10528000270000002020200025630000090A0B0CE5
:105290000D200000253038783A2000002530327883
:1052A0002000000043000000A8040720F8B500BF5C
:1052B000F8BC08BC9E467047013C08001901080074
:1052C000F8B500BFF8BC08BC9E467047F500080062
:10530000684F0800B44F0800984F08005C4F080031
:105310007C4F08008C4F0800A04F0800544F080035
:10532000844F0800A84F08004C4F0800904F080019
:10533000000000000000000000080E40000E0E40BB
:1053400000010000000E0E400002000008000000F6
:10535000000000000000800940000E0E4000040024
:1053600000000E0E400008000011000000000000C8
:10537000000000C00940000E0E4000100000000EAA
:105380000E4000200000120000000000000000009D
:10539000000A4000100E400000200000100E4000E7
:1053A00000400013000000000000000000C00A40A0
:1053B00028000000000000000000000000000000C5
:1053C00000000000000000000000000000000000DD
:1053D00000000000000000000000000000000000CD
:1053E00000000000000000000000000000000000BD
:1053F00000000000000000000000000000000000AD
:10540000000000000000000000000000000000009C
:10541000000000000000000000000000000000008C
:10542000000000000000000000000000000E0E4020
:1054300001000000000E0E4002000000000E0E40B1
:1054400004000000000E0E4008000000000E0E4098
:1054500010000000000E0E4020000000000E0E4064
:1054600040000000000E0E4080000000000E0E40C4
:1054700000010000000E0E4000020000000E0E4071
:1054800000040000000E0E4000080000000E0E4058
:1054900000100000000E0E4000200000000E0E4024
:1054A00000400000000E0E4000800000000E0E4084
:1054B00000000100000E0E4000000200000E0E4031
:1054C00000000400000E0E4000000800000E0E4018
:1054D00000001000000E0E4000002000000E0E40E4
:1054E00000004000000E0E4000008000000E0E4044
:1054F00000000001000E0E4000000002000E0E40F1
:1055000000000004000E0E4000000008000E0E40D7
:1055100000000010000E0E400000002000100E40A1
:105520000100000000100E400200000000100E40BC
:105530000400000000100E400800000000100E40A3
:105540001000000000100E402000000000100E406F
:105550004000000000100E408000000000100E40CF
:105560000001000000100E400002000000100E407C
:105570000004000000100E400008000000100E4063
:105580000010000000100E400020000000100E402F
:105590000040000000100E400080000000100E408F
:1055A0000000010000100E400000020000100E403C
:1055B0000000040000100E400000080000100E4023
:1055C0000000100000100E400000200000100E40EF
:1055D0000000400000100E400000800000100E404F
:1055E0000000000100100E400000000200100E40FC
:1055F0000000000400100E400000000800100E40E3
:105600000000001000100E400000002000100E40AE
:105610000000004000100E400000008000120E400C
:105620000100000000120E400200000000120E40B7
:105630000400000000120E400800000000120E409E
:105640001000000000120E402000000000120E406A
:105650004000000000120E408000000000120E40CA
:105660000001000000120E400002000000120E4077
:105670000004000000120E400008000000120E405E
:105680000010000000120E400020000000120E402A
:105690000040000000120E400080000000120E408A
:1056A0000000010000120E400000020000120E4037
:1056B0000000040000120E400000080000120E401E
:1056C0000000100000120E400000200000120E40EA
:1056D0000000400000120E400000800000120E404A
:1056E0000000000100120E400000000200120E40F7
:1056F0000000000400120E400000000800120E40DE
:105700000000001000120E400000002000120E40A9
:105710000000004000140E400100000000140E4084
:105720000200000000140E400400000000140E40AF
:105730000800000000140E401000000000140E408D
:105740002000000000140E404000000000140E4035
:105750008000000000140E400001000000140E4004
:1057600000020000B91F0800000000000000000057
:105770007404072000000000FFFFFFFF000000008E
:10578000000000000000000000000000900407205E
:1057900000000000FFFFFFFF00000000000000000D
:1057A0000000000000000000000000009407072037
:1057B000FC0707206408072000000000000000002C
:1057C00000000000000000000000000000000000D9
:1057D000000000000000000000000000A4520800CB
:1057E00000000000000000000000000000000000B9
:1057F00000000000000000000000000000000000A9
:105800000000000000000000000000000000000098
:105810000000000000000000000000000000000088
:105820000000000000000000000000000000000078
:105830000000000000000000000000000000000068
:105840000000000000000000000000000000000058
:1058500001000000000000000E33CDAB34126DE6F5
:10586000ECDE05000B00000000000000000000005E
:105870000000000000000000000000000000000028
:105880000000000000000000000000000000000018
:105890000000000000000000000000000000000008
:1058A00000000000000000000000000000000000F8
:040000038000000079
:00000001FF
